{
	"CivilMetadataStorage.sol": {
		"CivilMetadataStorage": {
			"abi": [
				{
					"inputs": [
						{
							"internalType": "string",
							"name": "_documentId",
							"type": "string"
						}
					],
					"name": "getDocument",
					"outputs": [
						{
							"internalType": "string",
							"name": "",
							"type": "string"
						},
						{
							"internalType": "string",
							"name": "",
							"type": "string"
						}
					],
					"stateMutability": "view",
					"type": "function"
				},
				{
					"inputs": [
						{
							"internalType": "string",
							"name": "_documentId",
							"type": "string"
						},
						{
							"internalType": "string",
							"name": "_ipfsHash",
							"type": "string"
						},
						{
							"internalType": "string",
							"name": "_encryptedMetadata",
							"type": "string"
						}
					],
					"name": "storeDocument",
					"outputs": [],
					"stateMutability": "nonpayable",
					"type": "function"
				}
			],
			"devdoc": {
				"kind": "dev",
				"methods": {},
				"version": 1
			},
			"evm": {
				"assembly": "    /* \"CivilMetadataStorage.sol\":59:958  contract CivilMetadataStorage {... */\n  mstore(0x40, 0x80)\n  callvalue\n  dup1\n  iszero\n  tag_1\n  jumpi\n  0x00\n  dup1\n  revert\ntag_1:\n  pop\n  dataSize(sub_0)\n  dup1\n  dataOffset(sub_0)\n  0x00\n  codecopy\n  0x00\n  return\nstop\n\nsub_0: assembly {\n        /* \"CivilMetadataStorage.sol\":59:958  contract CivilMetadataStorage {... */\n      mstore(0x40, 0x80)\n      callvalue\n      dup1\n      iszero\n      tag_1\n      jumpi\n      0x00\n      dup1\n      revert\n    tag_1:\n      pop\n      jumpi(tag_2, lt(calldatasize, 0x04))\n      shr(0xe0, calldataload(0x00))\n      dup1\n      0x7ccb6a64\n      eq\n      tag_3\n      jumpi\n      dup1\n      0xf2d893e4\n      eq\n      tag_4\n      jumpi\n    tag_2:\n      0x00\n      dup1\n      revert\n        /* \"CivilMetadataStorage.sol\":723:956  function getDocument(string memory _documentId) public view returns (... */\n    tag_3:\n      tag_5\n      0x04\n      dup1\n      calldatasize\n      sub\n      dup2\n      add\n      swap1\n      tag_6\n      swap2\n      swap1\n      tag_7\n      jump\t// in\n    tag_6:\n      tag_8\n      jump\t// in\n    tag_5:\n      mload(0x40)\n      tag_9\n      swap3\n      swap2\n      swap1\n      tag_10\n      jump\t// in\n    tag_9:\n      mload(0x40)\n      dup1\n      swap2\n      sub\n      swap1\n      return\n        /* \"CivilMetadataStorage.sol\":416:656  function storeDocument(... */\n    tag_4:\n      tag_11\n      0x04\n      dup1\n      calldatasize\n      sub\n      dup2\n      add\n      swap1\n      tag_12\n      swap2\n      swap1\n      tag_13\n      jump\t// in\n    tag_12:\n      tag_14\n      jump\t// in\n    tag_11:\n      stop\n        /* \"CivilMetadataStorage.sol\":723:956  function getDocument(string memory _documentId) public view returns (... */\n    tag_8:\n        /* \"CivilMetadataStorage.sol\":801:814  string memory */\n      0x60\n        /* \"CivilMetadataStorage.sol\":816:829  string memory */\n      dup1\n        /* \"CivilMetadataStorage.sol\":846:870  CivilDocument memory doc */\n      0x00\n        /* \"CivilMetadataStorage.sol\":873:882  documents */\n      dup1\n        /* \"CivilMetadataStorage.sol\":883:894  _documentId */\n      dup5\n        /* \"CivilMetadataStorage.sol\":873:895  documents[_documentId] */\n      mload(0x40)\n      tag_16\n      swap2\n      swap1\n      tag_17\n      jump\t// in\n    tag_16:\n      swap1\n      dup2\n      mstore\n      0x20\n      add\n      mload(0x40)\n      dup1\n      swap2\n      sub\n      swap1\n      keccak256\n        /* \"CivilMetadataStorage.sol\":846:895  CivilDocument memory doc = documents[_documentId] */\n      mload(0x40)\n      dup1\n      0x40\n      add\n      0x40\n      mstore\n      swap1\n      dup2\n      0x00\n      dup3\n      add\n      dup1\n      sload\n      tag_18\n      swap1\n      tag_19\n      jump\t// in\n    tag_18:\n      dup1\n      0x1f\n      add\n      0x20\n      dup1\n      swap2\n      div\n      mul\n      0x20\n      add\n      mload(0x40)\n      swap1\n      dup2\n      add\n      0x40\n      mstore\n      dup1\n      swap3\n      swap2\n      swap1\n      dup2\n      dup2\n      mstore\n      0x20\n      add\n      dup3\n      dup1\n      sload\n      tag_20\n      swap1\n      tag_19\n      jump\t// in\n    tag_20:\n      dup1\n      iszero\n      tag_21\n      jumpi\n      dup1\n      0x1f\n      lt\n      tag_22\n      jumpi\n      0x0100\n      dup1\n      dup4\n      sload\n      div\n      mul\n      dup4\n      mstore\n      swap2\n      0x20\n      add\n      swap2\n      jump(tag_21)\n    tag_22:\n      dup3\n      add\n      swap2\n      swap1\n      0x00\n      mstore\n      keccak256(0x00, 0x20)\n      swap1\n    tag_23:\n      dup2\n      sload\n      dup2\n      mstore\n      swap1\n      0x01\n      add\n      swap1\n      0x20\n      add\n      dup1\n      dup4\n      gt\n      tag_23\n      jumpi\n      dup3\n      swap1\n      sub\n      0x1f\n      and\n      dup3\n      add\n      swap2\n    tag_21:\n      pop\n      pop\n      pop\n      pop\n      pop\n      dup2\n      mstore\n      0x20\n      add\n      0x01\n      dup3\n      add\n      dup1\n      sload\n      tag_24\n      swap1\n      tag_19\n      jump\t// in\n    tag_24:\n      dup1\n      0x1f\n      add\n      0x20\n      dup1\n      swap2\n      div\n      mul\n      0x20\n      add\n      mload(0x40)\n      swap1\n      dup2\n      add\n      0x40\n      mstore\n      dup1\n      swap3\n      swap2\n      swap1\n      dup2\n      dup2\n      mstore\n      0x20\n      add\n      dup3\n      dup1\n      sload\n      tag_25\n      swap1\n      tag_19\n      jump\t// in\n    tag_25:\n      dup1\n      iszero\n      tag_26\n      jumpi\n      dup1\n      0x1f\n      lt\n      tag_27\n      jumpi\n      0x0100\n      dup1\n      dup4\n      sload\n      div\n      mul\n      dup4\n      mstore\n      swap2\n      0x20\n      add\n      swap2\n      jump(tag_26)\n    tag_27:\n      dup3\n      add\n      swap2\n      swap1\n      0x00\n      mstore\n      keccak256(0x00, 0x20)\n      swap1\n    tag_28:\n      dup2\n      sload\n      dup2\n      mstore\n      swap1\n      0x01\n      add\n      swap1\n      0x20\n      add\n      dup1\n      dup4\n      gt\n      tag_28\n      jumpi\n      dup3\n      swap1\n      sub\n      0x1f\n      and\n      dup3\n      add\n      swap2\n    tag_26:\n      pop\n      pop\n      pop\n      pop\n      pop\n      dup2\n      mstore\n      pop\n      pop\n      swap1\n      pop\n        /* \"CivilMetadataStorage.sol\":913:916  doc */\n      dup1\n        /* \"CivilMetadataStorage.sol\":913:925  doc.ipfsHash */\n      0x00\n      add\n      mload\n        /* \"CivilMetadataStorage.sol\":927:930  doc */\n      dup2\n        /* \"CivilMetadataStorage.sol\":927:948  doc.encryptedMetadata */\n      0x20\n      add\n      mload\n        /* \"CivilMetadataStorage.sol\":905:949  return (doc.ipfsHash, doc.encryptedMetadata) */\n      swap3\n      pop\n      swap3\n      pop\n      pop\n        /* \"CivilMetadataStorage.sol\":723:956  function getDocument(string memory _documentId) public view returns (... */\n      swap2\n      pop\n      swap2\n      jump\t// out\n        /* \"CivilMetadataStorage.sol\":416:656  function storeDocument(... */\n    tag_14:\n        /* \"CivilMetadataStorage.sol\":604:648  CivilDocument(_ipfsHash, _encryptedMetadata) */\n      mload(0x40)\n      dup1\n      0x40\n      add\n      0x40\n      mstore\n      dup1\n        /* \"CivilMetadataStorage.sol\":618:627  _ipfsHash */\n      dup4\n        /* \"CivilMetadataStorage.sol\":604:648  CivilDocument(_ipfsHash, _encryptedMetadata) */\n      dup2\n      mstore\n      0x20\n      add\n        /* \"CivilMetadataStorage.sol\":629:647  _encryptedMetadata */\n      dup3\n        /* \"CivilMetadataStorage.sol\":604:648  CivilDocument(_ipfsHash, _encryptedMetadata) */\n      dup2\n      mstore\n      pop\n        /* \"CivilMetadataStorage.sol\":579:588  documents */\n      0x00\n        /* \"CivilMetadataStorage.sol\":589:600  _documentId */\n      dup5\n        /* \"CivilMetadataStorage.sol\":579:601  documents[_documentId] */\n      mload(0x40)\n      tag_30\n      swap2\n      swap1\n      tag_17\n      jump\t// in\n    tag_30:\n      swap1\n      dup2\n      mstore\n      0x20\n      add\n      mload(0x40)\n      dup1\n      swap2\n      sub\n      swap1\n      keccak256\n        /* \"CivilMetadataStorage.sol\":579:648  documents[_documentId] = CivilDocument(_ipfsHash, _encryptedMetadata) */\n      0x00\n      dup3\n      add\n      mload\n      dup2\n      0x00\n      add\n      swap1\n      dup2\n      tag_31\n      swap2\n      swap1\n      tag_32\n      jump\t// in\n    tag_31:\n      pop\n      0x20\n      dup3\n      add\n      mload\n      dup2\n      0x01\n      add\n      swap1\n      dup2\n      tag_33\n      swap2\n      swap1\n      tag_32\n      jump\t// in\n    tag_33:\n      pop\n      swap1\n      pop\n      pop\n        /* \"CivilMetadataStorage.sol\":416:656  function storeDocument(... */\n      pop\n      pop\n      pop\n      jump\t// out\n        /* \"#utility.yul\":7:82   */\n    tag_34:\n        /* \"#utility.yul\":40:46   */\n      0x00\n        /* \"#utility.yul\":73:75   */\n      0x40\n        /* \"#utility.yul\":67:76   */\n      mload\n        /* \"#utility.yul\":57:76   */\n      swap1\n      pop\n        /* \"#utility.yul\":7:82   */\n      swap1\n      jump\t// out\n        /* \"#utility.yul\":88:205   */\n    tag_35:\n        /* \"#utility.yul\":197:198   */\n      0x00\n        /* \"#utility.yul\":194:195   */\n      dup1\n        /* \"#utility.yul\":187:199   */\n      revert\n        /* \"#utility.yul\":211:328   */\n    tag_36:\n        /* \"#utility.yul\":320:321   */\n      0x00\n        /* \"#utility.yul\":317:318   */\n      dup1\n        /* \"#utility.yul\":310:322   */\n      revert\n        /* \"#utility.yul\":334:451   */\n    tag_37:\n        /* \"#utility.yul\":443:444   */\n      0x00\n        /* \"#utility.yul\":440:441   */\n      dup1\n        /* \"#utility.yul\":433:445   */\n      revert\n        /* \"#utility.yul\":457:574   */\n    tag_38:\n        /* \"#utility.yul\":566:567   */\n      0x00\n        /* \"#utility.yul\":563:564   */\n      dup1\n        /* \"#utility.yul\":556:568   */\n      revert\n        /* \"#utility.yul\":580:682   */\n    tag_39:\n        /* \"#utility.yul\":621:627   */\n      0x00\n        /* \"#utility.yul\":672:674   */\n      0x1f\n        /* \"#utility.yul\":668:675   */\n      not\n        /* \"#utility.yul\":663:665   */\n      0x1f\n        /* \"#utility.yul\":656:661   */\n      dup4\n        /* \"#utility.yul\":652:666   */\n      add\n        /* \"#utility.yul\":648:676   */\n      and\n        /* \"#utility.yul\":638:676   */\n      swap1\n      pop\n        /* \"#utility.yul\":580:682   */\n      swap2\n      swap1\n      pop\n      jump\t// out\n        /* \"#utility.yul\":688:868   */\n    tag_40:\n        /* \"#utility.yul\":736:813   */\n      0x4e487b7100000000000000000000000000000000000000000000000000000000\n        /* \"#utility.yul\":733:734   */\n      0x00\n        /* \"#utility.yul\":726:814   */\n      mstore\n        /* \"#utility.yul\":833:837   */\n      0x41\n        /* \"#utility.yul\":830:831   */\n      0x04\n        /* \"#utility.yul\":823:838   */\n      mstore\n        /* \"#utility.yul\":857:861   */\n      0x24\n        /* \"#utility.yul\":854:855   */\n      0x00\n        /* \"#utility.yul\":847:862   */\n      revert\n        /* \"#utility.yul\":874:1155   */\n    tag_41:\n        /* \"#utility.yul\":957:984   */\n      tag_79\n        /* \"#utility.yul\":979:983   */\n      dup3\n        /* \"#utility.yul\":957:984   */\n      tag_39\n      jump\t// in\n    tag_79:\n        /* \"#utility.yul\":949:955   */\n      dup2\n        /* \"#utility.yul\":945:985   */\n      add\n        /* \"#utility.yul\":1087:1093   */\n      dup2\n        /* \"#utility.yul\":1075:1085   */\n      dup2\n        /* \"#utility.yul\":1072:1094   */\n      lt\n        /* \"#utility.yul\":1051:1069   */\n      0xffffffffffffffff\n        /* \"#utility.yul\":1039:1049   */\n      dup3\n        /* \"#utility.yul\":1036:1070   */\n      gt\n        /* \"#utility.yul\":1033:1095   */\n      or\n        /* \"#utility.yul\":1030:1118   */\n      iszero\n      tag_80\n      jumpi\n        /* \"#utility.yul\":1098:1116   */\n      tag_81\n      tag_40\n      jump\t// in\n    tag_81:\n        /* \"#utility.yul\":1030:1118   */\n    tag_80:\n        /* \"#utility.yul\":1138:1148   */\n      dup1\n        /* \"#utility.yul\":1134:1136   */\n      0x40\n        /* \"#utility.yul\":1127:1149   */\n      mstore\n        /* \"#utility.yul\":917:1155   */\n      pop\n        /* \"#utility.yul\":874:1155   */\n      pop\n      pop\n      jump\t// out\n        /* \"#utility.yul\":1161:1290   */\n    tag_42:\n        /* \"#utility.yul\":1195:1201   */\n      0x00\n        /* \"#utility.yul\":1222:1242   */\n      tag_83\n      tag_34\n      jump\t// in\n    tag_83:\n        /* \"#utility.yul\":1212:1242   */\n      swap1\n      pop\n        /* \"#utility.yul\":1251:1284   */\n      tag_84\n        /* \"#utility.yul\":1279:1283   */\n      dup3\n        /* \"#utility.yul\":1271:1277   */\n      dup3\n        /* \"#utility.yul\":1251:1284   */\n      tag_41\n      jump\t// in\n    tag_84:\n        /* \"#utility.yul\":1161:1290   */\n      swap2\n      swap1\n      pop\n      jump\t// out\n        /* \"#utility.yul\":1296:1604   */\n    tag_43:\n        /* \"#utility.yul\":1358:1362   */\n      0x00\n        /* \"#utility.yul\":1448:1466   */\n      0xffffffffffffffff\n        /* \"#utility.yul\":1440:1446   */\n      dup3\n        /* \"#utility.yul\":1437:1467   */\n      gt\n        /* \"#utility.yul\":1434:1490   */\n      iszero\n      tag_86\n      jumpi\n        /* \"#utility.yul\":1470:1488   */\n      tag_87\n      tag_40\n      jump\t// in\n    tag_87:\n        /* \"#utility.yul\":1434:1490   */\n    tag_86:\n        /* \"#utility.yul\":1508:1537   */\n      tag_88\n        /* \"#utility.yul\":1530:1536   */\n      dup3\n        /* \"#utility.yul\":1508:1537   */\n      tag_39\n      jump\t// in\n    tag_88:\n        /* \"#utility.yul\":1500:1537   */\n      swap1\n      pop\n        /* \"#utility.yul\":1592:1596   */\n      0x20\n        /* \"#utility.yul\":1586:1590   */\n      dup2\n        /* \"#utility.yul\":1582:1597   */\n      add\n        /* \"#utility.yul\":1574:1597   */\n      swap1\n      pop\n        /* \"#utility.yul\":1296:1604   */\n      swap2\n      swap1\n      pop\n      jump\t// out\n        /* \"#utility.yul\":1610:1756   */\n    tag_44:\n        /* \"#utility.yul\":1707:1713   */\n      dup3\n        /* \"#utility.yul\":1702:1705   */\n      dup2\n        /* \"#utility.yul\":1697:1700   */\n      dup4\n        /* \"#utility.yul\":1684:1714   */\n      calldatacopy\n        /* \"#utility.yul\":1748:1749   */\n      0x00\n        /* \"#utility.yul\":1739:1745   */\n      dup4\n        /* \"#utility.yul\":1734:1737   */\n      dup4\n        /* \"#utility.yul\":1730:1746   */\n      add\n        /* \"#utility.yul\":1723:1750   */\n      mstore\n        /* \"#utility.yul\":1610:1756   */\n      pop\n      pop\n      pop\n      jump\t// out\n        /* \"#utility.yul\":1762:2187   */\n    tag_45:\n        /* \"#utility.yul\":1840:1845   */\n      0x00\n        /* \"#utility.yul\":1865:1931   */\n      tag_91\n        /* \"#utility.yul\":1881:1930   */\n      tag_92\n        /* \"#utility.yul\":1923:1929   */\n      dup5\n        /* \"#utility.yul\":1881:1930   */\n      tag_43\n      jump\t// in\n    tag_92:\n        /* \"#utility.yul\":1865:1931   */\n      tag_42\n      jump\t// in\n    tag_91:\n        /* \"#utility.yul\":1856:1931   */\n      swap1\n      pop\n        /* \"#utility.yul\":1954:1960   */\n      dup3\n        /* \"#utility.yul\":1947:1952   */\n      dup2\n        /* \"#utility.yul\":1940:1961   */\n      mstore\n        /* \"#utility.yul\":1992:1996   */\n      0x20\n        /* \"#utility.yul\":1985:1990   */\n      dup2\n        /* \"#utility.yul\":1981:1997   */\n      add\n        /* \"#utility.yul\":2030:2033   */\n      dup5\n        /* \"#utility.yul\":2021:2027   */\n      dup5\n        /* \"#utility.yul\":2016:2019   */\n      dup5\n        /* \"#utility.yul\":2012:2028   */\n      add\n        /* \"#utility.yul\":2009:2034   */\n      gt\n        /* \"#utility.yul\":2006:2118   */\n      iszero\n      tag_93\n      jumpi\n        /* \"#utility.yul\":2037:2116   */\n      tag_94\n      tag_38\n      jump\t// in\n    tag_94:\n        /* \"#utility.yul\":2006:2118   */\n    tag_93:\n        /* \"#utility.yul\":2127:2181   */\n      tag_95\n        /* \"#utility.yul\":2174:2180   */\n      dup5\n        /* \"#utility.yul\":2169:2172   */\n      dup3\n        /* \"#utility.yul\":2164:2167   */\n      dup6\n        /* \"#utility.yul\":2127:2181   */\n      tag_44\n      jump\t// in\n    tag_95:\n        /* \"#utility.yul\":1846:2187   */\n      pop\n        /* \"#utility.yul\":1762:2187   */\n      swap4\n      swap3\n      pop\n      pop\n      pop\n      jump\t// out\n        /* \"#utility.yul\":2207:2547   */\n    tag_46:\n        /* \"#utility.yul\":2263:2268   */\n      0x00\n        /* \"#utility.yul\":2312:2315   */\n      dup3\n        /* \"#utility.yul\":2305:2309   */\n      0x1f\n        /* \"#utility.yul\":2297:2303   */\n      dup4\n        /* \"#utility.yul\":2293:2310   */\n      add\n        /* \"#utility.yul\":2289:2316   */\n      slt\n        /* \"#utility.yul\":2279:2401   */\n      tag_97\n      jumpi\n        /* \"#utility.yul\":2320:2399   */\n      tag_98\n      tag_37\n      jump\t// in\n    tag_98:\n        /* \"#utility.yul\":2279:2401   */\n    tag_97:\n        /* \"#utility.yul\":2437:2443   */\n      dup2\n        /* \"#utility.yul\":2424:2444   */\n      calldataload\n        /* \"#utility.yul\":2462:2541   */\n      tag_99\n        /* \"#utility.yul\":2537:2540   */\n      dup5\n        /* \"#utility.yul\":2529:2535   */\n      dup3\n        /* \"#utility.yul\":2522:2526   */\n      0x20\n        /* \"#utility.yul\":2514:2520   */\n      dup7\n        /* \"#utility.yul\":2510:2527   */\n      add\n        /* \"#utility.yul\":2462:2541   */\n      tag_45\n      jump\t// in\n    tag_99:\n        /* \"#utility.yul\":2453:2541   */\n      swap2\n      pop\n        /* \"#utility.yul\":2269:2547   */\n      pop\n        /* \"#utility.yul\":2207:2547   */\n      swap3\n      swap2\n      pop\n      pop\n      jump\t// out\n        /* \"#utility.yul\":2553:3062   */\n    tag_7:\n        /* \"#utility.yul\":2622:2628   */\n      0x00\n        /* \"#utility.yul\":2671:2673   */\n      0x20\n        /* \"#utility.yul\":2659:2668   */\n      dup3\n        /* \"#utility.yul\":2650:2657   */\n      dup5\n        /* \"#utility.yul\":2646:2669   */\n      sub\n        /* \"#utility.yul\":2642:2674   */\n      slt\n        /* \"#utility.yul\":2639:2758   */\n      iszero\n      tag_101\n      jumpi\n        /* \"#utility.yul\":2677:2756   */\n      tag_102\n      tag_35\n      jump\t// in\n    tag_102:\n        /* \"#utility.yul\":2639:2758   */\n    tag_101:\n        /* \"#utility.yul\":2825:2826   */\n      0x00\n        /* \"#utility.yul\":2814:2823   */\n      dup3\n        /* \"#utility.yul\":2810:2827   */\n      add\n        /* \"#utility.yul\":2797:2828   */\n      calldataload\n        /* \"#utility.yul\":2855:2873   */\n      0xffffffffffffffff\n        /* \"#utility.yul\":2847:2853   */\n      dup2\n        /* \"#utility.yul\":2844:2874   */\n      gt\n        /* \"#utility.yul\":2841:2958   */\n      iszero\n      tag_103\n      jumpi\n        /* \"#utility.yul\":2877:2956   */\n      tag_104\n      tag_36\n      jump\t// in\n    tag_104:\n        /* \"#utility.yul\":2841:2958   */\n    tag_103:\n        /* \"#utility.yul\":2982:3045   */\n      tag_105\n        /* \"#utility.yul\":3037:3044   */\n      dup5\n        /* \"#utility.yul\":3028:3034   */\n      dup3\n        /* \"#utility.yul\":3017:3026   */\n      dup6\n        /* \"#utility.yul\":3013:3035   */\n      add\n        /* \"#utility.yul\":2982:3045   */\n      tag_46\n      jump\t// in\n    tag_105:\n        /* \"#utility.yul\":2972:3045   */\n      swap2\n      pop\n        /* \"#utility.yul\":2768:3055   */\n      pop\n        /* \"#utility.yul\":2553:3062   */\n      swap3\n      swap2\n      pop\n      pop\n      jump\t// out\n        /* \"#utility.yul\":3068:3167   */\n    tag_47:\n        /* \"#utility.yul\":3120:3126   */\n      0x00\n        /* \"#utility.yul\":3154:3159   */\n      dup2\n        /* \"#utility.yul\":3148:3160   */\n      mload\n        /* \"#utility.yul\":3138:3160   */\n      swap1\n      pop\n        /* \"#utility.yul\":3068:3167   */\n      swap2\n      swap1\n      pop\n      jump\t// out\n        /* \"#utility.yul\":3173:3342   */\n    tag_48:\n        /* \"#utility.yul\":3257:3268   */\n      0x00\n        /* \"#utility.yul\":3291:3297   */\n      dup3\n        /* \"#utility.yul\":3286:3289   */\n      dup3\n        /* \"#utility.yul\":3279:3298   */\n      mstore\n        /* \"#utility.yul\":3331:3335   */\n      0x20\n        /* \"#utility.yul\":3326:3329   */\n      dup3\n        /* \"#utility.yul\":3322:3336   */\n      add\n        /* \"#utility.yul\":3307:3336   */\n      swap1\n      pop\n        /* \"#utility.yul\":3173:3342   */\n      swap3\n      swap2\n      pop\n      pop\n      jump\t// out\n        /* \"#utility.yul\":3348:3594   */\n    tag_49:\n        /* \"#utility.yul\":3429:3430   */\n      0x00\n        /* \"#utility.yul\":3439:3552   */\n    tag_109:\n        /* \"#utility.yul\":3453:3459   */\n      dup4\n        /* \"#utility.yul\":3450:3451   */\n      dup2\n        /* \"#utility.yul\":3447:3460   */\n      lt\n        /* \"#utility.yul\":3439:3552   */\n      iszero\n      tag_111\n      jumpi\n        /* \"#utility.yul\":3538:3539   */\n      dup1\n        /* \"#utility.yul\":3533:3536   */\n      dup3\n        /* \"#utility.yul\":3529:3540   */\n      add\n        /* \"#utility.yul\":3523:3541   */\n      mload\n        /* \"#utility.yul\":3519:3520   */\n      dup2\n        /* \"#utility.yul\":3514:3517   */\n      dup5\n        /* \"#utility.yul\":3510:3521   */\n      add\n        /* \"#utility.yul\":3503:3542   */\n      mstore\n        /* \"#utility.yul\":3475:3477   */\n      0x20\n        /* \"#utility.yul\":3472:3473   */\n      dup2\n        /* \"#utility.yul\":3468:3478   */\n      add\n        /* \"#utility.yul\":3463:3478   */\n      swap1\n      pop\n        /* \"#utility.yul\":3439:3552   */\n      jump(tag_109)\n    tag_111:\n        /* \"#utility.yul\":3586:3587   */\n      0x00\n        /* \"#utility.yul\":3577:3583   */\n      dup5\n        /* \"#utility.yul\":3572:3575   */\n      dup5\n        /* \"#utility.yul\":3568:3584   */\n      add\n        /* \"#utility.yul\":3561:3588   */\n      mstore\n        /* \"#utility.yul\":3410:3594   */\n      pop\n        /* \"#utility.yul\":3348:3594   */\n      pop\n      pop\n      pop\n      jump\t// out\n        /* \"#utility.yul\":3600:3977   */\n    tag_50:\n        /* \"#utility.yul\":3688:3691   */\n      0x00\n        /* \"#utility.yul\":3716:3755   */\n      tag_113\n        /* \"#utility.yul\":3749:3754   */\n      dup3\n        /* \"#utility.yul\":3716:3755   */\n      tag_47\n      jump\t// in\n    tag_113:\n        /* \"#utility.yul\":3771:3842   */\n      tag_114\n        /* \"#utility.yul\":3835:3841   */\n      dup2\n        /* \"#utility.yul\":3830:3833   */\n      dup6\n        /* \"#utility.yul\":3771:3842   */\n      tag_48\n      jump\t// in\n    tag_114:\n        /* \"#utility.yul\":3764:3842   */\n      swap4\n      pop\n        /* \"#utility.yul\":3851:3916   */\n      tag_115\n        /* \"#utility.yul\":3909:3915   */\n      dup2\n        /* \"#utility.yul\":3904:3907   */\n      dup6\n        /* \"#utility.yul\":3897:3901   */\n      0x20\n        /* \"#utility.yul\":3890:3895   */\n      dup7\n        /* \"#utility.yul\":3886:3902   */\n      add\n        /* \"#utility.yul\":3851:3916   */\n      tag_49\n      jump\t// in\n    tag_115:\n        /* \"#utility.yul\":3941:3970   */\n      tag_116\n        /* \"#utility.yul\":3963:3969   */\n      dup2\n        /* \"#utility.yul\":3941:3970   */\n      tag_39\n      jump\t// in\n    tag_116:\n        /* \"#utility.yul\":3936:3939   */\n      dup5\n        /* \"#utility.yul\":3932:3971   */\n      add\n        /* \"#utility.yul\":3925:3971   */\n      swap2\n      pop\n        /* \"#utility.yul\":3692:3977   */\n      pop\n        /* \"#utility.yul\":3600:3977   */\n      swap3\n      swap2\n      pop\n      pop\n      jump\t// out\n        /* \"#utility.yul\":3983:4497   */\n    tag_10:\n        /* \"#utility.yul\":4144:4148   */\n      0x00\n        /* \"#utility.yul\":4182:4184   */\n      0x40\n        /* \"#utility.yul\":4171:4180   */\n      dup3\n        /* \"#utility.yul\":4167:4185   */\n      add\n        /* \"#utility.yul\":4159:4185   */\n      swap1\n      pop\n        /* \"#utility.yul\":4231:4240   */\n      dup2\n        /* \"#utility.yul\":4225:4229   */\n      dup2\n        /* \"#utility.yul\":4221:4241   */\n      sub\n        /* \"#utility.yul\":4217:4218   */\n      0x00\n        /* \"#utility.yul\":4206:4215   */\n      dup4\n        /* \"#utility.yul\":4202:4219   */\n      add\n        /* \"#utility.yul\":4195:4242   */\n      mstore\n        /* \"#utility.yul\":4259:4337   */\n      tag_118\n        /* \"#utility.yul\":4332:4336   */\n      dup2\n        /* \"#utility.yul\":4323:4329   */\n      dup6\n        /* \"#utility.yul\":4259:4337   */\n      tag_50\n      jump\t// in\n    tag_118:\n        /* \"#utility.yul\":4251:4337   */\n      swap1\n      pop\n        /* \"#utility.yul\":4384:4393   */\n      dup2\n        /* \"#utility.yul\":4378:4382   */\n      dup2\n        /* \"#utility.yul\":4374:4394   */\n      sub\n        /* \"#utility.yul\":4369:4371   */\n      0x20\n        /* \"#utility.yul\":4358:4367   */\n      dup4\n        /* \"#utility.yul\":4354:4372   */\n      add\n        /* \"#utility.yul\":4347:4395   */\n      mstore\n        /* \"#utility.yul\":4412:4490   */\n      tag_119\n        /* \"#utility.yul\":4485:4489   */\n      dup2\n        /* \"#utility.yul\":4476:4482   */\n      dup5\n        /* \"#utility.yul\":4412:4490   */\n      tag_50\n      jump\t// in\n    tag_119:\n        /* \"#utility.yul\":4404:4490   */\n      swap1\n      pop\n        /* \"#utility.yul\":3983:4497   */\n      swap4\n      swap3\n      pop\n      pop\n      pop\n      jump\t// out\n        /* \"#utility.yul\":4503:5662   */\n    tag_13:\n        /* \"#utility.yul\":4610:4616   */\n      0x00\n        /* \"#utility.yul\":4618:4624   */\n      dup1\n        /* \"#utility.yul\":4626:4632   */\n      0x00\n        /* \"#utility.yul\":4675:4677   */\n      0x60\n        /* \"#utility.yul\":4663:4672   */\n      dup5\n        /* \"#utility.yul\":4654:4661   */\n      dup7\n        /* \"#utility.yul\":4650:4673   */\n      sub\n        /* \"#utility.yul\":4646:4678   */\n      slt\n        /* \"#utility.yul\":4643:4762   */\n      iszero\n      tag_121\n      jumpi\n        /* \"#utility.yul\":4681:4760   */\n      tag_122\n      tag_35\n      jump\t// in\n    tag_122:\n        /* \"#utility.yul\":4643:4762   */\n    tag_121:\n        /* \"#utility.yul\":4829:4830   */\n      0x00\n        /* \"#utility.yul\":4818:4827   */\n      dup5\n        /* \"#utility.yul\":4814:4831   */\n      add\n        /* \"#utility.yul\":4801:4832   */\n      calldataload\n        /* \"#utility.yul\":4859:4877   */\n      0xffffffffffffffff\n        /* \"#utility.yul\":4851:4857   */\n      dup2\n        /* \"#utility.yul\":4848:4878   */\n      gt\n        /* \"#utility.yul\":4845:4962   */\n      iszero\n      tag_123\n      jumpi\n        /* \"#utility.yul\":4881:4960   */\n      tag_124\n      tag_36\n      jump\t// in\n    tag_124:\n        /* \"#utility.yul\":4845:4962   */\n    tag_123:\n        /* \"#utility.yul\":4986:5049   */\n      tag_125\n        /* \"#utility.yul\":5041:5048   */\n      dup7\n        /* \"#utility.yul\":5032:5038   */\n      dup3\n        /* \"#utility.yul\":5021:5030   */\n      dup8\n        /* \"#utility.yul\":5017:5039   */\n      add\n        /* \"#utility.yul\":4986:5049   */\n      tag_46\n      jump\t// in\n    tag_125:\n        /* \"#utility.yul\":4976:5049   */\n      swap4\n      pop\n        /* \"#utility.yul\":4772:5059   */\n      pop\n        /* \"#utility.yul\":5126:5128   */\n      0x20\n        /* \"#utility.yul\":5115:5124   */\n      dup5\n        /* \"#utility.yul\":5111:5129   */\n      add\n        /* \"#utility.yul\":5098:5130   */\n      calldataload\n        /* \"#utility.yul\":5157:5175   */\n      0xffffffffffffffff\n        /* \"#utility.yul\":5149:5155   */\n      dup2\n        /* \"#utility.yul\":5146:5176   */\n      gt\n        /* \"#utility.yul\":5143:5260   */\n      iszero\n      tag_126\n      jumpi\n        /* \"#utility.yul\":5179:5258   */\n      tag_127\n      tag_36\n      jump\t// in\n    tag_127:\n        /* \"#utility.yul\":5143:5260   */\n    tag_126:\n        /* \"#utility.yul\":5284:5347   */\n      tag_128\n        /* \"#utility.yul\":5339:5346   */\n      dup7\n        /* \"#utility.yul\":5330:5336   */\n      dup3\n        /* \"#utility.yul\":5319:5328   */\n      dup8\n        /* \"#utility.yul\":5315:5337   */\n      add\n        /* \"#utility.yul\":5284:5347   */\n      tag_46\n      jump\t// in\n    tag_128:\n        /* \"#utility.yul\":5274:5347   */\n      swap3\n      pop\n        /* \"#utility.yul\":5069:5357   */\n      pop\n        /* \"#utility.yul\":5424:5426   */\n      0x40\n        /* \"#utility.yul\":5413:5422   */\n      dup5\n        /* \"#utility.yul\":5409:5427   */\n      add\n        /* \"#utility.yul\":5396:5428   */\n      calldataload\n        /* \"#utility.yul\":5455:5473   */\n      0xffffffffffffffff\n        /* \"#utility.yul\":5447:5453   */\n      dup2\n        /* \"#utility.yul\":5444:5474   */\n      gt\n        /* \"#utility.yul\":5441:5558   */\n      iszero\n      tag_129\n      jumpi\n        /* \"#utility.yul\":5477:5556   */\n      tag_130\n      tag_36\n      jump\t// in\n    tag_130:\n        /* \"#utility.yul\":5441:5558   */\n    tag_129:\n        /* \"#utility.yul\":5582:5645   */\n      tag_131\n        /* \"#utility.yul\":5637:5644   */\n      dup7\n        /* \"#utility.yul\":5628:5634   */\n      dup3\n        /* \"#utility.yul\":5617:5626   */\n      dup8\n        /* \"#utility.yul\":5613:5635   */\n      add\n        /* \"#utility.yul\":5582:5645   */\n      tag_46\n      jump\t// in\n    tag_131:\n        /* \"#utility.yul\":5572:5645   */\n      swap2\n      pop\n        /* \"#utility.yul\":5367:5655   */\n      pop\n        /* \"#utility.yul\":4503:5662   */\n      swap3\n      pop\n      swap3\n      pop\n      swap3\n      jump\t// out\n        /* \"#utility.yul\":5668:5816   */\n    tag_51:\n        /* \"#utility.yul\":5770:5781   */\n      0x00\n        /* \"#utility.yul\":5807:5810   */\n      dup2\n        /* \"#utility.yul\":5792:5810   */\n      swap1\n      pop\n        /* \"#utility.yul\":5668:5816   */\n      swap3\n      swap2\n      pop\n      pop\n      jump\t// out\n        /* \"#utility.yul\":5822:6212   */\n    tag_52:\n        /* \"#utility.yul\":5928:5931   */\n      0x00\n        /* \"#utility.yul\":5956:5995   */\n      tag_134\n        /* \"#utility.yul\":5989:5994   */\n      dup3\n        /* \"#utility.yul\":5956:5995   */\n      tag_47\n      jump\t// in\n    tag_134:\n        /* \"#utility.yul\":6011:6100   */\n      tag_135\n        /* \"#utility.yul\":6093:6099   */\n      dup2\n        /* \"#utility.yul\":6088:6091   */\n      dup6\n        /* \"#utility.yul\":6011:6100   */\n      tag_51\n      jump\t// in\n    tag_135:\n        /* \"#utility.yul\":6004:6100   */\n      swap4\n      pop\n        /* \"#utility.yul\":6109:6174   */\n      tag_136\n        /* \"#utility.yul\":6167:6173   */\n      dup2\n        /* \"#utility.yul\":6162:6165   */\n      dup6\n        /* \"#utility.yul\":6155:6159   */\n      0x20\n        /* \"#utility.yul\":6148:6153   */\n      dup7\n        /* \"#utility.yul\":6144:6160   */\n      add\n        /* \"#utility.yul\":6109:6174   */\n      tag_49\n      jump\t// in\n    tag_136:\n        /* \"#utility.yul\":6199:6205   */\n      dup1\n        /* \"#utility.yul\":6194:6197   */\n      dup5\n        /* \"#utility.yul\":6190:6206   */\n      add\n        /* \"#utility.yul\":6183:6206   */\n      swap2\n      pop\n        /* \"#utility.yul\":5932:6212   */\n      pop\n        /* \"#utility.yul\":5822:6212   */\n      swap3\n      swap2\n      pop\n      pop\n      jump\t// out\n        /* \"#utility.yul\":6218:6493   */\n    tag_17:\n        /* \"#utility.yul\":6350:6353   */\n      0x00\n        /* \"#utility.yul\":6372:6467   */\n      tag_138\n        /* \"#utility.yul\":6463:6466   */\n      dup3\n        /* \"#utility.yul\":6454:6460   */\n      dup5\n        /* \"#utility.yul\":6372:6467   */\n      tag_52\n      jump\t// in\n    tag_138:\n        /* \"#utility.yul\":6365:6467   */\n      swap2\n      pop\n        /* \"#utility.yul\":6484:6487   */\n      dup2\n        /* \"#utility.yul\":6477:6487   */\n      swap1\n      pop\n        /* \"#utility.yul\":6218:6493   */\n      swap3\n      swap2\n      pop\n      pop\n      jump\t// out\n        /* \"#utility.yul\":6499:6679   */\n    tag_53:\n        /* \"#utility.yul\":6547:6624   */\n      0x4e487b7100000000000000000000000000000000000000000000000000000000\n        /* \"#utility.yul\":6544:6545   */\n      0x00\n        /* \"#utility.yul\":6537:6625   */\n      mstore\n        /* \"#utility.yul\":6644:6648   */\n      0x22\n        /* \"#utility.yul\":6641:6642   */\n      0x04\n        /* \"#utility.yul\":6634:6649   */\n      mstore\n        /* \"#utility.yul\":6668:6672   */\n      0x24\n        /* \"#utility.yul\":6665:6666   */\n      0x00\n        /* \"#utility.yul\":6658:6673   */\n      revert\n        /* \"#utility.yul\":6685:7005   */\n    tag_19:\n        /* \"#utility.yul\":6729:6735   */\n      0x00\n        /* \"#utility.yul\":6766:6767   */\n      0x02\n        /* \"#utility.yul\":6760:6764   */\n      dup3\n        /* \"#utility.yul\":6756:6768   */\n      div\n        /* \"#utility.yul\":6746:6768   */\n      swap1\n      pop\n        /* \"#utility.yul\":6813:6814   */\n      0x01\n        /* \"#utility.yul\":6807:6811   */\n      dup3\n        /* \"#utility.yul\":6803:6815   */\n      and\n        /* \"#utility.yul\":6834:6852   */\n      dup1\n        /* \"#utility.yul\":6824:6905   */\n      tag_141\n      jumpi\n        /* \"#utility.yul\":6890:6894   */\n      0x7f\n        /* \"#utility.yul\":6882:6888   */\n      dup3\n        /* \"#utility.yul\":6878:6895   */\n      and\n        /* \"#utility.yul\":6868:6895   */\n      swap2\n      pop\n        /* \"#utility.yul\":6824:6905   */\n    tag_141:\n        /* \"#utility.yul\":6952:6954   */\n      0x20\n        /* \"#utility.yul\":6944:6950   */\n      dup3\n        /* \"#utility.yul\":6941:6955   */\n      lt\n        /* \"#utility.yul\":6921:6939   */\n      dup2\n        /* \"#utility.yul\":6918:6956   */\n      sub\n        /* \"#utility.yul\":6915:6999   */\n      tag_142\n      jumpi\n        /* \"#utility.yul\":6971:6989   */\n      tag_143\n      tag_53\n      jump\t// in\n    tag_143:\n        /* \"#utility.yul\":6915:6999   */\n    tag_142:\n        /* \"#utility.yul\":6736:7005   */\n      pop\n        /* \"#utility.yul\":6685:7005   */\n      swap2\n      swap1\n      pop\n      jump\t// out\n        /* \"#utility.yul\":7011:7152   */\n    tag_54:\n        /* \"#utility.yul\":7060:7064   */\n      0x00\n        /* \"#utility.yul\":7083:7086   */\n      dup2\n        /* \"#utility.yul\":7075:7086   */\n      swap1\n      pop\n        /* \"#utility.yul\":7106:7109   */\n      dup2\n        /* \"#utility.yul\":7103:7104   */\n      0x00\n        /* \"#utility.yul\":7096:7110   */\n      mstore\n        /* \"#utility.yul\":7140:7144   */\n      0x20\n        /* \"#utility.yul\":7137:7138   */\n      0x00\n        /* \"#utility.yul\":7127:7145   */\n      keccak256\n        /* \"#utility.yul\":7119:7145   */\n      swap1\n      pop\n        /* \"#utility.yul\":7011:7152   */\n      swap2\n      swap1\n      pop\n      jump\t// out\n        /* \"#utility.yul\":7158:7251   */\n    tag_55:\n        /* \"#utility.yul\":7195:7201   */\n      0x00\n        /* \"#utility.yul\":7242:7244   */\n      0x20\n        /* \"#utility.yul\":7237:7239   */\n      0x1f\n        /* \"#utility.yul\":7230:7235   */\n      dup4\n        /* \"#utility.yul\":7226:7240   */\n      add\n        /* \"#utility.yul\":7222:7245   */\n      div\n        /* \"#utility.yul\":7212:7245   */\n      swap1\n      pop\n        /* \"#utility.yul\":7158:7251   */\n      swap2\n      swap1\n      pop\n      jump\t// out\n        /* \"#utility.yul\":7257:7364   */\n    tag_56:\n        /* \"#utility.yul\":7301:7309   */\n      0x00\n        /* \"#utility.yul\":7351:7356   */\n      dup3\n        /* \"#utility.yul\":7345:7349   */\n      dup3\n        /* \"#utility.yul\":7341:7357   */\n      shl\n        /* \"#utility.yul\":7320:7357   */\n      swap1\n      pop\n        /* \"#utility.yul\":7257:7364   */\n      swap3\n      swap2\n      pop\n      pop\n      jump\t// out\n        /* \"#utility.yul\":7370:7763   */\n    tag_57:\n        /* \"#utility.yul\":7439:7445   */\n      0x00\n        /* \"#utility.yul\":7489:7490   */\n      0x08\n        /* \"#utility.yul\":7477:7487   */\n      dup4\n        /* \"#utility.yul\":7473:7491   */\n      mul\n        /* \"#utility.yul\":7512:7609   */\n      tag_148\n        /* \"#utility.yul\":7542:7608   */\n      0xffffffffffffffffffffffffffffffffffffffffffffffffffffffffffffffff\n        /* \"#utility.yul\":7531:7540   */\n      dup3\n        /* \"#utility.yul\":7512:7609   */\n      tag_56\n      jump\t// in\n    tag_148:\n        /* \"#utility.yul\":7630:7669   */\n      tag_149\n        /* \"#utility.yul\":7660:7668   */\n      dup7\n        /* \"#utility.yul\":7649:7658   */\n      dup4\n        /* \"#utility.yul\":7630:7669   */\n      tag_56\n      jump\t// in\n    tag_149:\n        /* \"#utility.yul\":7618:7669   */\n      swap6\n      pop\n        /* \"#utility.yul\":7702:7706   */\n      dup1\n        /* \"#utility.yul\":7698:7707   */\n      not\n        /* \"#utility.yul\":7691:7696   */\n      dup5\n        /* \"#utility.yul\":7687:7708   */\n      and\n        /* \"#utility.yul\":7678:7708   */\n      swap4\n      pop\n        /* \"#utility.yul\":7751:7755   */\n      dup1\n        /* \"#utility.yul\":7741:7749   */\n      dup7\n        /* \"#utility.yul\":7737:7756   */\n      and\n        /* \"#utility.yul\":7730:7735   */\n      dup5\n        /* \"#utility.yul\":7727:7757   */\n      or\n        /* \"#utility.yul\":7717:7757   */\n      swap3\n      pop\n        /* \"#utility.yul\":7446:7763   */\n      pop\n      pop\n        /* \"#utility.yul\":7370:7763   */\n      swap4\n      swap3\n      pop\n      pop\n      pop\n      jump\t// out\n        /* \"#utility.yul\":7769:7846   */\n    tag_58:\n        /* \"#utility.yul\":7806:7813   */\n      0x00\n        /* \"#utility.yul\":7835:7840   */\n      dup2\n        /* \"#utility.yul\":7824:7840   */\n      swap1\n      pop\n        /* \"#utility.yul\":7769:7846   */\n      swap2\n      swap1\n      pop\n      jump\t// out\n        /* \"#utility.yul\":7852:7912   */\n    tag_59:\n        /* \"#utility.yul\":7880:7883   */\n      0x00\n        /* \"#utility.yul\":7901:7906   */\n      dup2\n        /* \"#utility.yul\":7894:7906   */\n      swap1\n      pop\n        /* \"#utility.yul\":7852:7912   */\n      swap2\n      swap1\n      pop\n      jump\t// out\n        /* \"#utility.yul\":7918:8060   */\n    tag_60:\n        /* \"#utility.yul\":7968:7977   */\n      0x00\n        /* \"#utility.yul\":8001:8054   */\n      tag_153\n        /* \"#utility.yul\":8019:8053   */\n      tag_154\n        /* \"#utility.yul\":8028:8052   */\n      tag_155\n        /* \"#utility.yul\":8046:8051   */\n      dup5\n        /* \"#utility.yul\":8028:8052   */\n      tag_58\n      jump\t// in\n    tag_155:\n        /* \"#utility.yul\":8019:8053   */\n      tag_59\n      jump\t// in\n    tag_154:\n        /* \"#utility.yul\":8001:8054   */\n      tag_58\n      jump\t// in\n    tag_153:\n        /* \"#utility.yul\":7988:8054   */\n      swap1\n      pop\n        /* \"#utility.yul\":7918:8060   */\n      swap2\n      swap1\n      pop\n      jump\t// out\n        /* \"#utility.yul\":8066:8141   */\n    tag_61:\n        /* \"#utility.yul\":8109:8112   */\n      0x00\n        /* \"#utility.yul\":8130:8135   */\n      dup2\n        /* \"#utility.yul\":8123:8135   */\n      swap1\n      pop\n        /* \"#utility.yul\":8066:8141   */\n      swap2\n      swap1\n      pop\n      jump\t// out\n        /* \"#utility.yul\":8147:8416   */\n    tag_62:\n        /* \"#utility.yul\":8257:8296   */\n      tag_158\n        /* \"#utility.yul\":8288:8295   */\n      dup4\n        /* \"#utility.yul\":8257:8296   */\n      tag_60\n      jump\t// in\n    tag_158:\n        /* \"#utility.yul\":8318:8409   */\n      tag_159\n        /* \"#utility.yul\":8367:8408   */\n      tag_160\n        /* \"#utility.yul\":8391:8407   */\n      dup3\n        /* \"#utility.yul\":8367:8408   */\n      tag_61\n      jump\t// in\n    tag_160:\n        /* \"#utility.yul\":8359:8365   */\n      dup5\n        /* \"#utility.yul\":8352:8356   */\n      dup5\n        /* \"#utility.yul\":8346:8357   */\n      sload\n        /* \"#utility.yul\":8318:8409   */\n      tag_57\n      jump\t// in\n    tag_159:\n        /* \"#utility.yul\":8312:8316   */\n      dup3\n        /* \"#utility.yul\":8305:8410   */\n      sstore\n        /* \"#utility.yul\":8223:8416   */\n      pop\n        /* \"#utility.yul\":8147:8416   */\n      pop\n      pop\n      pop\n      jump\t// out\n        /* \"#utility.yul\":8422:8495   */\n    tag_63:\n        /* \"#utility.yul\":8467:8470   */\n      0x00\n        /* \"#utility.yul\":8422:8495   */\n      swap1\n      jump\t// out\n        /* \"#utility.yul\":8501:8690   */\n    tag_64:\n        /* \"#utility.yul\":8578:8610   */\n      tag_163\n      tag_63\n      jump\t// in\n    tag_163:\n        /* \"#utility.yul\":8619:8684   */\n      tag_164\n        /* \"#utility.yul\":8677:8683   */\n      dup2\n        /* \"#utility.yul\":8669:8675   */\n      dup5\n        /* \"#utility.yul\":8663:8667   */\n      dup5\n        /* \"#utility.yul\":8619:8684   */\n      tag_62\n      jump\t// in\n    tag_164:\n        /* \"#utility.yul\":8554:8690   */\n      pop\n        /* \"#utility.yul\":8501:8690   */\n      pop\n      pop\n      jump\t// out\n        /* \"#utility.yul\":8696:8882   */\n    tag_65:\n        /* \"#utility.yul\":8756:8876   */\n    tag_166:\n        /* \"#utility.yul\":8773:8776   */\n      dup2\n        /* \"#utility.yul\":8766:8771   */\n      dup2\n        /* \"#utility.yul\":8763:8777   */\n      lt\n        /* \"#utility.yul\":8756:8876   */\n      iszero\n      tag_168\n      jumpi\n        /* \"#utility.yul\":8827:8866   */\n      tag_169\n        /* \"#utility.yul\":8864:8865   */\n      0x00\n        /* \"#utility.yul\":8857:8862   */\n      dup3\n        /* \"#utility.yul\":8827:8866   */\n      tag_64\n      jump\t// in\n    tag_169:\n        /* \"#utility.yul\":8800:8801   */\n      0x01\n        /* \"#utility.yul\":8793:8798   */\n      dup2\n        /* \"#utility.yul\":8789:8802   */\n      add\n        /* \"#utility.yul\":8780:8802   */\n      swap1\n      pop\n        /* \"#utility.yul\":8756:8876   */\n      jump(tag_166)\n    tag_168:\n        /* \"#utility.yul\":8696:8882   */\n      pop\n      pop\n      jump\t// out\n        /* \"#utility.yul\":8888:9431   */\n    tag_66:\n        /* \"#utility.yul\":8989:8991   */\n      0x1f\n        /* \"#utility.yul\":8984:8987   */\n      dup3\n        /* \"#utility.yul\":8981:8992   */\n      gt\n        /* \"#utility.yul\":8978:9424   */\n      iszero\n      tag_171\n      jumpi\n        /* \"#utility.yul\":9023:9061   */\n      tag_172\n        /* \"#utility.yul\":9055:9060   */\n      dup2\n        /* \"#utility.yul\":9023:9061   */\n      tag_54\n      jump\t// in\n    tag_172:\n        /* \"#utility.yul\":9107:9136   */\n      tag_173\n        /* \"#utility.yul\":9125:9135   */\n      dup5\n        /* \"#utility.yul\":9107:9136   */\n      tag_55\n      jump\t// in\n    tag_173:\n        /* \"#utility.yul\":9097:9105   */\n      dup2\n        /* \"#utility.yul\":9093:9137   */\n      add\n        /* \"#utility.yul\":9290:9292   */\n      0x20\n        /* \"#utility.yul\":9278:9288   */\n      dup6\n        /* \"#utility.yul\":9275:9293   */\n      lt\n        /* \"#utility.yul\":9272:9321   */\n      iszero\n      tag_174\n      jumpi\n        /* \"#utility.yul\":9311:9319   */\n      dup2\n        /* \"#utility.yul\":9296:9319   */\n      swap1\n      pop\n        /* \"#utility.yul\":9272:9321   */\n    tag_174:\n        /* \"#utility.yul\":9334:9414   */\n      tag_175\n        /* \"#utility.yul\":9390:9412   */\n      tag_176\n        /* \"#utility.yul\":9408:9411   */\n      dup6\n        /* \"#utility.yul\":9390:9412   */\n      tag_55\n      jump\t// in\n    tag_176:\n        /* \"#utility.yul\":9380:9388   */\n      dup4\n        /* \"#utility.yul\":9376:9413   */\n      add\n        /* \"#utility.yul\":9363:9374   */\n      dup3\n        /* \"#utility.yul\":9334:9414   */\n      tag_65\n      jump\t// in\n    tag_175:\n        /* \"#utility.yul\":8993:9424   */\n      pop\n      pop\n        /* \"#utility.yul\":8978:9424   */\n    tag_171:\n        /* \"#utility.yul\":8888:9431   */\n      pop\n      pop\n      pop\n      jump\t// out\n        /* \"#utility.yul\":9437:9554   */\n    tag_67:\n        /* \"#utility.yul\":9491:9499   */\n      0x00\n        /* \"#utility.yul\":9541:9546   */\n      dup3\n        /* \"#utility.yul\":9535:9539   */\n      dup3\n        /* \"#utility.yul\":9531:9547   */\n      shr\n        /* \"#utility.yul\":9510:9547   */\n      swap1\n      pop\n        /* \"#utility.yul\":9437:9554   */\n      swap3\n      swap2\n      pop\n      pop\n      jump\t// out\n        /* \"#utility.yul\":9560:9729   */\n    tag_68:\n        /* \"#utility.yul\":9604:9610   */\n      0x00\n        /* \"#utility.yul\":9637:9688   */\n      tag_179\n        /* \"#utility.yul\":9685:9686   */\n      0x00\n        /* \"#utility.yul\":9681:9687   */\n      not\n        /* \"#utility.yul\":9673:9678   */\n      dup5\n        /* \"#utility.yul\":9670:9671   */\n      0x08\n        /* \"#utility.yul\":9666:9679   */\n      mul\n        /* \"#utility.yul\":9637:9688   */\n      tag_67\n      jump\t// in\n    tag_179:\n        /* \"#utility.yul\":9633:9689   */\n      not\n        /* \"#utility.yul\":9718:9722   */\n      dup1\n        /* \"#utility.yul\":9712:9716   */\n      dup4\n        /* \"#utility.yul\":9708:9723   */\n      and\n        /* \"#utility.yul\":9698:9723   */\n      swap2\n      pop\n        /* \"#utility.yul\":9611:9729   */\n      pop\n        /* \"#utility.yul\":9560:9729   */\n      swap3\n      swap2\n      pop\n      pop\n      jump\t// out\n        /* \"#utility.yul\":9734:10029   */\n    tag_69:\n        /* \"#utility.yul\":9810:9814   */\n      0x00\n        /* \"#utility.yul\":9956:9985   */\n      tag_181\n        /* \"#utility.yul\":9981:9984   */\n      dup4\n        /* \"#utility.yul\":9975:9979   */\n      dup4\n        /* \"#utility.yul\":9956:9985   */\n      tag_68\n      jump\t// in\n    tag_181:\n        /* \"#utility.yul\":9948:9985   */\n      swap2\n      pop\n        /* \"#utility.yul\":10018:10021   */\n      dup3\n        /* \"#utility.yul\":10015:10016   */\n      0x02\n        /* \"#utility.yul\":10011:10022   */\n      mul\n        /* \"#utility.yul\":10005:10009   */\n      dup3\n        /* \"#utility.yul\":10002:10023   */\n      or\n        /* \"#utility.yul\":9994:10023   */\n      swap1\n      pop\n        /* \"#utility.yul\":9734:10029   */\n      swap3\n      swap2\n      pop\n      pop\n      jump\t// out\n        /* \"#utility.yul\":10034:11429   */\n    tag_32:\n        /* \"#utility.yul\":10151:10188   */\n      tag_183\n        /* \"#utility.yul\":10184:10187   */\n      dup3\n        /* \"#utility.yul\":10151:10188   */\n      tag_47\n      jump\t// in\n    tag_183:\n        /* \"#utility.yul\":10253:10271   */\n      0xffffffffffffffff\n        /* \"#utility.yul\":10245:10251   */\n      dup2\n        /* \"#utility.yul\":10242:10272   */\n      gt\n        /* \"#utility.yul\":10239:10295   */\n      iszero\n      tag_184\n      jumpi\n        /* \"#utility.yul\":10275:10293   */\n      tag_185\n      tag_40\n      jump\t// in\n    tag_185:\n        /* \"#utility.yul\":10239:10295   */\n    tag_184:\n        /* \"#utility.yul\":10319:10357   */\n      tag_186\n        /* \"#utility.yul\":10351:10355   */\n      dup3\n        /* \"#utility.yul\":10345:10356   */\n      sload\n        /* \"#utility.yul\":10319:10357   */\n      tag_19\n      jump\t// in\n    tag_186:\n        /* \"#utility.yul\":10404:10471   */\n      tag_187\n        /* \"#utility.yul\":10464:10470   */\n      dup3\n        /* \"#utility.yul\":10456:10462   */\n      dup3\n        /* \"#utility.yul\":10450:10454   */\n      dup6\n        /* \"#utility.yul\":10404:10471   */\n      tag_66\n      jump\t// in\n    tag_187:\n        /* \"#utility.yul\":10498:10499   */\n      0x00\n        /* \"#utility.yul\":10522:10526   */\n      0x20\n        /* \"#utility.yul\":10509:10526   */\n      swap1\n      pop\n        /* \"#utility.yul\":10554:10556   */\n      0x1f\n        /* \"#utility.yul\":10546:10552   */\n      dup4\n        /* \"#utility.yul\":10543:10557   */\n      gt\n        /* \"#utility.yul\":10571:10572   */\n      0x01\n        /* \"#utility.yul\":10566:11184   */\n      dup2\n      eq\n      tag_189\n      jumpi\n        /* \"#utility.yul\":11228:11229   */\n      0x00\n        /* \"#utility.yul\":11245:11251   */\n      dup5\n        /* \"#utility.yul\":11242:11319   */\n      iszero\n      tag_190\n      jumpi\n        /* \"#utility.yul\":11294:11303   */\n      dup3\n        /* \"#utility.yul\":11289:11292   */\n      dup8\n        /* \"#utility.yul\":11285:11304   */\n      add\n        /* \"#utility.yul\":11279:11305   */\n      mload\n        /* \"#utility.yul\":11270:11305   */\n      swap1\n      pop\n        /* \"#utility.yul\":11242:11319   */\n    tag_190:\n        /* \"#utility.yul\":11345:11412   */\n      tag_191\n        /* \"#utility.yul\":11405:11411   */\n      dup6\n        /* \"#utility.yul\":11398:11403   */\n      dup3\n        /* \"#utility.yul\":11345:11412   */\n      tag_69\n      jump\t// in\n    tag_191:\n        /* \"#utility.yul\":11339:11343   */\n      dup7\n        /* \"#utility.yul\":11332:11413   */\n      sstore\n        /* \"#utility.yul\":11201:11423   */\n      pop\n        /* \"#utility.yul\":10536:11423   */\n      jump(tag_188)\n        /* \"#utility.yul\":10566:11184   */\n    tag_189:\n        /* \"#utility.yul\":10618:10622   */\n      0x1f\n        /* \"#utility.yul\":10614:10623   */\n      not\n        /* \"#utility.yul\":10606:10612   */\n      dup5\n        /* \"#utility.yul\":10602:10624   */\n      and\n        /* \"#utility.yul\":10652:10689   */\n      tag_192\n        /* \"#utility.yul\":10684:10688   */\n      dup7\n        /* \"#utility.yul\":10652:10689   */\n      tag_54\n      jump\t// in\n    tag_192:\n        /* \"#utility.yul\":10711:10712   */\n      0x00\n        /* \"#utility.yul\":10725:10933   */\n    tag_193:\n        /* \"#utility.yul\":10739:10746   */\n      dup3\n        /* \"#utility.yul\":10736:10737   */\n      dup2\n        /* \"#utility.yul\":10733:10747   */\n      lt\n        /* \"#utility.yul\":10725:10933   */\n      iszero\n      tag_195\n      jumpi\n        /* \"#utility.yul\":10818:10827   */\n      dup5\n        /* \"#utility.yul\":10813:10816   */\n      dup10\n        /* \"#utility.yul\":10809:10828   */\n      add\n        /* \"#utility.yul\":10803:10829   */\n      mload\n        /* \"#utility.yul\":10795:10801   */\n      dup3\n        /* \"#utility.yul\":10788:10830   */\n      sstore\n        /* \"#utility.yul\":10869:10870   */\n      0x01\n        /* \"#utility.yul\":10861:10867   */\n      dup3\n        /* \"#utility.yul\":10857:10871   */\n      add\n        /* \"#utility.yul\":10847:10871   */\n      swap2\n      pop\n        /* \"#utility.yul\":10916:10918   */\n      0x20\n        /* \"#utility.yul\":10905:10914   */\n      dup6\n        /* \"#utility.yul\":10901:10919   */\n      add\n        /* \"#utility.yul\":10888:10919   */\n      swap5\n      pop\n        /* \"#utility.yul\":10762:10766   */\n      0x20\n        /* \"#utility.yul\":10759:10760   */\n      dup2\n        /* \"#utility.yul\":10755:10767   */\n      add\n        /* \"#utility.yul\":10750:10767   */\n      swap1\n      pop\n        /* \"#utility.yul\":10725:10933   */\n      jump(tag_193)\n    tag_195:\n        /* \"#utility.yul\":10961:10967   */\n      dup7\n        /* \"#utility.yul\":10952:10959   */\n      dup4\n        /* \"#utility.yul\":10949:10968   */\n      lt\n        /* \"#utility.yul\":10946:11125   */\n      iszero\n      tag_196\n      jumpi\n        /* \"#utility.yul\":11019:11028   */\n      dup5\n        /* \"#utility.yul\":11014:11017   */\n      dup10\n        /* \"#utility.yul\":11010:11029   */\n      add\n        /* \"#utility.yul\":11004:11030   */\n      mload\n        /* \"#utility.yul\":11062:11110   */\n      tag_197\n        /* \"#utility.yul\":11104:11108   */\n      0x1f\n        /* \"#utility.yul\":11096:11102   */\n      dup10\n        /* \"#utility.yul\":11092:11109   */\n      and\n        /* \"#utility.yul\":11081:11090   */\n      dup3\n        /* \"#utility.yul\":11062:11110   */\n      tag_68\n      jump\t// in\n    tag_197:\n        /* \"#utility.yul\":11054:11060   */\n      dup4\n        /* \"#utility.yul\":11047:11111   */\n      sstore\n        /* \"#utility.yul\":10969:11125   */\n      pop\n        /* \"#utility.yul\":10946:11125   */\n    tag_196:\n        /* \"#utility.yul\":11171:11172   */\n      0x01\n        /* \"#utility.yul\":11167:11168   */\n      0x02\n        /* \"#utility.yul\":11159:11165   */\n      dup9\n        /* \"#utility.yul\":11155:11169   */\n      mul\n        /* \"#utility.yul\":11151:11173   */\n      add\n        /* \"#utility.yul\":11145:11149   */\n      dup9\n        /* \"#utility.yul\":11138:11174   */\n      sstore\n        /* \"#utility.yul\":10573:11184   */\n      pop\n      pop\n      pop\n        /* \"#utility.yul\":10536:11423   */\n    tag_188:\n      pop\n        /* \"#utility.yul\":10126:11429   */\n      pop\n      pop\n      pop\n        /* \"#utility.yul\":10034:11429   */\n      pop\n      pop\n      jump\t// out\n\n    auxdata: 0xa2646970667358221220700e174ddc5599508a19f064b2157ae616274e3d5dd6c950561067503ba884ab64736f6c63430008130033\n}\n",
				"bytecode": {
					"linkReferences": {},
					"object": "608060405234801561001057600080fd5b506108c7806100206000396000f3fe608060405234801561001057600080fd5b50600436106100365760003560e01c80637ccb6a641461003b578063f2d893e41461006c575b600080fd5b610055600480360381019061005091906103b0565b610088565b604051610063929190610478565b60405180910390f35b610086600480360381019061008191906104af565b6101ef565b005b6060806000808460405161009c9190610592565b90815260200160405180910390206040518060400160405290816000820180546100c5906105d8565b80601f01602080910402602001604051908101604052809291908181526020018280546100f1906105d8565b801561013e5780601f106101135761010080835404028352916020019161013e565b820191906000526020600020905b81548152906001019060200180831161012157829003601f168201915b50505050508152602001600182018054610157906105d8565b80601f0160208091040260200160405190810160405280929190818152602001828054610183906105d8565b80156101d05780601f106101a5576101008083540402835291602001916101d0565b820191906000526020600020905b8154815290600101906020018083116101b357829003601f168201915b5050505050815250509050806000015181602001519250925050915091565b6040518060400160405280838152602001828152506000846040516102149190610592565b9081526020016040518091039020600082015181600001908161023791906107bf565b50602082015181600101908161024d91906107bf565b50905050505050565b6000604051905090565b600080fd5b600080fd5b600080fd5b600080fd5b6000601f19601f8301169050919050565b7f4e487b7100000000000000000000000000000000000000000000000000000000600052604160045260246000fd5b6102bd82610274565b810181811067ffffffffffffffff821117156102dc576102db610285565b5b80604052505050565b60006102ef610256565b90506102fb82826102b4565b919050565b600067ffffffffffffffff82111561031b5761031a610285565b5b61032482610274565b9050602081019050919050565b82818337600083830152505050565b600061035361034e84610300565b6102e5565b90508281526020810184848401111561036f5761036e61026f565b5b61037a848285610331565b509392505050565b600082601f8301126103975761039661026a565b5b81356103a7848260208601610340565b91505092915050565b6000602082840312156103c6576103c5610260565b5b600082013567ffffffffffffffff8111156103e4576103e3610265565b5b6103f084828501610382565b91505092915050565b600081519050919050565b600082825260208201905092915050565b60005b83811015610433578082015181840152602081019050610418565b60008484015250505050565b600061044a826103f9565b6104548185610404565b9350610464818560208601610415565b61046d81610274565b840191505092915050565b60006040820190508181036000830152610492818561043f565b905081810360208301526104a6818461043f565b90509392505050565b6000806000606084860312156104c8576104c7610260565b5b600084013567ffffffffffffffff8111156104e6576104e5610265565b5b6104f286828701610382565b935050602084013567ffffffffffffffff81111561051357610512610265565b5b61051f86828701610382565b925050604084013567ffffffffffffffff8111156105405761053f610265565b5b61054c86828701610382565b9150509250925092565b600081905092915050565b600061056c826103f9565b6105768185610556565b9350610586818560208601610415565b80840191505092915050565b600061059e8284610561565b915081905092915050565b7f4e487b7100000000000000000000000000000000000000000000000000000000600052602260045260246000fd5b600060028204905060018216806105f057607f821691505b602082108103610603576106026105a9565b5b50919050565b60008190508160005260206000209050919050565b60006020601f8301049050919050565b600082821b905092915050565b60006008830261066b7fffffffffffffffffffffffffffffffffffffffffffffffffffffffffffffffff8261062e565b610675868361062e565b95508019841693508086168417925050509392505050565b6000819050919050565b6000819050919050565b60006106bc6106b76106b28461068d565b610697565b61068d565b9050919050565b6000819050919050565b6106d6836106a1565b6106ea6106e2826106c3565b84845461063b565b825550505050565b600090565b6106ff6106f2565b61070a8184846106cd565b505050565b5b8181101561072e576107236000826106f7565b600181019050610710565b5050565b601f8211156107735761074481610609565b61074d8461061e565b8101602085101561075c578190505b6107706107688561061e565b83018261070f565b50505b505050565b600082821c905092915050565b600061079660001984600802610778565b1980831691505092915050565b60006107af8383610785565b9150826002028217905092915050565b6107c8826103f9565b67ffffffffffffffff8111156107e1576107e0610285565b5b6107eb82546105d8565b6107f6828285610732565b600060209050601f8311600181146108295760008415610817578287015190505b61082185826107a3565b865550610889565b601f19841661083786610609565b60005b8281101561085f5784890151825560018201915060208501945060208101905061083a565b8683101561087c5784890151610878601f891682610785565b8355505b6001600288020188555050505b50505050505056fea2646970667358221220700e174ddc5599508a19f064b2157ae616274e3d5dd6c950561067503ba884ab64736f6c63430008130033",
					"opcodes": "PUSH1 0x80 PUSH1 0x40 MSTORE CALLVALUE DUP1 ISZERO PUSH2 0x10 JUMPI PUSH1 0x0 DUP1 REVERT JUMPDEST POP PUSH2 0x8C7 DUP1 PUSH2 0x20 PUSH1 0x0 CODECOPY PUSH1 0x0 RETURN INVALID PUSH1 0x80 PUSH1 0x40 MSTORE CALLVALUE DUP1 ISZERO PUSH2 0x10 JUMPI PUSH1 0x0 DUP1 REVERT JUMPDEST POP PUSH1 0x4 CALLDATASIZE LT PUSH2 0x36 JUMPI PUSH1 0x0 CALLDATALOAD PUSH1 0xE0 SHR DUP1 PUSH4 0x7CCB6A64 EQ PUSH2 0x3B JUMPI DUP1 PUSH4 0xF2D893E4 EQ PUSH2 0x6C JUMPI JUMPDEST PUSH1 0x0 DUP1 REVERT JUMPDEST PUSH2 0x55 PUSH1 0x4 DUP1 CALLDATASIZE SUB DUP2 ADD SWAP1 PUSH2 0x50 SWAP2 SWAP1 PUSH2 0x3B0 JUMP JUMPDEST PUSH2 0x88 JUMP JUMPDEST PUSH1 0x40 MLOAD PUSH2 0x63 SWAP3 SWAP2 SWAP1 PUSH2 0x478 JUMP JUMPDEST PUSH1 0x40 MLOAD DUP1 SWAP2 SUB SWAP1 RETURN JUMPDEST PUSH2 0x86 PUSH1 0x4 DUP1 CALLDATASIZE SUB DUP2 ADD SWAP1 PUSH2 0x81 SWAP2 SWAP1 PUSH2 0x4AF JUMP JUMPDEST PUSH2 0x1EF JUMP JUMPDEST STOP JUMPDEST PUSH1 0x60 DUP1 PUSH1 0x0 DUP1 DUP5 PUSH1 0x40 MLOAD PUSH2 0x9C SWAP2 SWAP1 PUSH2 0x592 JUMP JUMPDEST SWAP1 DUP2 MSTORE PUSH1 0x20 ADD PUSH1 0x40 MLOAD DUP1 SWAP2 SUB SWAP1 KECCAK256 PUSH1 0x40 MLOAD DUP1 PUSH1 0x40 ADD PUSH1 0x40 MSTORE SWAP1 DUP2 PUSH1 0x0 DUP3 ADD DUP1 SLOAD PUSH2 0xC5 SWAP1 PUSH2 0x5D8 JUMP JUMPDEST DUP1 PUSH1 0x1F ADD PUSH1 0x20 DUP1 SWAP2 DIV MUL PUSH1 0x20 ADD PUSH1 0x40 MLOAD SWAP1 DUP2 ADD PUSH1 0x40 MSTORE DUP1 SWAP3 SWAP2 SWAP1 DUP2 DUP2 MSTORE PUSH1 0x20 ADD DUP3 DUP1 SLOAD PUSH2 0xF1 SWAP1 PUSH2 0x5D8 JUMP JUMPDEST DUP1 ISZERO PUSH2 0x13E JUMPI DUP1 PUSH1 0x1F LT PUSH2 0x113 JUMPI PUSH2 0x100 DUP1 DUP4 SLOAD DIV MUL DUP4 MSTORE SWAP2 PUSH1 0x20 ADD SWAP2 PUSH2 0x13E JUMP JUMPDEST DUP3 ADD SWAP2 SWAP1 PUSH1 0x0 MSTORE PUSH1 0x20 PUSH1 0x0 KECCAK256 SWAP1 JUMPDEST DUP2 SLOAD DUP2 MSTORE SWAP1 PUSH1 0x1 ADD SWAP1 PUSH1 0x20 ADD DUP1 DUP4 GT PUSH2 0x121 JUMPI DUP3 SWAP1 SUB PUSH1 0x1F AND DUP3 ADD SWAP2 JUMPDEST POP POP POP POP POP DUP2 MSTORE PUSH1 0x20 ADD PUSH1 0x1 DUP3 ADD DUP1 SLOAD PUSH2 0x157 SWAP1 PUSH2 0x5D8 JUMP JUMPDEST DUP1 PUSH1 0x1F ADD PUSH1 0x20 DUP1 SWAP2 DIV MUL PUSH1 0x20 ADD PUSH1 0x40 MLOAD SWAP1 DUP2 ADD PUSH1 0x40 MSTORE DUP1 SWAP3 SWAP2 SWAP1 DUP2 DUP2 MSTORE PUSH1 0x20 ADD DUP3 DUP1 SLOAD PUSH2 0x183 SWAP1 PUSH2 0x5D8 JUMP JUMPDEST DUP1 ISZERO PUSH2 0x1D0 JUMPI DUP1 PUSH1 0x1F LT PUSH2 0x1A5 JUMPI PUSH2 0x100 DUP1 DUP4 SLOAD DIV MUL DUP4 MSTORE SWAP2 PUSH1 0x20 ADD SWAP2 PUSH2 0x1D0 JUMP JUMPDEST DUP3 ADD SWAP2 SWAP1 PUSH1 0x0 MSTORE PUSH1 0x20 PUSH1 0x0 KECCAK256 SWAP1 JUMPDEST DUP2 SLOAD DUP2 MSTORE SWAP1 PUSH1 0x1 ADD SWAP1 PUSH1 0x20 ADD DUP1 DUP4 GT PUSH2 0x1B3 JUMPI DUP3 SWAP1 SUB PUSH1 0x1F AND DUP3 ADD SWAP2 JUMPDEST POP POP POP POP POP DUP2 MSTORE POP POP SWAP1 POP DUP1 PUSH1 0x0 ADD MLOAD DUP2 PUSH1 0x20 ADD MLOAD SWAP3 POP SWAP3 POP POP SWAP2 POP SWAP2 JUMP JUMPDEST PUSH1 0x40 MLOAD DUP1 PUSH1 0x40 ADD PUSH1 0x40 MSTORE DUP1 DUP4 DUP2 MSTORE PUSH1 0x20 ADD DUP3 DUP2 MSTORE POP PUSH1 0x0 DUP5 PUSH1 0x40 MLOAD PUSH2 0x214 SWAP2 SWAP1 PUSH2 0x592 JUMP JUMPDEST SWAP1 DUP2 MSTORE PUSH1 0x20 ADD PUSH1 0x40 MLOAD DUP1 SWAP2 SUB SWAP1 KECCAK256 PUSH1 0x0 DUP3 ADD MLOAD DUP2 PUSH1 0x0 ADD SWAP1 DUP2 PUSH2 0x237 SWAP2 SWAP1 PUSH2 0x7BF JUMP JUMPDEST POP PUSH1 0x20 DUP3 ADD MLOAD DUP2 PUSH1 0x1 ADD SWAP1 DUP2 PUSH2 0x24D SWAP2 SWAP1 PUSH2 0x7BF JUMP JUMPDEST POP SWAP1 POP POP POP POP POP JUMP JUMPDEST PUSH1 0x0 PUSH1 0x40 MLOAD SWAP1 POP SWAP1 JUMP JUMPDEST PUSH1 0x0 DUP1 REVERT JUMPDEST PUSH1 0x0 DUP1 REVERT JUMPDEST PUSH1 0x0 DUP1 REVERT JUMPDEST PUSH1 0x0 DUP1 REVERT JUMPDEST PUSH1 0x0 PUSH1 0x1F NOT PUSH1 0x1F DUP4 ADD AND SWAP1 POP SWAP2 SWAP1 POP JUMP JUMPDEST PUSH32 0x4E487B7100000000000000000000000000000000000000000000000000000000 PUSH1 0x0 MSTORE PUSH1 0x41 PUSH1 0x4 MSTORE PUSH1 0x24 PUSH1 0x0 REVERT JUMPDEST PUSH2 0x2BD DUP3 PUSH2 0x274 JUMP JUMPDEST DUP2 ADD DUP2 DUP2 LT PUSH8 0xFFFFFFFFFFFFFFFF DUP3 GT OR ISZERO PUSH2 0x2DC JUMPI PUSH2 0x2DB PUSH2 0x285 JUMP JUMPDEST JUMPDEST DUP1 PUSH1 0x40 MSTORE POP POP POP JUMP JUMPDEST PUSH1 0x0 PUSH2 0x2EF PUSH2 0x256 JUMP JUMPDEST SWAP1 POP PUSH2 0x2FB DUP3 DUP3 PUSH2 0x2B4 JUMP JUMPDEST SWAP2 SWAP1 POP JUMP JUMPDEST PUSH1 0x0 PUSH8 0xFFFFFFFFFFFFFFFF DUP3 GT ISZERO PUSH2 0x31B JUMPI PUSH2 0x31A PUSH2 0x285 JUMP JUMPDEST JUMPDEST PUSH2 0x324 DUP3 PUSH2 0x274 JUMP JUMPDEST SWAP1 POP PUSH1 0x20 DUP2 ADD SWAP1 POP SWAP2 SWAP1 POP JUMP JUMPDEST DUP3 DUP2 DUP4 CALLDATACOPY PUSH1 0x0 DUP4 DUP4 ADD MSTORE POP POP POP JUMP JUMPDEST PUSH1 0x0 PUSH2 0x353 PUSH2 0x34E DUP5 PUSH2 0x300 JUMP JUMPDEST PUSH2 0x2E5 JUMP JUMPDEST SWAP1 POP DUP3 DUP2 MSTORE PUSH1 0x20 DUP2 ADD DUP5 DUP5 DUP5 ADD GT ISZERO PUSH2 0x36F JUMPI PUSH2 0x36E PUSH2 0x26F JUMP JUMPDEST JUMPDEST PUSH2 0x37A DUP5 DUP3 DUP6 PUSH2 0x331 JUMP JUMPDEST POP SWAP4 SWAP3 POP POP POP JUMP JUMPDEST PUSH1 0x0 DUP3 PUSH1 0x1F DUP4 ADD SLT PUSH2 0x397 JUMPI PUSH2 0x396 PUSH2 0x26A JUMP JUMPDEST JUMPDEST DUP2 CALLDATALOAD PUSH2 0x3A7 DUP5 DUP3 PUSH1 0x20 DUP7 ADD PUSH2 0x340 JUMP JUMPDEST SWAP2 POP POP SWAP3 SWAP2 POP POP JUMP JUMPDEST PUSH1 0x0 PUSH1 0x20 DUP3 DUP5 SUB SLT ISZERO PUSH2 0x3C6 JUMPI PUSH2 0x3C5 PUSH2 0x260 JUMP JUMPDEST JUMPDEST PUSH1 0x0 DUP3 ADD CALLDATALOAD PUSH8 0xFFFFFFFFFFFFFFFF DUP2 GT ISZERO PUSH2 0x3E4 JUMPI PUSH2 0x3E3 PUSH2 0x265 JUMP JUMPDEST JUMPDEST PUSH2 0x3F0 DUP5 DUP3 DUP6 ADD PUSH2 0x382 JUMP JUMPDEST SWAP2 POP POP SWAP3 SWAP2 POP POP JUMP JUMPDEST PUSH1 0x0 DUP2 MLOAD SWAP1 POP SWAP2 SWAP1 POP JUMP JUMPDEST PUSH1 0x0 DUP3 DUP3 MSTORE PUSH1 0x20 DUP3 ADD SWAP1 POP SWAP3 SWAP2 POP POP JUMP JUMPDEST PUSH1 0x0 JUMPDEST DUP4 DUP2 LT ISZERO PUSH2 0x433 JUMPI DUP1 DUP3 ADD MLOAD DUP2 DUP5 ADD MSTORE PUSH1 0x20 DUP2 ADD SWAP1 POP PUSH2 0x418 JUMP JUMPDEST PUSH1 0x0 DUP5 DUP5 ADD MSTORE POP POP POP POP JUMP JUMPDEST PUSH1 0x0 PUSH2 0x44A DUP3 PUSH2 0x3F9 JUMP JUMPDEST PUSH2 0x454 DUP2 DUP6 PUSH2 0x404 JUMP JUMPDEST SWAP4 POP PUSH2 0x464 DUP2 DUP6 PUSH1 0x20 DUP7 ADD PUSH2 0x415 JUMP JUMPDEST PUSH2 0x46D DUP2 PUSH2 0x274 JUMP JUMPDEST DUP5 ADD SWAP2 POP POP SWAP3 SWAP2 POP POP JUMP JUMPDEST PUSH1 0x0 PUSH1 0x40 DUP3 ADD SWAP1 POP DUP2 DUP2 SUB PUSH1 0x0 DUP4 ADD MSTORE PUSH2 0x492 DUP2 DUP6 PUSH2 0x43F JUMP JUMPDEST SWAP1 POP DUP2 DUP2 SUB PUSH1 0x20 DUP4 ADD MSTORE PUSH2 0x4A6 DUP2 DUP5 PUSH2 0x43F JUMP JUMPDEST SWAP1 POP SWAP4 SWAP3 POP POP POP JUMP JUMPDEST PUSH1 0x0 DUP1 PUSH1 0x0 PUSH1 0x60 DUP5 DUP7 SUB SLT ISZERO PUSH2 0x4C8 JUMPI PUSH2 0x4C7 PUSH2 0x260 JUMP JUMPDEST JUMPDEST PUSH1 0x0 DUP5 ADD CALLDATALOAD PUSH8 0xFFFFFFFFFFFFFFFF DUP2 GT ISZERO PUSH2 0x4E6 JUMPI PUSH2 0x4E5 PUSH2 0x265 JUMP JUMPDEST JUMPDEST PUSH2 0x4F2 DUP7 DUP3 DUP8 ADD PUSH2 0x382 JUMP JUMPDEST SWAP4 POP POP PUSH1 0x20 DUP5 ADD CALLDATALOAD PUSH8 0xFFFFFFFFFFFFFFFF DUP2 GT ISZERO PUSH2 0x513 JUMPI PUSH2 0x512 PUSH2 0x265 JUMP JUMPDEST JUMPDEST PUSH2 0x51F DUP7 DUP3 DUP8 ADD PUSH2 0x382 JUMP JUMPDEST SWAP3 POP POP PUSH1 0x40 DUP5 ADD CALLDATALOAD PUSH8 0xFFFFFFFFFFFFFFFF DUP2 GT ISZERO PUSH2 0x540 JUMPI PUSH2 0x53F PUSH2 0x265 JUMP JUMPDEST JUMPDEST PUSH2 0x54C DUP7 DUP3 DUP8 ADD PUSH2 0x382 JUMP JUMPDEST SWAP2 POP POP SWAP3 POP SWAP3 POP SWAP3 JUMP JUMPDEST PUSH1 0x0 DUP2 SWAP1 POP SWAP3 SWAP2 POP POP JUMP JUMPDEST PUSH1 0x0 PUSH2 0x56C DUP3 PUSH2 0x3F9 JUMP JUMPDEST PUSH2 0x576 DUP2 DUP6 PUSH2 0x556 JUMP JUMPDEST SWAP4 POP PUSH2 0x586 DUP2 DUP6 PUSH1 0x20 DUP7 ADD PUSH2 0x415 JUMP JUMPDEST DUP1 DUP5 ADD SWAP2 POP POP SWAP3 SWAP2 POP POP JUMP JUMPDEST PUSH1 0x0 PUSH2 0x59E DUP3 DUP5 PUSH2 0x561 JUMP JUMPDEST SWAP2 POP DUP2 SWAP1 POP SWAP3 SWAP2 POP POP JUMP JUMPDEST PUSH32 0x4E487B7100000000000000000000000000000000000000000000000000000000 PUSH1 0x0 MSTORE PUSH1 0x22 PUSH1 0x4 MSTORE PUSH1 0x24 PUSH1 0x0 REVERT JUMPDEST PUSH1 0x0 PUSH1 0x2 DUP3 DIV SWAP1 POP PUSH1 0x1 DUP3 AND DUP1 PUSH2 0x5F0 JUMPI PUSH1 0x7F DUP3 AND SWAP2 POP JUMPDEST PUSH1 0x20 DUP3 LT DUP2 SUB PUSH2 0x603 JUMPI PUSH2 0x602 PUSH2 0x5A9 JUMP JUMPDEST JUMPDEST POP SWAP2 SWAP1 POP JUMP JUMPDEST PUSH1 0x0 DUP2 SWAP1 POP DUP2 PUSH1 0x0 MSTORE PUSH1 0x20 PUSH1 0x0 KECCAK256 SWAP1 POP SWAP2 SWAP1 POP JUMP JUMPDEST PUSH1 0x0 PUSH1 0x20 PUSH1 0x1F DUP4 ADD DIV SWAP1 POP SWAP2 SWAP1 POP JUMP JUMPDEST PUSH1 0x0 DUP3 DUP3 SHL SWAP1 POP SWAP3 SWAP2 POP POP JUMP JUMPDEST PUSH1 0x0 PUSH1 0x8 DUP4 MUL PUSH2 0x66B PUSH32 0xFFFFFFFFFFFFFFFFFFFFFFFFFFFFFFFFFFFFFFFFFFFFFFFFFFFFFFFFFFFFFFFF DUP3 PUSH2 0x62E JUMP JUMPDEST PUSH2 0x675 DUP7 DUP4 PUSH2 0x62E JUMP JUMPDEST SWAP6 POP DUP1 NOT DUP5 AND SWAP4 POP DUP1 DUP7 AND DUP5 OR SWAP3 POP POP POP SWAP4 SWAP3 POP POP POP JUMP JUMPDEST PUSH1 0x0 DUP2 SWAP1 POP SWAP2 SWAP1 POP JUMP JUMPDEST PUSH1 0x0 DUP2 SWAP1 POP SWAP2 SWAP1 POP JUMP JUMPDEST PUSH1 0x0 PUSH2 0x6BC PUSH2 0x6B7 PUSH2 0x6B2 DUP5 PUSH2 0x68D JUMP JUMPDEST PUSH2 0x697 JUMP JUMPDEST PUSH2 0x68D JUMP JUMPDEST SWAP1 POP SWAP2 SWAP1 POP JUMP JUMPDEST PUSH1 0x0 DUP2 SWAP1 POP SWAP2 SWAP1 POP JUMP JUMPDEST PUSH2 0x6D6 DUP4 PUSH2 0x6A1 JUMP JUMPDEST PUSH2 0x6EA PUSH2 0x6E2 DUP3 PUSH2 0x6C3 JUMP JUMPDEST DUP5 DUP5 SLOAD PUSH2 0x63B JUMP JUMPDEST DUP3 SSTORE POP POP POP POP JUMP JUMPDEST PUSH1 0x0 SWAP1 JUMP JUMPDEST PUSH2 0x6FF PUSH2 0x6F2 JUMP JUMPDEST PUSH2 0x70A DUP2 DUP5 DUP5 PUSH2 0x6CD JUMP JUMPDEST POP POP POP JUMP JUMPDEST JUMPDEST DUP2 DUP2 LT ISZERO PUSH2 0x72E JUMPI PUSH2 0x723 PUSH1 0x0 DUP3 PUSH2 0x6F7 JUMP JUMPDEST PUSH1 0x1 DUP2 ADD SWAP1 POP PUSH2 0x710 JUMP JUMPDEST POP POP JUMP JUMPDEST PUSH1 0x1F DUP3 GT ISZERO PUSH2 0x773 JUMPI PUSH2 0x744 DUP2 PUSH2 0x609 JUMP JUMPDEST PUSH2 0x74D DUP5 PUSH2 0x61E JUMP JUMPDEST DUP2 ADD PUSH1 0x20 DUP6 LT ISZERO PUSH2 0x75C JUMPI DUP2 SWAP1 POP JUMPDEST PUSH2 0x770 PUSH2 0x768 DUP6 PUSH2 0x61E JUMP JUMPDEST DUP4 ADD DUP3 PUSH2 0x70F JUMP JUMPDEST POP POP JUMPDEST POP POP POP JUMP JUMPDEST PUSH1 0x0 DUP3 DUP3 SHR SWAP1 POP SWAP3 SWAP2 POP POP JUMP JUMPDEST PUSH1 0x0 PUSH2 0x796 PUSH1 0x0 NOT DUP5 PUSH1 0x8 MUL PUSH2 0x778 JUMP JUMPDEST NOT DUP1 DUP4 AND SWAP2 POP POP SWAP3 SWAP2 POP POP JUMP JUMPDEST PUSH1 0x0 PUSH2 0x7AF DUP4 DUP4 PUSH2 0x785 JUMP JUMPDEST SWAP2 POP DUP3 PUSH1 0x2 MUL DUP3 OR SWAP1 POP SWAP3 SWAP2 POP POP JUMP JUMPDEST PUSH2 0x7C8 DUP3 PUSH2 0x3F9 JUMP JUMPDEST PUSH8 0xFFFFFFFFFFFFFFFF DUP2 GT ISZERO PUSH2 0x7E1 JUMPI PUSH2 0x7E0 PUSH2 0x285 JUMP JUMPDEST JUMPDEST PUSH2 0x7EB DUP3 SLOAD PUSH2 0x5D8 JUMP JUMPDEST PUSH2 0x7F6 DUP3 DUP3 DUP6 PUSH2 0x732 JUMP JUMPDEST PUSH1 0x0 PUSH1 0x20 SWAP1 POP PUSH1 0x1F DUP4 GT PUSH1 0x1 DUP2 EQ PUSH2 0x829 JUMPI PUSH1 0x0 DUP5 ISZERO PUSH2 0x817 JUMPI DUP3 DUP8 ADD MLOAD SWAP1 POP JUMPDEST PUSH2 0x821 DUP6 DUP3 PUSH2 0x7A3 JUMP JUMPDEST DUP7 SSTORE POP PUSH2 0x889 JUMP JUMPDEST PUSH1 0x1F NOT DUP5 AND PUSH2 0x837 DUP7 PUSH2 0x609 JUMP JUMPDEST PUSH1 0x0 JUMPDEST DUP3 DUP2 LT ISZERO PUSH2 0x85F JUMPI DUP5 DUP10 ADD MLOAD DUP3 SSTORE PUSH1 0x1 DUP3 ADD SWAP2 POP PUSH1 0x20 DUP6 ADD SWAP5 POP PUSH1 0x20 DUP2 ADD SWAP1 POP PUSH2 0x83A JUMP JUMPDEST DUP7 DUP4 LT ISZERO PUSH2 0x87C JUMPI DUP5 DUP10 ADD MLOAD PUSH2 0x878 PUSH1 0x1F DUP10 AND DUP3 PUSH2 0x785 JUMP JUMPDEST DUP4 SSTORE POP JUMPDEST PUSH1 0x1 PUSH1 0x2 DUP9 MUL ADD DUP9 SSTORE POP POP POP JUMPDEST POP POP POP POP POP POP JUMP INVALID LOG2 PUSH5 0x6970667358 0x22 SLT KECCAK256 PUSH17 0xE174DDC5599508A19F064B2157AE61627 0x4E RETURNDATASIZE 0x5D 0xD6 0xC9 POP JUMP LT PUSH8 0x503BA884AB64736F PUSH13 0x63430008130033000000000000 "
				},
				"gasEstimates": {
					"creation": {
						"codeDepositCost": "449400",
						"executionCost": "486",
						"totalCost": "449886"
					},
					"external": {
						"getDocument(string)": "infinite",
						"storeDocument(string,string,string)": "infinite"
					}
				},
				"methodIdentifiers": {
					"getDocument(string)": "7ccb6a64",
					"storeDocument(string,string,string)": "f2d893e4"
				}
			},
			"storageLayout": {
				"storage": [
					{
						"astId": 11,
						"contract": "CivilMetadataStorage.sol:CivilMetadataStorage",
						"label": "documents",
						"offset": 0,
						"slot": "0",
						"type": "t_mapping(t_string_memory_ptr,t_struct(CivilDocument)6_storage)"
					}
				],
				"types": {
					"t_mapping(t_string_memory_ptr,t_struct(CivilDocument)6_storage)": {
						"encoding": "mapping",
						"key": "t_string_memory_ptr",
						"label": "mapping(string => struct CivilMetadataStorage.CivilDocument)",
						"numberOfBytes": "32",
						"value": "t_struct(CivilDocument)6_storage"
					},
					"t_string_memory_ptr": {
						"encoding": "bytes",
						"label": "string",
						"numberOfBytes": "32"
					},
					"t_string_storage": {
						"encoding": "bytes",
						"label": "string",
						"numberOfBytes": "32"
					},
					"t_struct(CivilDocument)6_storage": {
						"encoding": "inplace",
						"label": "struct CivilMetadataStorage.CivilDocument",
						"members": [
							{
								"astId": 3,
								"contract": "CivilMetadataStorage.sol:CivilMetadataStorage",
								"label": "ipfsHash",
								"offset": 0,
								"slot": "0",
								"type": "t_string_storage"
							},
							{
								"astId": 5,
								"contract": "CivilMetadataStorage.sol:CivilMetadataStorage",
								"label": "encryptedMetadata",
								"offset": 0,
								"slot": "1",
								"type": "t_string_storage"
							}
						],
						"numberOfBytes": "64"
					}
				}
			},
			"userdoc": {
				"kind": "user",
				"methods": {},
				"version": 1
			}
		}
	}
}