{
	"CivilMetaDataStressTest.sol": {
		"CivilMetadataStorage": {
			"abi": [
				{
					"anonymous": false,
					"inputs": [
						{
							"indexed": false,
							"internalType": "string",
							"name": "documentId",
							"type": "string"
						},
						{
							"indexed": false,
							"internalType": "string",
							"name": "ipfsHash",
							"type": "string"
						}
					],
					"name": "DocumentStored",
					"type": "event"
				},
				{
					"inputs": [
						{
							"internalType": "string",
							"name": "",
							"type": "string"
						}
					],
					"name": "documents",
					"outputs": [
						{
							"internalType": "string",
							"name": "ipfsHash",
							"type": "string"
						},
						{
							"internalType": "string",
							"name": "encryptedMetadata",
							"type": "string"
						}
					],
					"stateMutability": "view",
					"type": "function"
				},
				{
					"inputs": [
						{
							"internalType": "string",
							"name": "_documentId",
							"type": "string"
						}
					],
					"name": "getDocument",
					"outputs": [
						{
							"internalType": "string",
							"name": "",
							"type": "string"
						},
						{
							"internalType": "string",
							"name": "",
							"type": "string"
						}
					],
					"stateMutability": "view",
					"type": "function"
				},
				{
					"inputs": [
						{
							"internalType": "string",
							"name": "_documentId",
							"type": "string"
						},
						{
							"internalType": "string",
							"name": "_ipfsHash",
							"type": "string"
						},
						{
							"internalType": "string",
							"name": "_encryptedMetadata",
							"type": "string"
						}
					],
					"name": "storeDocument",
					"outputs": [],
					"stateMutability": "nonpayable",
					"type": "function"
				},
				{
					"inputs": [
						{
							"internalType": "string[]",
							"name": "_documentIds",
							"type": "string[]"
						},
						{
							"internalType": "string[]",
							"name": "_ipfsHashes",
							"type": "string[]"
						},
						{
							"internalType": "string[]",
							"name": "_encryptedMetadataArray",
							"type": "string[]"
						}
					],
					"name": "storeMultipleDocuments",
					"outputs": [],
					"stateMutability": "nonpayable",
					"type": "function"
				},
				{
					"inputs": [
						{
							"internalType": "string",
							"name": "_documentIdPrefix",
							"type": "string"
						},
						{
							"internalType": "string",
							"name": "_ipfsHash",
							"type": "string"
						},
						{
							"internalType": "string",
							"name": "_encryptedMetadata",
							"type": "string"
						},
						{
							"internalType": "uint256",
							"name": "_iterations",
							"type": "uint256"
						}
					],
					"name": "stressTestStoreDocument",
					"outputs": [],
					"stateMutability": "nonpayable",
					"type": "function"
				}
			],
			"devdoc": {
				"kind": "dev",
				"methods": {},
				"version": 1
			},
			"evm": {
				"assembly": "    /* \"CivilMetaDataStressTest.sol\":57:2761  contract CivilMetadataStorage {... */\n  mstore(0x40, 0x80)\n  callvalue\n  dup1\n  iszero\n  tag_1\n  jumpi\n  0x00\n  dup1\n  revert\ntag_1:\n  pop\n  dataSize(sub_0)\n  dup1\n  dataOffset(sub_0)\n  0x00\n  codecopy\n  0x00\n  return\nstop\n\nsub_0: assembly {\n        /* \"CivilMetaDataStressTest.sol\":57:2761  contract CivilMetadataStorage {... */\n      mstore(0x40, 0x80)\n      callvalue\n      dup1\n      iszero\n      tag_1\n      jumpi\n      0x00\n      dup1\n      revert\n    tag_1:\n      pop\n      jumpi(tag_2, lt(calldatasize, 0x04))\n      shr(0xe0, calldataload(0x00))\n      dup1\n      0x4ccc9c76\n      eq\n      tag_3\n      jumpi\n      dup1\n      0x7ccb6a64\n      eq\n      tag_4\n      jumpi\n      dup1\n      0xb3dd697b\n      eq\n      tag_5\n      jumpi\n      dup1\n      0xdfb4a3f6\n      eq\n      tag_6\n      jumpi\n      dup1\n      0xf2d893e4\n      eq\n      tag_7\n      jumpi\n    tag_2:\n      0x00\n      dup1\n      revert\n        /* \"CivilMetaDataStressTest.sol\":1810:2236  function stressTestStoreDocument(... */\n    tag_3:\n      tag_8\n      0x04\n      dup1\n      calldatasize\n      sub\n      dup2\n      add\n      swap1\n      tag_9\n      swap2\n      swap1\n      tag_10\n      jump\t// in\n    tag_9:\n      tag_11\n      jump\t// in\n    tag_8:\n      stop\n        /* \"CivilMetaDataStressTest.sol\":911:1130  function getDocument(string memory _documentId) public view returns (string memory, string memory) {... */\n    tag_4:\n      tag_12\n      0x04\n      dup1\n      calldatasize\n      sub\n      dup2\n      add\n      swap1\n      tag_13\n      swap2\n      swap1\n      tag_14\n      jump\t// in\n    tag_13:\n      tag_15\n      jump\t// in\n    tag_12:\n      mload(0x40)\n      tag_16\n      swap3\n      swap2\n      swap1\n      tag_17\n      jump\t// in\n    tag_16:\n      mload(0x40)\n      dup1\n      swap2\n      sub\n      swap1\n      return\n        /* \"CivilMetaDataStressTest.sol\":330:379  mapping(string => CivilDocument) public documents */\n    tag_5:\n      tag_18\n      0x04\n      dup1\n      calldatasize\n      sub\n      dup2\n      add\n      swap1\n      tag_19\n      swap2\n      swap1\n      tag_14\n      jump\t// in\n    tag_19:\n      tag_20\n      jump\t// in\n    tag_18:\n      mload(0x40)\n      tag_21\n      swap3\n      swap2\n      swap1\n      tag_17\n      jump\t// in\n    tag_21:\n      mload(0x40)\n      dup1\n      swap2\n      sub\n      swap1\n      return\n        /* \"CivilMetaDataStressTest.sol\":1214:1721  function storeMultipleDocuments(... */\n    tag_6:\n      tag_22\n      0x04\n      dup1\n      calldatasize\n      sub\n      dup2\n      add\n      swap1\n      tag_23\n      swap2\n      swap1\n      tag_24\n      jump\t// in\n    tag_23:\n      tag_25\n      jump\t// in\n    tag_22:\n      stop\n        /* \"CivilMetaDataStressTest.sol\":530:844  function storeDocument(... */\n    tag_7:\n      tag_26\n      0x04\n      dup1\n      calldatasize\n      sub\n      dup2\n      add\n      swap1\n      tag_27\n      swap2\n      swap1\n      tag_28\n      jump\t// in\n    tag_27:\n      tag_29\n      jump\t// in\n    tag_26:\n      stop\n        /* \"CivilMetaDataStressTest.sol\":1810:2236  function stressTestStoreDocument(... */\n    tag_11:\n        /* \"CivilMetaDataStressTest.sol\":2016:2022  uint i */\n      0x00\n        /* \"CivilMetaDataStressTest.sol\":2011:2230  for (uint i = 0; i < _iterations; i++) {... */\n    tag_31:\n        /* \"CivilMetaDataStressTest.sol\":2032:2043  _iterations */\n      dup2\n        /* \"CivilMetaDataStressTest.sol\":2028:2029  i */\n      dup2\n        /* \"CivilMetaDataStressTest.sol\":2028:2043  i < _iterations */\n      lt\n        /* \"CivilMetaDataStressTest.sol\":2011:2230  for (uint i = 0; i < _iterations; i++) {... */\n      iszero\n      tag_32\n      jumpi\n        /* \"CivilMetaDataStressTest.sol\":2064:2089  string memory generatedId */\n      0x00\n        /* \"CivilMetaDataStressTest.sol\":2116:2133  _documentIdPrefix */\n      dup6\n        /* \"CivilMetaDataStressTest.sol\":2135:2146  uint2str(i) */\n      tag_34\n        /* \"CivilMetaDataStressTest.sol\":2144:2145  i */\n      dup4\n        /* \"CivilMetaDataStressTest.sol\":2135:2143  uint2str */\n      tag_35\n        /* \"CivilMetaDataStressTest.sol\":2135:2146  uint2str(i) */\n      jump\t// in\n    tag_34:\n        /* \"CivilMetaDataStressTest.sol\":2099:2147  abi.encodePacked(_documentIdPrefix, uint2str(i)) */\n      add(0x20, mload(0x40))\n      tag_36\n      swap3\n      swap2\n      swap1\n      tag_37\n      jump\t// in\n    tag_36:\n      mload(0x40)\n      0x20\n      dup2\n      dup4\n      sub\n      sub\n      dup2\n      mstore\n      swap1\n      0x40\n      mstore\n        /* \"CivilMetaDataStressTest.sol\":2064:2148  string memory generatedId = string(abi.encodePacked(_documentIdPrefix, uint2str(i))) */\n      swap1\n      pop\n        /* \"CivilMetaDataStressTest.sol\":2162:2219  storeDocument(generatedId, _ipfsHash, _encryptedMetadata) */\n      tag_38\n        /* \"CivilMetaDataStressTest.sol\":2176:2187  generatedId */\n      dup2\n        /* \"CivilMetaDataStressTest.sol\":2189:2198  _ipfsHash */\n      dup7\n        /* \"CivilMetaDataStressTest.sol\":2200:2218  _encryptedMetadata */\n      dup7\n        /* \"CivilMetaDataStressTest.sol\":2162:2175  storeDocument */\n      tag_29\n        /* \"CivilMetaDataStressTest.sol\":2162:2219  storeDocument(generatedId, _ipfsHash, _encryptedMetadata) */\n      jump\t// in\n    tag_38:\n        /* \"CivilMetaDataStressTest.sol\":2050:2230  {... */\n      pop\n        /* \"CivilMetaDataStressTest.sol\":2045:2048  i++ */\n      dup1\n      dup1\n      tag_39\n      swap1\n      tag_40\n      jump\t// in\n    tag_39:\n      swap2\n      pop\n      pop\n        /* \"CivilMetaDataStressTest.sol\":2011:2230  for (uint i = 0; i < _iterations; i++) {... */\n      jump(tag_31)\n    tag_32:\n      pop\n        /* \"CivilMetaDataStressTest.sol\":1810:2236  function stressTestStoreDocument(... */\n      pop\n      pop\n      pop\n      pop\n      jump\t// out\n        /* \"CivilMetaDataStressTest.sol\":911:1130  function getDocument(string memory _documentId) public view returns (string memory, string memory) {... */\n    tag_15:\n        /* \"CivilMetaDataStressTest.sol\":980:993  string memory */\n      0x60\n        /* \"CivilMetaDataStressTest.sol\":995:1008  string memory */\n      dup1\n        /* \"CivilMetaDataStressTest.sol\":1020:1044  CivilDocument memory doc */\n      0x00\n        /* \"CivilMetaDataStressTest.sol\":1047:1056  documents */\n      dup1\n        /* \"CivilMetaDataStressTest.sol\":1057:1068  _documentId */\n      dup5\n        /* \"CivilMetaDataStressTest.sol\":1047:1069  documents[_documentId] */\n      mload(0x40)\n      tag_42\n      swap2\n      swap1\n      tag_43\n      jump\t// in\n    tag_42:\n      swap1\n      dup2\n      mstore\n      0x20\n      add\n      mload(0x40)\n      dup1\n      swap2\n      sub\n      swap1\n      keccak256\n        /* \"CivilMetaDataStressTest.sol\":1020:1069  CivilDocument memory doc = documents[_documentId] */\n      mload(0x40)\n      dup1\n      0x40\n      add\n      0x40\n      mstore\n      swap1\n      dup2\n      0x00\n      dup3\n      add\n      dup1\n      sload\n      tag_44\n      swap1\n      tag_45\n      jump\t// in\n    tag_44:\n      dup1\n      0x1f\n      add\n      0x20\n      dup1\n      swap2\n      div\n      mul\n      0x20\n      add\n      mload(0x40)\n      swap1\n      dup2\n      add\n      0x40\n      mstore\n      dup1\n      swap3\n      swap2\n      swap1\n      dup2\n      dup2\n      mstore\n      0x20\n      add\n      dup3\n      dup1\n      sload\n      tag_46\n      swap1\n      tag_45\n      jump\t// in\n    tag_46:\n      dup1\n      iszero\n      tag_47\n      jumpi\n      dup1\n      0x1f\n      lt\n      tag_48\n      jumpi\n      0x0100\n      dup1\n      dup4\n      sload\n      div\n      mul\n      dup4\n      mstore\n      swap2\n      0x20\n      add\n      swap2\n      jump(tag_47)\n    tag_48:\n      dup3\n      add\n      swap2\n      swap1\n      0x00\n      mstore\n      keccak256(0x00, 0x20)\n      swap1\n    tag_49:\n      dup2\n      sload\n      dup2\n      mstore\n      swap1\n      0x01\n      add\n      swap1\n      0x20\n      add\n      dup1\n      dup4\n      gt\n      tag_49\n      jumpi\n      dup3\n      swap1\n      sub\n      0x1f\n      and\n      dup3\n      add\n      swap2\n    tag_47:\n      pop\n      pop\n      pop\n      pop\n      pop\n      dup2\n      mstore\n      0x20\n      add\n      0x01\n      dup3\n      add\n      dup1\n      sload\n      tag_50\n      swap1\n      tag_45\n      jump\t// in\n    tag_50:\n      dup1\n      0x1f\n      add\n      0x20\n      dup1\n      swap2\n      div\n      mul\n      0x20\n      add\n      mload(0x40)\n      swap1\n      dup2\n      add\n      0x40\n      mstore\n      dup1\n      swap3\n      swap2\n      swap1\n      dup2\n      dup2\n      mstore\n      0x20\n      add\n      dup3\n      dup1\n      sload\n      tag_51\n      swap1\n      tag_45\n      jump\t// in\n    tag_51:\n      dup1\n      iszero\n      tag_52\n      jumpi\n      dup1\n      0x1f\n      lt\n      tag_53\n      jumpi\n      0x0100\n      dup1\n      dup4\n      sload\n      div\n      mul\n      dup4\n      mstore\n      swap2\n      0x20\n      add\n      swap2\n      jump(tag_52)\n    tag_53:\n      dup3\n      add\n      swap2\n      swap1\n      0x00\n      mstore\n      keccak256(0x00, 0x20)\n      swap1\n    tag_54:\n      dup2\n      sload\n      dup2\n      mstore\n      swap1\n      0x01\n      add\n      swap1\n      0x20\n      add\n      dup1\n      dup4\n      gt\n      tag_54\n      jumpi\n      dup3\n      swap1\n      sub\n      0x1f\n      and\n      dup3\n      add\n      swap2\n    tag_52:\n      pop\n      pop\n      pop\n      pop\n      pop\n      dup2\n      mstore\n      pop\n      pop\n      swap1\n      pop\n        /* \"CivilMetaDataStressTest.sol\":1087:1090  doc */\n      dup1\n        /* \"CivilMetaDataStressTest.sol\":1087:1099  doc.ipfsHash */\n      0x00\n      add\n      mload\n        /* \"CivilMetaDataStressTest.sol\":1101:1104  doc */\n      dup2\n        /* \"CivilMetaDataStressTest.sol\":1101:1122  doc.encryptedMetadata */\n      0x20\n      add\n      mload\n        /* \"CivilMetaDataStressTest.sol\":1079:1123  return (doc.ipfsHash, doc.encryptedMetadata) */\n      swap3\n      pop\n      swap3\n      pop\n      pop\n        /* \"CivilMetaDataStressTest.sol\":911:1130  function getDocument(string memory _documentId) public view returns (string memory, string memory) {... */\n      swap2\n      pop\n      swap2\n      jump\t// out\n        /* \"CivilMetaDataStressTest.sol\":330:379  mapping(string => CivilDocument) public documents */\n    tag_20:\n      0x00\n      dup2\n      dup1\n      mload\n      0x20\n      dup2\n      add\n      dup3\n      add\n      dup1\n      mload\n      dup5\n      dup3\n      mstore\n      0x20\n      dup4\n      add\n      0x20\n      dup6\n      add\n      keccak256\n      dup2\n      dup4\n      mstore\n      dup1\n      swap6\n      pop\n      pop\n      pop\n      pop\n      pop\n      pop\n      0x00\n      swap2\n      pop\n      swap1\n      pop\n      dup1\n      0x00\n      add\n      dup1\n      sload\n      tag_55\n      swap1\n      tag_45\n      jump\t// in\n    tag_55:\n      dup1\n      0x1f\n      add\n      0x20\n      dup1\n      swap2\n      div\n      mul\n      0x20\n      add\n      mload(0x40)\n      swap1\n      dup2\n      add\n      0x40\n      mstore\n      dup1\n      swap3\n      swap2\n      swap1\n      dup2\n      dup2\n      mstore\n      0x20\n      add\n      dup3\n      dup1\n      sload\n      tag_56\n      swap1\n      tag_45\n      jump\t// in\n    tag_56:\n      dup1\n      iszero\n      tag_57\n      jumpi\n      dup1\n      0x1f\n      lt\n      tag_58\n      jumpi\n      0x0100\n      dup1\n      dup4\n      sload\n      div\n      mul\n      dup4\n      mstore\n      swap2\n      0x20\n      add\n      swap2\n      jump(tag_57)\n    tag_58:\n      dup3\n      add\n      swap2\n      swap1\n      0x00\n      mstore\n      keccak256(0x00, 0x20)\n      swap1\n    tag_59:\n      dup2\n      sload\n      dup2\n      mstore\n      swap1\n      0x01\n      add\n      swap1\n      0x20\n      add\n      dup1\n      dup4\n      gt\n      tag_59\n      jumpi\n      dup3\n      swap1\n      sub\n      0x1f\n      and\n      dup3\n      add\n      swap2\n    tag_57:\n      pop\n      pop\n      pop\n      pop\n      pop\n      swap1\n      dup1\n      0x01\n      add\n      dup1\n      sload\n      tag_60\n      swap1\n      tag_45\n      jump\t// in\n    tag_60:\n      dup1\n      0x1f\n      add\n      0x20\n      dup1\n      swap2\n      div\n      mul\n      0x20\n      add\n      mload(0x40)\n      swap1\n      dup2\n      add\n      0x40\n      mstore\n      dup1\n      swap3\n      swap2\n      swap1\n      dup2\n      dup2\n      mstore\n      0x20\n      add\n      dup3\n      dup1\n      sload\n      tag_61\n      swap1\n      tag_45\n      jump\t// in\n    tag_61:\n      dup1\n      iszero\n      tag_62\n      jumpi\n      dup1\n      0x1f\n      lt\n      tag_63\n      jumpi\n      0x0100\n      dup1\n      dup4\n      sload\n      div\n      mul\n      dup4\n      mstore\n      swap2\n      0x20\n      add\n      swap2\n      jump(tag_62)\n    tag_63:\n      dup3\n      add\n      swap2\n      swap1\n      0x00\n      mstore\n      keccak256(0x00, 0x20)\n      swap1\n    tag_64:\n      dup2\n      sload\n      dup2\n      mstore\n      swap1\n      0x01\n      add\n      swap1\n      0x20\n      add\n      dup1\n      dup4\n      gt\n      tag_64\n      jumpi\n      dup3\n      swap1\n      sub\n      0x1f\n      and\n      dup3\n      add\n      swap2\n    tag_62:\n      pop\n      pop\n      pop\n      pop\n      pop\n      swap1\n      pop\n      dup3\n      jump\t// out\n        /* \"CivilMetaDataStressTest.sol\":1214:1721  function storeMultipleDocuments(... */\n    tag_25:\n        /* \"CivilMetaDataStressTest.sol\":1437:1448  _ipfsHashes */\n      dup2\n        /* \"CivilMetaDataStressTest.sol\":1437:1455  _ipfsHashes.length */\n      mload\n        /* \"CivilMetaDataStressTest.sol\":1414:1426  _documentIds */\n      dup4\n        /* \"CivilMetaDataStressTest.sol\":1414:1433  _documentIds.length */\n      mload\n        /* \"CivilMetaDataStressTest.sol\":1414:1455  _documentIds.length == _ipfsHashes.length */\n      eq\n        /* \"CivilMetaDataStressTest.sol\":1414:1511  _documentIds.length == _ipfsHashes.length && _ipfsHashes.length == _encryptedMetadataArray.length */\n      dup1\n      iszero\n      tag_66\n      jumpi\n      pop\n        /* \"CivilMetaDataStressTest.sol\":1481:1504  _encryptedMetadataArray */\n      dup1\n        /* \"CivilMetaDataStressTest.sol\":1481:1511  _encryptedMetadataArray.length */\n      mload\n        /* \"CivilMetaDataStressTest.sol\":1459:1470  _ipfsHashes */\n      dup3\n        /* \"CivilMetaDataStressTest.sol\":1459:1477  _ipfsHashes.length */\n      mload\n        /* \"CivilMetaDataStressTest.sol\":1459:1511  _ipfsHashes.length == _encryptedMetadataArray.length */\n      eq\n        /* \"CivilMetaDataStressTest.sol\":1414:1511  _documentIds.length == _ipfsHashes.length && _ipfsHashes.length == _encryptedMetadataArray.length */\n    tag_66:\n        /* \"CivilMetaDataStressTest.sol\":1393:1559  require(... */\n      tag_67\n      jumpi\n      mload(0x40)\n      0x08c379a000000000000000000000000000000000000000000000000000000000\n      dup2\n      mstore\n      0x04\n      add\n      tag_68\n      swap1\n      tag_69\n      jump\t// in\n    tag_68:\n      mload(0x40)\n      dup1\n      swap2\n      sub\n      swap1\n      revert\n    tag_67:\n        /* \"CivilMetaDataStressTest.sol\":1574:1580  uint i */\n      0x00\n        /* \"CivilMetaDataStressTest.sol\":1569:1715  for (uint i = 0; i < _documentIds.length; i++) {... */\n    tag_70:\n        /* \"CivilMetaDataStressTest.sol\":1590:1602  _documentIds */\n      dup4\n        /* \"CivilMetaDataStressTest.sol\":1590:1609  _documentIds.length */\n      mload\n        /* \"CivilMetaDataStressTest.sol\":1586:1587  i */\n      dup2\n        /* \"CivilMetaDataStressTest.sol\":1586:1609  i < _documentIds.length */\n      lt\n        /* \"CivilMetaDataStressTest.sol\":1569:1715  for (uint i = 0; i < _documentIds.length; i++) {... */\n      iszero\n      tag_71\n      jumpi\n        /* \"CivilMetaDataStressTest.sol\":1630:1704  storeDocument(_documentIds[i], _ipfsHashes[i], _encryptedMetadataArray[i]) */\n      tag_73\n        /* \"CivilMetaDataStressTest.sol\":1644:1656  _documentIds */\n      dup5\n        /* \"CivilMetaDataStressTest.sol\":1657:1658  i */\n      dup3\n        /* \"CivilMetaDataStressTest.sol\":1644:1659  _documentIds[i] */\n      dup2\n      mload\n      dup2\n      lt\n      tag_74\n      jumpi\n      tag_75\n      tag_76\n      jump\t// in\n    tag_75:\n    tag_74:\n      0x20\n      mul\n      0x20\n      add\n      add\n      mload\n        /* \"CivilMetaDataStressTest.sol\":1661:1672  _ipfsHashes */\n      dup5\n        /* \"CivilMetaDataStressTest.sol\":1673:1674  i */\n      dup4\n        /* \"CivilMetaDataStressTest.sol\":1661:1675  _ipfsHashes[i] */\n      dup2\n      mload\n      dup2\n      lt\n      tag_77\n      jumpi\n      tag_78\n      tag_76\n      jump\t// in\n    tag_78:\n    tag_77:\n      0x20\n      mul\n      0x20\n      add\n      add\n      mload\n        /* \"CivilMetaDataStressTest.sol\":1677:1700  _encryptedMetadataArray */\n      dup5\n        /* \"CivilMetaDataStressTest.sol\":1701:1702  i */\n      dup5\n        /* \"CivilMetaDataStressTest.sol\":1677:1703  _encryptedMetadataArray[i] */\n      dup2\n      mload\n      dup2\n      lt\n      tag_79\n      jumpi\n      tag_80\n      tag_76\n      jump\t// in\n    tag_80:\n    tag_79:\n      0x20\n      mul\n      0x20\n      add\n      add\n      mload\n        /* \"CivilMetaDataStressTest.sol\":1630:1643  storeDocument */\n      tag_29\n        /* \"CivilMetaDataStressTest.sol\":1630:1704  storeDocument(_documentIds[i], _ipfsHashes[i], _encryptedMetadataArray[i]) */\n      jump\t// in\n    tag_73:\n        /* \"CivilMetaDataStressTest.sol\":1611:1614  i++ */\n      dup1\n      dup1\n      tag_81\n      swap1\n      tag_40\n      jump\t// in\n    tag_81:\n      swap2\n      pop\n      pop\n        /* \"CivilMetaDataStressTest.sol\":1569:1715  for (uint i = 0; i < _documentIds.length; i++) {... */\n      jump(tag_70)\n    tag_71:\n      pop\n        /* \"CivilMetaDataStressTest.sol\":1214:1721  function storeMultipleDocuments(... */\n      pop\n      pop\n      pop\n      jump\t// out\n        /* \"CivilMetaDataStressTest.sol\":530:844  function storeDocument(... */\n    tag_29:\n        /* \"CivilMetaDataStressTest.sol\":711:755  CivilDocument(_ipfsHash, _encryptedMetadata) */\n      mload(0x40)\n      dup1\n      0x40\n      add\n      0x40\n      mstore\n      dup1\n        /* \"CivilMetaDataStressTest.sol\":725:734  _ipfsHash */\n      dup4\n        /* \"CivilMetaDataStressTest.sol\":711:755  CivilDocument(_ipfsHash, _encryptedMetadata) */\n      dup2\n      mstore\n      0x20\n      add\n        /* \"CivilMetaDataStressTest.sol\":736:754  _encryptedMetadata */\n      dup3\n        /* \"CivilMetaDataStressTest.sol\":711:755  CivilDocument(_ipfsHash, _encryptedMetadata) */\n      dup2\n      mstore\n      pop\n        /* \"CivilMetaDataStressTest.sol\":686:695  documents */\n      0x00\n        /* \"CivilMetaDataStressTest.sol\":696:707  _documentId */\n      dup5\n        /* \"CivilMetaDataStressTest.sol\":686:708  documents[_documentId] */\n      mload(0x40)\n      tag_83\n      swap2\n      swap1\n      tag_43\n      jump\t// in\n    tag_83:\n      swap1\n      dup2\n      mstore\n      0x20\n      add\n      mload(0x40)\n      dup1\n      swap2\n      sub\n      swap1\n      keccak256\n        /* \"CivilMetaDataStressTest.sol\":686:755  documents[_documentId] = CivilDocument(_ipfsHash, _encryptedMetadata) */\n      0x00\n      dup3\n      add\n      mload\n      dup2\n      0x00\n      add\n      swap1\n      dup2\n      tag_84\n      swap2\n      swap1\n      tag_85\n      jump\t// in\n    tag_84:\n      pop\n      0x20\n      dup3\n      add\n      mload\n      dup2\n      0x01\n      add\n      swap1\n      dup2\n      tag_86\n      swap2\n      swap1\n      tag_85\n      jump\t// in\n    tag_86:\n      pop\n      swap1\n      pop\n      pop\n        /* \"CivilMetaDataStressTest.sol\":770:808  DocumentStored(_documentId, _ipfsHash) */\n      0x4f63b101254c6d55638976c7c7b2e44ff57476ecf4c4c9cdc27cf3049e21c250\n        /* \"CivilMetaDataStressTest.sol\":785:796  _documentId */\n      dup4\n        /* \"CivilMetaDataStressTest.sol\":798:807  _ipfsHash */\n      dup4\n        /* \"CivilMetaDataStressTest.sol\":770:808  DocumentStored(_documentId, _ipfsHash) */\n      mload(0x40)\n      tag_87\n      swap3\n      swap2\n      swap1\n      tag_17\n      jump\t// in\n    tag_87:\n      mload(0x40)\n      dup1\n      swap2\n      sub\n      swap1\n      log1\n        /* \"CivilMetaDataStressTest.sol\":530:844  function storeDocument(... */\n      pop\n      pop\n      pop\n      jump\t// out\n        /* \"CivilMetaDataStressTest.sol\":2289:2759  function uint2str(uint256 _i) internal pure returns (string memory) {... */\n    tag_35:\n        /* \"CivilMetaDataStressTest.sol\":2342:2355  string memory */\n      0x60\n        /* \"CivilMetaDataStressTest.sol\":2377:2378  0 */\n      0x00\n        /* \"CivilMetaDataStressTest.sol\":2371:2373  _i */\n      dup3\n        /* \"CivilMetaDataStressTest.sol\":2371:2378  _i == 0 */\n      sub\n        /* \"CivilMetaDataStressTest.sol\":2367:2390  if (_i == 0) return \"0\" */\n      tag_89\n      jumpi\n        /* \"CivilMetaDataStressTest.sol\":2380:2390  return \"0\" */\n      mload(0x40)\n      dup1\n      0x40\n      add\n      0x40\n      mstore\n      dup1\n      0x01\n      dup2\n      mstore\n      0x20\n      add\n      0x3000000000000000000000000000000000000000000000000000000000000000\n      dup2\n      mstore\n      pop\n      swap1\n      pop\n      jump(tag_88)\n        /* \"CivilMetaDataStressTest.sol\":2367:2390  if (_i == 0) return \"0\" */\n    tag_89:\n        /* \"CivilMetaDataStressTest.sol\":2400:2409  uint256 j */\n      0x00\n        /* \"CivilMetaDataStressTest.sol\":2412:2414  _i */\n      dup3\n        /* \"CivilMetaDataStressTest.sol\":2400:2414  uint256 j = _i */\n      swap1\n      pop\n        /* \"CivilMetaDataStressTest.sol\":2424:2438  uint256 length */\n      0x00\n        /* \"CivilMetaDataStressTest.sol\":2448:2517  while (j != 0) {... */\n    tag_90:\n        /* \"CivilMetaDataStressTest.sol\":2460:2461  0 */\n      0x00\n        /* \"CivilMetaDataStressTest.sol\":2455:2456  j */\n      dup3\n        /* \"CivilMetaDataStressTest.sol\":2455:2461  j != 0 */\n      eq\n        /* \"CivilMetaDataStressTest.sol\":2448:2517  while (j != 0) {... */\n      tag_91\n      jumpi\n        /* \"CivilMetaDataStressTest.sol\":2477:2485  length++ */\n      dup1\n      dup1\n      tag_92\n      swap1\n      tag_40\n      jump\t// in\n    tag_92:\n      swap2\n      pop\n      pop\n        /* \"CivilMetaDataStressTest.sol\":2504:2506  10 */\n      0x0a\n        /* \"CivilMetaDataStressTest.sol\":2499:2506  j /= 10 */\n      dup3\n      tag_93\n      swap2\n      swap1\n      tag_94\n      jump\t// in\n    tag_93:\n      swap2\n      pop\n        /* \"CivilMetaDataStressTest.sol\":2448:2517  while (j != 0) {... */\n      jump(tag_90)\n    tag_91:\n        /* \"CivilMetaDataStressTest.sol\":2526:2543  bytes memory bstr */\n      0x00\n        /* \"CivilMetaDataStressTest.sol\":2556:2562  length */\n      dup2\n        /* \"CivilMetaDataStressTest.sol\":2546:2563  new bytes(length) */\n      0xffffffffffffffff\n      dup2\n      gt\n      iszero\n      tag_95\n      jumpi\n      tag_96\n      tag_97\n      jump\t// in\n    tag_96:\n    tag_95:\n      mload(0x40)\n      swap1\n      dup1\n      dup3\n      mstore\n      dup1\n      0x1f\n      add\n      not(0x1f)\n      and\n      0x20\n      add\n      dup3\n      add\n      0x40\n      mstore\n      dup1\n      iszero\n      tag_98\n      jumpi\n      dup2\n      0x20\n      add\n      0x01\n      dup3\n      mul\n      dup1\n      calldatasize\n      dup4\n      calldatacopy\n      dup1\n      dup3\n      add\n      swap2\n      pop\n      pop\n      swap1\n      pop\n    tag_98:\n      pop\n        /* \"CivilMetaDataStressTest.sol\":2526:2563  bytes memory bstr = new bytes(length) */\n      swap1\n      pop\n        /* \"CivilMetaDataStressTest.sol\":2573:2582  uint256 k */\n      0x00\n        /* \"CivilMetaDataStressTest.sol\":2585:2591  length */\n      dup3\n        /* \"CivilMetaDataStressTest.sol\":2573:2591  uint256 k = length */\n      swap1\n      pop\n        /* \"CivilMetaDataStressTest.sol\":2601:2724  while (_i != 0) {... */\n    tag_99:\n        /* \"CivilMetaDataStressTest.sol\":2614:2615  0 */\n      0x00\n        /* \"CivilMetaDataStressTest.sol\":2608:2610  _i */\n      dup7\n        /* \"CivilMetaDataStressTest.sol\":2608:2615  _i != 0 */\n      eq\n        /* \"CivilMetaDataStressTest.sol\":2601:2724  while (_i != 0) {... */\n      tag_100\n      jumpi\n        /* \"CivilMetaDataStressTest.sol\":2639:2640  1 */\n      0x01\n        /* \"CivilMetaDataStressTest.sol\":2635:2636  k */\n      dup2\n        /* \"CivilMetaDataStressTest.sol\":2635:2640  k - 1 */\n      tag_101\n      swap2\n      swap1\n      tag_102\n      jump\t// in\n    tag_101:\n        /* \"CivilMetaDataStressTest.sol\":2631:2640  k = k - 1 */\n      swap1\n      pop\n        /* \"CivilMetaDataStressTest.sol\":2687:2689  10 */\n      0x0a\n        /* \"CivilMetaDataStressTest.sol\":2682:2684  _i */\n      dup7\n        /* \"CivilMetaDataStressTest.sol\":2682:2689  _i % 10 */\n      tag_103\n      swap2\n      swap1\n      tag_104\n      jump\t// in\n    tag_103:\n        /* \"CivilMetaDataStressTest.sol\":2677:2679  48 */\n      0x30\n        /* \"CivilMetaDataStressTest.sol\":2677:2689  48 + _i % 10 */\n      tag_105\n      swap2\n      swap1\n      tag_106\n      jump\t// in\n    tag_105:\n        /* \"CivilMetaDataStressTest.sol\":2664:2691  bytes1(uint8(48 + _i % 10)) */\n      0xf8\n      shl\n        /* \"CivilMetaDataStressTest.sol\":2654:2658  bstr */\n      dup3\n        /* \"CivilMetaDataStressTest.sol\":2659:2660  k */\n      dup3\n        /* \"CivilMetaDataStressTest.sol\":2654:2661  bstr[k] */\n      dup2\n      mload\n      dup2\n      lt\n      tag_107\n      jumpi\n      tag_108\n      tag_76\n      jump\t// in\n    tag_108:\n    tag_107:\n      0x20\n      add\n      add\n        /* \"CivilMetaDataStressTest.sol\":2654:2691  bstr[k] = bytes1(uint8(48 + _i % 10)) */\n      swap1\n      not(0xffffffffffffffffffffffffffffffffffffffffffffffffffffffffffffff)\n      and\n      swap1\n      dup2\n      0x00\n      byte\n      swap1\n      mstore8\n      pop\n        /* \"CivilMetaDataStressTest.sol\":2711:2713  10 */\n      0x0a\n        /* \"CivilMetaDataStressTest.sol\":2705:2713  _i /= 10 */\n      dup7\n      tag_109\n      swap2\n      swap1\n      tag_94\n      jump\t// in\n    tag_109:\n      swap6\n      pop\n        /* \"CivilMetaDataStressTest.sol\":2601:2724  while (_i != 0) {... */\n      jump(tag_99)\n    tag_100:\n        /* \"CivilMetaDataStressTest.sol\":2747:2751  bstr */\n      dup2\n        /* \"CivilMetaDataStressTest.sol\":2733:2752  return string(bstr) */\n      swap5\n      pop\n      pop\n      pop\n      pop\n      pop\n        /* \"CivilMetaDataStressTest.sol\":2289:2759  function uint2str(uint256 _i) internal pure returns (string memory) {... */\n    tag_88:\n      swap2\n      swap1\n      pop\n      jump\t// out\n        /* \"#utility.yul\":7:82   */\n    tag_110:\n        /* \"#utility.yul\":40:46   */\n      0x00\n        /* \"#utility.yul\":73:75   */\n      0x40\n        /* \"#utility.yul\":67:76   */\n      mload\n        /* \"#utility.yul\":57:76   */\n      swap1\n      pop\n        /* \"#utility.yul\":7:82   */\n      swap1\n      jump\t// out\n        /* \"#utility.yul\":88:205   */\n    tag_111:\n        /* \"#utility.yul\":197:198   */\n      0x00\n        /* \"#utility.yul\":194:195   */\n      dup1\n        /* \"#utility.yul\":187:199   */\n      revert\n        /* \"#utility.yul\":211:328   */\n    tag_112:\n        /* \"#utility.yul\":320:321   */\n      0x00\n        /* \"#utility.yul\":317:318   */\n      dup1\n        /* \"#utility.yul\":310:322   */\n      revert\n        /* \"#utility.yul\":334:451   */\n    tag_113:\n        /* \"#utility.yul\":443:444   */\n      0x00\n        /* \"#utility.yul\":440:441   */\n      dup1\n        /* \"#utility.yul\":433:445   */\n      revert\n        /* \"#utility.yul\":457:574   */\n    tag_114:\n        /* \"#utility.yul\":566:567   */\n      0x00\n        /* \"#utility.yul\":563:564   */\n      dup1\n        /* \"#utility.yul\":556:568   */\n      revert\n        /* \"#utility.yul\":580:682   */\n    tag_115:\n        /* \"#utility.yul\":621:627   */\n      0x00\n        /* \"#utility.yul\":672:674   */\n      0x1f\n        /* \"#utility.yul\":668:675   */\n      not\n        /* \"#utility.yul\":663:665   */\n      0x1f\n        /* \"#utility.yul\":656:661   */\n      dup4\n        /* \"#utility.yul\":652:666   */\n      add\n        /* \"#utility.yul\":648:676   */\n      and\n        /* \"#utility.yul\":638:676   */\n      swap1\n      pop\n        /* \"#utility.yul\":580:682   */\n      swap2\n      swap1\n      pop\n      jump\t// out\n        /* \"#utility.yul\":688:868   */\n    tag_97:\n        /* \"#utility.yul\":736:813   */\n      0x4e487b7100000000000000000000000000000000000000000000000000000000\n        /* \"#utility.yul\":733:734   */\n      0x00\n        /* \"#utility.yul\":726:814   */\n      mstore\n        /* \"#utility.yul\":833:837   */\n      0x41\n        /* \"#utility.yul\":830:831   */\n      0x04\n        /* \"#utility.yul\":823:838   */\n      mstore\n        /* \"#utility.yul\":857:861   */\n      0x24\n        /* \"#utility.yul\":854:855   */\n      0x00\n        /* \"#utility.yul\":847:862   */\n      revert\n        /* \"#utility.yul\":874:1155   */\n    tag_116:\n        /* \"#utility.yul\":957:984   */\n      tag_164\n        /* \"#utility.yul\":979:983   */\n      dup3\n        /* \"#utility.yul\":957:984   */\n      tag_115\n      jump\t// in\n    tag_164:\n        /* \"#utility.yul\":949:955   */\n      dup2\n        /* \"#utility.yul\":945:985   */\n      add\n        /* \"#utility.yul\":1087:1093   */\n      dup2\n        /* \"#utility.yul\":1075:1085   */\n      dup2\n        /* \"#utility.yul\":1072:1094   */\n      lt\n        /* \"#utility.yul\":1051:1069   */\n      0xffffffffffffffff\n        /* \"#utility.yul\":1039:1049   */\n      dup3\n        /* \"#utility.yul\":1036:1070   */\n      gt\n        /* \"#utility.yul\":1033:1095   */\n      or\n        /* \"#utility.yul\":1030:1118   */\n      iszero\n      tag_165\n      jumpi\n        /* \"#utility.yul\":1098:1116   */\n      tag_166\n      tag_97\n      jump\t// in\n    tag_166:\n        /* \"#utility.yul\":1030:1118   */\n    tag_165:\n        /* \"#utility.yul\":1138:1148   */\n      dup1\n        /* \"#utility.yul\":1134:1136   */\n      0x40\n        /* \"#utility.yul\":1127:1149   */\n      mstore\n        /* \"#utility.yul\":917:1155   */\n      pop\n        /* \"#utility.yul\":874:1155   */\n      pop\n      pop\n      jump\t// out\n        /* \"#utility.yul\":1161:1290   */\n    tag_117:\n        /* \"#utility.yul\":1195:1201   */\n      0x00\n        /* \"#utility.yul\":1222:1242   */\n      tag_168\n      tag_110\n      jump\t// in\n    tag_168:\n        /* \"#utility.yul\":1212:1242   */\n      swap1\n      pop\n        /* \"#utility.yul\":1251:1284   */\n      tag_169\n        /* \"#utility.yul\":1279:1283   */\n      dup3\n        /* \"#utility.yul\":1271:1277   */\n      dup3\n        /* \"#utility.yul\":1251:1284   */\n      tag_116\n      jump\t// in\n    tag_169:\n        /* \"#utility.yul\":1161:1290   */\n      swap2\n      swap1\n      pop\n      jump\t// out\n        /* \"#utility.yul\":1296:1604   */\n    tag_118:\n        /* \"#utility.yul\":1358:1362   */\n      0x00\n        /* \"#utility.yul\":1448:1466   */\n      0xffffffffffffffff\n        /* \"#utility.yul\":1440:1446   */\n      dup3\n        /* \"#utility.yul\":1437:1467   */\n      gt\n        /* \"#utility.yul\":1434:1490   */\n      iszero\n      tag_171\n      jumpi\n        /* \"#utility.yul\":1470:1488   */\n      tag_172\n      tag_97\n      jump\t// in\n    tag_172:\n        /* \"#utility.yul\":1434:1490   */\n    tag_171:\n        /* \"#utility.yul\":1508:1537   */\n      tag_173\n        /* \"#utility.yul\":1530:1536   */\n      dup3\n        /* \"#utility.yul\":1508:1537   */\n      tag_115\n      jump\t// in\n    tag_173:\n        /* \"#utility.yul\":1500:1537   */\n      swap1\n      pop\n        /* \"#utility.yul\":1592:1596   */\n      0x20\n        /* \"#utility.yul\":1586:1590   */\n      dup2\n        /* \"#utility.yul\":1582:1597   */\n      add\n        /* \"#utility.yul\":1574:1597   */\n      swap1\n      pop\n        /* \"#utility.yul\":1296:1604   */\n      swap2\n      swap1\n      pop\n      jump\t// out\n        /* \"#utility.yul\":1610:1756   */\n    tag_119:\n        /* \"#utility.yul\":1707:1713   */\n      dup3\n        /* \"#utility.yul\":1702:1705   */\n      dup2\n        /* \"#utility.yul\":1697:1700   */\n      dup4\n        /* \"#utility.yul\":1684:1714   */\n      calldatacopy\n        /* \"#utility.yul\":1748:1749   */\n      0x00\n        /* \"#utility.yul\":1739:1745   */\n      dup4\n        /* \"#utility.yul\":1734:1737   */\n      dup4\n        /* \"#utility.yul\":1730:1746   */\n      add\n        /* \"#utility.yul\":1723:1750   */\n      mstore\n        /* \"#utility.yul\":1610:1756   */\n      pop\n      pop\n      pop\n      jump\t// out\n        /* \"#utility.yul\":1762:2187   */\n    tag_120:\n        /* \"#utility.yul\":1840:1845   */\n      0x00\n        /* \"#utility.yul\":1865:1931   */\n      tag_176\n        /* \"#utility.yul\":1881:1930   */\n      tag_177\n        /* \"#utility.yul\":1923:1929   */\n      dup5\n        /* \"#utility.yul\":1881:1930   */\n      tag_118\n      jump\t// in\n    tag_177:\n        /* \"#utility.yul\":1865:1931   */\n      tag_117\n      jump\t// in\n    tag_176:\n        /* \"#utility.yul\":1856:1931   */\n      swap1\n      pop\n        /* \"#utility.yul\":1954:1960   */\n      dup3\n        /* \"#utility.yul\":1947:1952   */\n      dup2\n        /* \"#utility.yul\":1940:1961   */\n      mstore\n        /* \"#utility.yul\":1992:1996   */\n      0x20\n        /* \"#utility.yul\":1985:1990   */\n      dup2\n        /* \"#utility.yul\":1981:1997   */\n      add\n        /* \"#utility.yul\":2030:2033   */\n      dup5\n        /* \"#utility.yul\":2021:2027   */\n      dup5\n        /* \"#utility.yul\":2016:2019   */\n      dup5\n        /* \"#utility.yul\":2012:2028   */\n      add\n        /* \"#utility.yul\":2009:2034   */\n      gt\n        /* \"#utility.yul\":2006:2118   */\n      iszero\n      tag_178\n      jumpi\n        /* \"#utility.yul\":2037:2116   */\n      tag_179\n      tag_114\n      jump\t// in\n    tag_179:\n        /* \"#utility.yul\":2006:2118   */\n    tag_178:\n        /* \"#utility.yul\":2127:2181   */\n      tag_180\n        /* \"#utility.yul\":2174:2180   */\n      dup5\n        /* \"#utility.yul\":2169:2172   */\n      dup3\n        /* \"#utility.yul\":2164:2167   */\n      dup6\n        /* \"#utility.yul\":2127:2181   */\n      tag_119\n      jump\t// in\n    tag_180:\n        /* \"#utility.yul\":1846:2187   */\n      pop\n        /* \"#utility.yul\":1762:2187   */\n      swap4\n      swap3\n      pop\n      pop\n      pop\n      jump\t// out\n        /* \"#utility.yul\":2207:2547   */\n    tag_121:\n        /* \"#utility.yul\":2263:2268   */\n      0x00\n        /* \"#utility.yul\":2312:2315   */\n      dup3\n        /* \"#utility.yul\":2305:2309   */\n      0x1f\n        /* \"#utility.yul\":2297:2303   */\n      dup4\n        /* \"#utility.yul\":2293:2310   */\n      add\n        /* \"#utility.yul\":2289:2316   */\n      slt\n        /* \"#utility.yul\":2279:2401   */\n      tag_182\n      jumpi\n        /* \"#utility.yul\":2320:2399   */\n      tag_183\n      tag_113\n      jump\t// in\n    tag_183:\n        /* \"#utility.yul\":2279:2401   */\n    tag_182:\n        /* \"#utility.yul\":2437:2443   */\n      dup2\n        /* \"#utility.yul\":2424:2444   */\n      calldataload\n        /* \"#utility.yul\":2462:2541   */\n      tag_184\n        /* \"#utility.yul\":2537:2540   */\n      dup5\n        /* \"#utility.yul\":2529:2535   */\n      dup3\n        /* \"#utility.yul\":2522:2526   */\n      0x20\n        /* \"#utility.yul\":2514:2520   */\n      dup7\n        /* \"#utility.yul\":2510:2527   */\n      add\n        /* \"#utility.yul\":2462:2541   */\n      tag_120\n      jump\t// in\n    tag_184:\n        /* \"#utility.yul\":2453:2541   */\n      swap2\n      pop\n        /* \"#utility.yul\":2269:2547   */\n      pop\n        /* \"#utility.yul\":2207:2547   */\n      swap3\n      swap2\n      pop\n      pop\n      jump\t// out\n        /* \"#utility.yul\":2553:2630   */\n    tag_122:\n        /* \"#utility.yul\":2590:2597   */\n      0x00\n        /* \"#utility.yul\":2619:2624   */\n      dup2\n        /* \"#utility.yul\":2608:2624   */\n      swap1\n      pop\n        /* \"#utility.yul\":2553:2630   */\n      swap2\n      swap1\n      pop\n      jump\t// out\n        /* \"#utility.yul\":2636:2758   */\n    tag_123:\n        /* \"#utility.yul\":2709:2733   */\n      tag_187\n        /* \"#utility.yul\":2727:2732   */\n      dup2\n        /* \"#utility.yul\":2709:2733   */\n      tag_122\n      jump\t// in\n    tag_187:\n        /* \"#utility.yul\":2702:2707   */\n      dup2\n        /* \"#utility.yul\":2699:2734   */\n      eq\n        /* \"#utility.yul\":2689:2752   */\n      tag_188\n      jumpi\n        /* \"#utility.yul\":2748:2749   */\n      0x00\n        /* \"#utility.yul\":2745:2746   */\n      dup1\n        /* \"#utility.yul\":2738:2750   */\n      revert\n        /* \"#utility.yul\":2689:2752   */\n    tag_188:\n        /* \"#utility.yul\":2636:2758   */\n      pop\n      jump\t// out\n        /* \"#utility.yul\":2764:2903   */\n    tag_124:\n        /* \"#utility.yul\":2810:2815   */\n      0x00\n        /* \"#utility.yul\":2848:2854   */\n      dup2\n        /* \"#utility.yul\":2835:2855   */\n      calldataload\n        /* \"#utility.yul\":2826:2855   */\n      swap1\n      pop\n        /* \"#utility.yul\":2864:2897   */\n      tag_190\n        /* \"#utility.yul\":2891:2896   */\n      dup2\n        /* \"#utility.yul\":2864:2897   */\n      tag_123\n      jump\t// in\n    tag_190:\n        /* \"#utility.yul\":2764:2903   */\n      swap3\n      swap2\n      pop\n      pop\n      jump\t// out\n        /* \"#utility.yul\":2909:4214   */\n    tag_10:\n        /* \"#utility.yul\":3025:3031   */\n      0x00\n        /* \"#utility.yul\":3033:3039   */\n      dup1\n        /* \"#utility.yul\":3041:3047   */\n      0x00\n        /* \"#utility.yul\":3049:3055   */\n      dup1\n        /* \"#utility.yul\":3098:3101   */\n      0x80\n        /* \"#utility.yul\":3086:3095   */\n      dup6\n        /* \"#utility.yul\":3077:3084   */\n      dup8\n        /* \"#utility.yul\":3073:3096   */\n      sub\n        /* \"#utility.yul\":3069:3102   */\n      slt\n        /* \"#utility.yul\":3066:3186   */\n      iszero\n      tag_192\n      jumpi\n        /* \"#utility.yul\":3105:3184   */\n      tag_193\n      tag_111\n      jump\t// in\n    tag_193:\n        /* \"#utility.yul\":3066:3186   */\n    tag_192:\n        /* \"#utility.yul\":3253:3254   */\n      0x00\n        /* \"#utility.yul\":3242:3251   */\n      dup6\n        /* \"#utility.yul\":3238:3255   */\n      add\n        /* \"#utility.yul\":3225:3256   */\n      calldataload\n        /* \"#utility.yul\":3283:3301   */\n      0xffffffffffffffff\n        /* \"#utility.yul\":3275:3281   */\n      dup2\n        /* \"#utility.yul\":3272:3302   */\n      gt\n        /* \"#utility.yul\":3269:3386   */\n      iszero\n      tag_194\n      jumpi\n        /* \"#utility.yul\":3305:3384   */\n      tag_195\n      tag_112\n      jump\t// in\n    tag_195:\n        /* \"#utility.yul\":3269:3386   */\n    tag_194:\n        /* \"#utility.yul\":3410:3473   */\n      tag_196\n        /* \"#utility.yul\":3465:3472   */\n      dup8\n        /* \"#utility.yul\":3456:3462   */\n      dup3\n        /* \"#utility.yul\":3445:3454   */\n      dup9\n        /* \"#utility.yul\":3441:3463   */\n      add\n        /* \"#utility.yul\":3410:3473   */\n      tag_121\n      jump\t// in\n    tag_196:\n        /* \"#utility.yul\":3400:3473   */\n      swap5\n      pop\n        /* \"#utility.yul\":3196:3483   */\n      pop\n        /* \"#utility.yul\":3550:3552   */\n      0x20\n        /* \"#utility.yul\":3539:3548   */\n      dup6\n        /* \"#utility.yul\":3535:3553   */\n      add\n        /* \"#utility.yul\":3522:3554   */\n      calldataload\n        /* \"#utility.yul\":3581:3599   */\n      0xffffffffffffffff\n        /* \"#utility.yul\":3573:3579   */\n      dup2\n        /* \"#utility.yul\":3570:3600   */\n      gt\n        /* \"#utility.yul\":3567:3684   */\n      iszero\n      tag_197\n      jumpi\n        /* \"#utility.yul\":3603:3682   */\n      tag_198\n      tag_112\n      jump\t// in\n    tag_198:\n        /* \"#utility.yul\":3567:3684   */\n    tag_197:\n        /* \"#utility.yul\":3708:3771   */\n      tag_199\n        /* \"#utility.yul\":3763:3770   */\n      dup8\n        /* \"#utility.yul\":3754:3760   */\n      dup3\n        /* \"#utility.yul\":3743:3752   */\n      dup9\n        /* \"#utility.yul\":3739:3761   */\n      add\n        /* \"#utility.yul\":3708:3771   */\n      tag_121\n      jump\t// in\n    tag_199:\n        /* \"#utility.yul\":3698:3771   */\n      swap4\n      pop\n        /* \"#utility.yul\":3493:3781   */\n      pop\n        /* \"#utility.yul\":3848:3850   */\n      0x40\n        /* \"#utility.yul\":3837:3846   */\n      dup6\n        /* \"#utility.yul\":3833:3851   */\n      add\n        /* \"#utility.yul\":3820:3852   */\n      calldataload\n        /* \"#utility.yul\":3879:3897   */\n      0xffffffffffffffff\n        /* \"#utility.yul\":3871:3877   */\n      dup2\n        /* \"#utility.yul\":3868:3898   */\n      gt\n        /* \"#utility.yul\":3865:3982   */\n      iszero\n      tag_200\n      jumpi\n        /* \"#utility.yul\":3901:3980   */\n      tag_201\n      tag_112\n      jump\t// in\n    tag_201:\n        /* \"#utility.yul\":3865:3982   */\n    tag_200:\n        /* \"#utility.yul\":4006:4069   */\n      tag_202\n        /* \"#utility.yul\":4061:4068   */\n      dup8\n        /* \"#utility.yul\":4052:4058   */\n      dup3\n        /* \"#utility.yul\":4041:4050   */\n      dup9\n        /* \"#utility.yul\":4037:4059   */\n      add\n        /* \"#utility.yul\":4006:4069   */\n      tag_121\n      jump\t// in\n    tag_202:\n        /* \"#utility.yul\":3996:4069   */\n      swap3\n      pop\n        /* \"#utility.yul\":3791:4079   */\n      pop\n        /* \"#utility.yul\":4118:4120   */\n      0x60\n        /* \"#utility.yul\":4144:4197   */\n      tag_203\n        /* \"#utility.yul\":4189:4196   */\n      dup8\n        /* \"#utility.yul\":4180:4186   */\n      dup3\n        /* \"#utility.yul\":4169:4178   */\n      dup9\n        /* \"#utility.yul\":4165:4187   */\n      add\n        /* \"#utility.yul\":4144:4197   */\n      tag_124\n      jump\t// in\n    tag_203:\n        /* \"#utility.yul\":4134:4197   */\n      swap2\n      pop\n        /* \"#utility.yul\":4089:4207   */\n      pop\n        /* \"#utility.yul\":2909:4214   */\n      swap3\n      swap6\n      swap2\n      swap5\n      pop\n      swap3\n      pop\n      jump\t// out\n        /* \"#utility.yul\":4220:4729   */\n    tag_14:\n        /* \"#utility.yul\":4289:4295   */\n      0x00\n        /* \"#utility.yul\":4338:4340   */\n      0x20\n        /* \"#utility.yul\":4326:4335   */\n      dup3\n        /* \"#utility.yul\":4317:4324   */\n      dup5\n        /* \"#utility.yul\":4313:4336   */\n      sub\n        /* \"#utility.yul\":4309:4341   */\n      slt\n        /* \"#utility.yul\":4306:4425   */\n      iszero\n      tag_205\n      jumpi\n        /* \"#utility.yul\":4344:4423   */\n      tag_206\n      tag_111\n      jump\t// in\n    tag_206:\n        /* \"#utility.yul\":4306:4425   */\n    tag_205:\n        /* \"#utility.yul\":4492:4493   */\n      0x00\n        /* \"#utility.yul\":4481:4490   */\n      dup3\n        /* \"#utility.yul\":4477:4494   */\n      add\n        /* \"#utility.yul\":4464:4495   */\n      calldataload\n        /* \"#utility.yul\":4522:4540   */\n      0xffffffffffffffff\n        /* \"#utility.yul\":4514:4520   */\n      dup2\n        /* \"#utility.yul\":4511:4541   */\n      gt\n        /* \"#utility.yul\":4508:4625   */\n      iszero\n      tag_207\n      jumpi\n        /* \"#utility.yul\":4544:4623   */\n      tag_208\n      tag_112\n      jump\t// in\n    tag_208:\n        /* \"#utility.yul\":4508:4625   */\n    tag_207:\n        /* \"#utility.yul\":4649:4712   */\n      tag_209\n        /* \"#utility.yul\":4704:4711   */\n      dup5\n        /* \"#utility.yul\":4695:4701   */\n      dup3\n        /* \"#utility.yul\":4684:4693   */\n      dup6\n        /* \"#utility.yul\":4680:4702   */\n      add\n        /* \"#utility.yul\":4649:4712   */\n      tag_121\n      jump\t// in\n    tag_209:\n        /* \"#utility.yul\":4639:4712   */\n      swap2\n      pop\n        /* \"#utility.yul\":4435:4722   */\n      pop\n        /* \"#utility.yul\":4220:4729   */\n      swap3\n      swap2\n      pop\n      pop\n      jump\t// out\n        /* \"#utility.yul\":4735:4834   */\n    tag_125:\n        /* \"#utility.yul\":4787:4793   */\n      0x00\n        /* \"#utility.yul\":4821:4826   */\n      dup2\n        /* \"#utility.yul\":4815:4827   */\n      mload\n        /* \"#utility.yul\":4805:4827   */\n      swap1\n      pop\n        /* \"#utility.yul\":4735:4834   */\n      swap2\n      swap1\n      pop\n      jump\t// out\n        /* \"#utility.yul\":4840:5009   */\n    tag_126:\n        /* \"#utility.yul\":4924:4935   */\n      0x00\n        /* \"#utility.yul\":4958:4964   */\n      dup3\n        /* \"#utility.yul\":4953:4956   */\n      dup3\n        /* \"#utility.yul\":4946:4965   */\n      mstore\n        /* \"#utility.yul\":4998:5002   */\n      0x20\n        /* \"#utility.yul\":4993:4996   */\n      dup3\n        /* \"#utility.yul\":4989:5003   */\n      add\n        /* \"#utility.yul\":4974:5003   */\n      swap1\n      pop\n        /* \"#utility.yul\":4840:5009   */\n      swap3\n      swap2\n      pop\n      pop\n      jump\t// out\n        /* \"#utility.yul\":5015:5261   */\n    tag_127:\n        /* \"#utility.yul\":5096:5097   */\n      0x00\n        /* \"#utility.yul\":5106:5219   */\n    tag_213:\n        /* \"#utility.yul\":5120:5126   */\n      dup4\n        /* \"#utility.yul\":5117:5118   */\n      dup2\n        /* \"#utility.yul\":5114:5127   */\n      lt\n        /* \"#utility.yul\":5106:5219   */\n      iszero\n      tag_215\n      jumpi\n        /* \"#utility.yul\":5205:5206   */\n      dup1\n        /* \"#utility.yul\":5200:5203   */\n      dup3\n        /* \"#utility.yul\":5196:5207   */\n      add\n        /* \"#utility.yul\":5190:5208   */\n      mload\n        /* \"#utility.yul\":5186:5187   */\n      dup2\n        /* \"#utility.yul\":5181:5184   */\n      dup5\n        /* \"#utility.yul\":5177:5188   */\n      add\n        /* \"#utility.yul\":5170:5209   */\n      mstore\n        /* \"#utility.yul\":5142:5144   */\n      0x20\n        /* \"#utility.yul\":5139:5140   */\n      dup2\n        /* \"#utility.yul\":5135:5145   */\n      add\n        /* \"#utility.yul\":5130:5145   */\n      swap1\n      pop\n        /* \"#utility.yul\":5106:5219   */\n      jump(tag_213)\n    tag_215:\n        /* \"#utility.yul\":5253:5254   */\n      0x00\n        /* \"#utility.yul\":5244:5250   */\n      dup5\n        /* \"#utility.yul\":5239:5242   */\n      dup5\n        /* \"#utility.yul\":5235:5251   */\n      add\n        /* \"#utility.yul\":5228:5255   */\n      mstore\n        /* \"#utility.yul\":5077:5261   */\n      pop\n        /* \"#utility.yul\":5015:5261   */\n      pop\n      pop\n      pop\n      jump\t// out\n        /* \"#utility.yul\":5267:5644   */\n    tag_128:\n        /* \"#utility.yul\":5355:5358   */\n      0x00\n        /* \"#utility.yul\":5383:5422   */\n      tag_217\n        /* \"#utility.yul\":5416:5421   */\n      dup3\n        /* \"#utility.yul\":5383:5422   */\n      tag_125\n      jump\t// in\n    tag_217:\n        /* \"#utility.yul\":5438:5509   */\n      tag_218\n        /* \"#utility.yul\":5502:5508   */\n      dup2\n        /* \"#utility.yul\":5497:5500   */\n      dup6\n        /* \"#utility.yul\":5438:5509   */\n      tag_126\n      jump\t// in\n    tag_218:\n        /* \"#utility.yul\":5431:5509   */\n      swap4\n      pop\n        /* \"#utility.yul\":5518:5583   */\n      tag_219\n        /* \"#utility.yul\":5576:5582   */\n      dup2\n        /* \"#utility.yul\":5571:5574   */\n      dup6\n        /* \"#utility.yul\":5564:5568   */\n      0x20\n        /* \"#utility.yul\":5557:5562   */\n      dup7\n        /* \"#utility.yul\":5553:5569   */\n      add\n        /* \"#utility.yul\":5518:5583   */\n      tag_127\n      jump\t// in\n    tag_219:\n        /* \"#utility.yul\":5608:5637   */\n      tag_220\n        /* \"#utility.yul\":5630:5636   */\n      dup2\n        /* \"#utility.yul\":5608:5637   */\n      tag_115\n      jump\t// in\n    tag_220:\n        /* \"#utility.yul\":5603:5606   */\n      dup5\n        /* \"#utility.yul\":5599:5638   */\n      add\n        /* \"#utility.yul\":5592:5638   */\n      swap2\n      pop\n        /* \"#utility.yul\":5359:5644   */\n      pop\n        /* \"#utility.yul\":5267:5644   */\n      swap3\n      swap2\n      pop\n      pop\n      jump\t// out\n        /* \"#utility.yul\":5650:6164   */\n    tag_17:\n        /* \"#utility.yul\":5811:5815   */\n      0x00\n        /* \"#utility.yul\":5849:5851   */\n      0x40\n        /* \"#utility.yul\":5838:5847   */\n      dup3\n        /* \"#utility.yul\":5834:5852   */\n      add\n        /* \"#utility.yul\":5826:5852   */\n      swap1\n      pop\n        /* \"#utility.yul\":5898:5907   */\n      dup2\n        /* \"#utility.yul\":5892:5896   */\n      dup2\n        /* \"#utility.yul\":5888:5908   */\n      sub\n        /* \"#utility.yul\":5884:5885   */\n      0x00\n        /* \"#utility.yul\":5873:5882   */\n      dup4\n        /* \"#utility.yul\":5869:5886   */\n      add\n        /* \"#utility.yul\":5862:5909   */\n      mstore\n        /* \"#utility.yul\":5926:6004   */\n      tag_222\n        /* \"#utility.yul\":5999:6003   */\n      dup2\n        /* \"#utility.yul\":5990:5996   */\n      dup6\n        /* \"#utility.yul\":5926:6004   */\n      tag_128\n      jump\t// in\n    tag_222:\n        /* \"#utility.yul\":5918:6004   */\n      swap1\n      pop\n        /* \"#utility.yul\":6051:6060   */\n      dup2\n        /* \"#utility.yul\":6045:6049   */\n      dup2\n        /* \"#utility.yul\":6041:6061   */\n      sub\n        /* \"#utility.yul\":6036:6038   */\n      0x20\n        /* \"#utility.yul\":6025:6034   */\n      dup4\n        /* \"#utility.yul\":6021:6039   */\n      add\n        /* \"#utility.yul\":6014:6062   */\n      mstore\n        /* \"#utility.yul\":6079:6157   */\n      tag_223\n        /* \"#utility.yul\":6152:6156   */\n      dup2\n        /* \"#utility.yul\":6143:6149   */\n      dup5\n        /* \"#utility.yul\":6079:6157   */\n      tag_128\n      jump\t// in\n    tag_223:\n        /* \"#utility.yul\":6071:6157   */\n      swap1\n      pop\n        /* \"#utility.yul\":5650:6164   */\n      swap4\n      swap3\n      pop\n      pop\n      pop\n      jump\t// out\n        /* \"#utility.yul\":6170:6491   */\n    tag_129:\n        /* \"#utility.yul\":6257:6261   */\n      0x00\n        /* \"#utility.yul\":6347:6365   */\n      0xffffffffffffffff\n        /* \"#utility.yul\":6339:6345   */\n      dup3\n        /* \"#utility.yul\":6336:6366   */\n      gt\n        /* \"#utility.yul\":6333:6389   */\n      iszero\n      tag_225\n      jumpi\n        /* \"#utility.yul\":6369:6387   */\n      tag_226\n      tag_97\n      jump\t// in\n    tag_226:\n        /* \"#utility.yul\":6333:6389   */\n    tag_225:\n        /* \"#utility.yul\":6419:6423   */\n      0x20\n        /* \"#utility.yul\":6411:6417   */\n      dup3\n        /* \"#utility.yul\":6407:6424   */\n      mul\n        /* \"#utility.yul\":6399:6424   */\n      swap1\n      pop\n        /* \"#utility.yul\":6479:6483   */\n      0x20\n        /* \"#utility.yul\":6473:6477   */\n      dup2\n        /* \"#utility.yul\":6469:6484   */\n      add\n        /* \"#utility.yul\":6461:6484   */\n      swap1\n      pop\n        /* \"#utility.yul\":6170:6491   */\n      swap2\n      swap1\n      pop\n      jump\t// out\n        /* \"#utility.yul\":6497:6614   */\n    tag_130:\n        /* \"#utility.yul\":6606:6607   */\n      0x00\n        /* \"#utility.yul\":6603:6604   */\n      dup1\n        /* \"#utility.yul\":6596:6608   */\n      revert\n        /* \"#utility.yul\":6636:7581   */\n    tag_131:\n        /* \"#utility.yul\":6742:6747   */\n      0x00\n        /* \"#utility.yul\":6767:6858   */\n      tag_229\n        /* \"#utility.yul\":6783:6857   */\n      tag_230\n        /* \"#utility.yul\":6850:6856   */\n      dup5\n        /* \"#utility.yul\":6783:6857   */\n      tag_129\n      jump\t// in\n    tag_230:\n        /* \"#utility.yul\":6767:6858   */\n      tag_117\n      jump\t// in\n    tag_229:\n        /* \"#utility.yul\":6758:6858   */\n      swap1\n      pop\n        /* \"#utility.yul\":6878:6883   */\n      dup1\n        /* \"#utility.yul\":6907:6913   */\n      dup4\n        /* \"#utility.yul\":6900:6905   */\n      dup3\n        /* \"#utility.yul\":6893:6914   */\n      mstore\n        /* \"#utility.yul\":6941:6945   */\n      0x20\n        /* \"#utility.yul\":6934:6939   */\n      dup3\n        /* \"#utility.yul\":6930:6946   */\n      add\n        /* \"#utility.yul\":6923:6946   */\n      swap1\n      pop\n        /* \"#utility.yul\":6994:6998   */\n      0x20\n        /* \"#utility.yul\":6986:6992   */\n      dup5\n        /* \"#utility.yul\":6982:6999   */\n      mul\n        /* \"#utility.yul\":6974:6980   */\n      dup4\n        /* \"#utility.yul\":6970:7000   */\n      add\n        /* \"#utility.yul\":7023:7026   */\n      dup6\n        /* \"#utility.yul\":7015:7021   */\n      dup2\n        /* \"#utility.yul\":7012:7027   */\n      gt\n        /* \"#utility.yul\":7009:7131   */\n      iszero\n      tag_231\n      jumpi\n        /* \"#utility.yul\":7042:7121   */\n      tag_232\n      tag_130\n      jump\t// in\n    tag_232:\n        /* \"#utility.yul\":7009:7131   */\n    tag_231:\n        /* \"#utility.yul\":7157:7163   */\n      dup4\n        /* \"#utility.yul\":7140:7575   */\n    tag_233:\n        /* \"#utility.yul\":7174:7180   */\n      dup2\n        /* \"#utility.yul\":7169:7172   */\n      dup2\n        /* \"#utility.yul\":7166:7181   */\n      lt\n        /* \"#utility.yul\":7140:7575   */\n      iszero\n      tag_235\n      jumpi\n        /* \"#utility.yul\":7263:7266   */\n      dup1\n        /* \"#utility.yul\":7250:7267   */\n      calldataload\n        /* \"#utility.yul\":7299:7317   */\n      0xffffffffffffffff\n        /* \"#utility.yul\":7286:7297   */\n      dup2\n        /* \"#utility.yul\":7283:7318   */\n      gt\n        /* \"#utility.yul\":7280:7402   */\n      iszero\n      tag_236\n      jumpi\n        /* \"#utility.yul\":7321:7400   */\n      tag_237\n      tag_113\n      jump\t// in\n    tag_237:\n        /* \"#utility.yul\":7280:7402   */\n    tag_236:\n        /* \"#utility.yul\":7445:7456   */\n      dup1\n        /* \"#utility.yul\":7437:7443   */\n      dup7\n        /* \"#utility.yul\":7433:7457   */\n      add\n        /* \"#utility.yul\":7483:7530   */\n      tag_238\n        /* \"#utility.yul\":7526:7529   */\n      dup10\n        /* \"#utility.yul\":7514:7524   */\n      dup3\n        /* \"#utility.yul\":7483:7530   */\n      tag_121\n      jump\t// in\n    tag_238:\n        /* \"#utility.yul\":7478:7481   */\n      dup6\n        /* \"#utility.yul\":7471:7531   */\n      mstore\n        /* \"#utility.yul\":7560:7564   */\n      0x20\n        /* \"#utility.yul\":7555:7558   */\n      dup6\n        /* \"#utility.yul\":7551:7565   */\n      add\n        /* \"#utility.yul\":7544:7565   */\n      swap5\n      pop\n        /* \"#utility.yul\":7216:7575   */\n      pop\n      pop\n        /* \"#utility.yul\":7200:7204   */\n      0x20\n        /* \"#utility.yul\":7195:7198   */\n      dup2\n        /* \"#utility.yul\":7191:7205   */\n      add\n        /* \"#utility.yul\":7184:7205   */\n      swap1\n      pop\n        /* \"#utility.yul\":7140:7575   */\n      jump(tag_233)\n    tag_235:\n        /* \"#utility.yul\":7144:7165   */\n      pop\n        /* \"#utility.yul\":6748:7581   */\n      pop\n      pop\n        /* \"#utility.yul\":6636:7581   */\n      swap4\n      swap3\n      pop\n      pop\n      pop\n      jump\t// out\n        /* \"#utility.yul\":7603:7993   */\n    tag_132:\n        /* \"#utility.yul\":7684:7689   */\n      0x00\n        /* \"#utility.yul\":7733:7736   */\n      dup3\n        /* \"#utility.yul\":7726:7730   */\n      0x1f\n        /* \"#utility.yul\":7718:7724   */\n      dup4\n        /* \"#utility.yul\":7714:7731   */\n      add\n        /* \"#utility.yul\":7710:7737   */\n      slt\n        /* \"#utility.yul\":7700:7822   */\n      tag_240\n      jumpi\n        /* \"#utility.yul\":7741:7820   */\n      tag_241\n      tag_113\n      jump\t// in\n    tag_241:\n        /* \"#utility.yul\":7700:7822   */\n    tag_240:\n        /* \"#utility.yul\":7858:7864   */\n      dup2\n        /* \"#utility.yul\":7845:7865   */\n      calldataload\n        /* \"#utility.yul\":7883:7987   */\n      tag_242\n        /* \"#utility.yul\":7983:7986   */\n      dup5\n        /* \"#utility.yul\":7975:7981   */\n      dup3\n        /* \"#utility.yul\":7968:7972   */\n      0x20\n        /* \"#utility.yul\":7960:7966   */\n      dup7\n        /* \"#utility.yul\":7956:7973   */\n      add\n        /* \"#utility.yul\":7883:7987   */\n      tag_131\n      jump\t// in\n    tag_242:\n        /* \"#utility.yul\":7874:7987   */\n      swap2\n      pop\n        /* \"#utility.yul\":7690:7993   */\n      pop\n        /* \"#utility.yul\":7603:7993   */\n      swap3\n      swap2\n      pop\n      pop\n      jump\t// out\n        /* \"#utility.yul\":7999:9308   */\n    tag_24:\n        /* \"#utility.yul\":8181:8187   */\n      0x00\n        /* \"#utility.yul\":8189:8195   */\n      dup1\n        /* \"#utility.yul\":8197:8203   */\n      0x00\n        /* \"#utility.yul\":8246:8248   */\n      0x60\n        /* \"#utility.yul\":8234:8243   */\n      dup5\n        /* \"#utility.yul\":8225:8232   */\n      dup7\n        /* \"#utility.yul\":8221:8244   */\n      sub\n        /* \"#utility.yul\":8217:8249   */\n      slt\n        /* \"#utility.yul\":8214:8333   */\n      iszero\n      tag_244\n      jumpi\n        /* \"#utility.yul\":8252:8331   */\n      tag_245\n      tag_111\n      jump\t// in\n    tag_245:\n        /* \"#utility.yul\":8214:8333   */\n    tag_244:\n        /* \"#utility.yul\":8400:8401   */\n      0x00\n        /* \"#utility.yul\":8389:8398   */\n      dup5\n        /* \"#utility.yul\":8385:8402   */\n      add\n        /* \"#utility.yul\":8372:8403   */\n      calldataload\n        /* \"#utility.yul\":8430:8448   */\n      0xffffffffffffffff\n        /* \"#utility.yul\":8422:8428   */\n      dup2\n        /* \"#utility.yul\":8419:8449   */\n      gt\n        /* \"#utility.yul\":8416:8533   */\n      iszero\n      tag_246\n      jumpi\n        /* \"#utility.yul\":8452:8531   */\n      tag_247\n      tag_112\n      jump\t// in\n    tag_247:\n        /* \"#utility.yul\":8416:8533   */\n    tag_246:\n        /* \"#utility.yul\":8557:8645   */\n      tag_248\n        /* \"#utility.yul\":8637:8644   */\n      dup7\n        /* \"#utility.yul\":8628:8634   */\n      dup3\n        /* \"#utility.yul\":8617:8626   */\n      dup8\n        /* \"#utility.yul\":8613:8635   */\n      add\n        /* \"#utility.yul\":8557:8645   */\n      tag_132\n      jump\t// in\n    tag_248:\n        /* \"#utility.yul\":8547:8645   */\n      swap4\n      pop\n        /* \"#utility.yul\":8343:8655   */\n      pop\n        /* \"#utility.yul\":8722:8724   */\n      0x20\n        /* \"#utility.yul\":8711:8720   */\n      dup5\n        /* \"#utility.yul\":8707:8725   */\n      add\n        /* \"#utility.yul\":8694:8726   */\n      calldataload\n        /* \"#utility.yul\":8753:8771   */\n      0xffffffffffffffff\n        /* \"#utility.yul\":8745:8751   */\n      dup2\n        /* \"#utility.yul\":8742:8772   */\n      gt\n        /* \"#utility.yul\":8739:8856   */\n      iszero\n      tag_249\n      jumpi\n        /* \"#utility.yul\":8775:8854   */\n      tag_250\n      tag_112\n      jump\t// in\n    tag_250:\n        /* \"#utility.yul\":8739:8856   */\n    tag_249:\n        /* \"#utility.yul\":8880:8968   */\n      tag_251\n        /* \"#utility.yul\":8960:8967   */\n      dup7\n        /* \"#utility.yul\":8951:8957   */\n      dup3\n        /* \"#utility.yul\":8940:8949   */\n      dup8\n        /* \"#utility.yul\":8936:8958   */\n      add\n        /* \"#utility.yul\":8880:8968   */\n      tag_132\n      jump\t// in\n    tag_251:\n        /* \"#utility.yul\":8870:8968   */\n      swap3\n      pop\n        /* \"#utility.yul\":8665:8978   */\n      pop\n        /* \"#utility.yul\":9045:9047   */\n      0x40\n        /* \"#utility.yul\":9034:9043   */\n      dup5\n        /* \"#utility.yul\":9030:9048   */\n      add\n        /* \"#utility.yul\":9017:9049   */\n      calldataload\n        /* \"#utility.yul\":9076:9094   */\n      0xffffffffffffffff\n        /* \"#utility.yul\":9068:9074   */\n      dup2\n        /* \"#utility.yul\":9065:9095   */\n      gt\n        /* \"#utility.yul\":9062:9179   */\n      iszero\n      tag_252\n      jumpi\n        /* \"#utility.yul\":9098:9177   */\n      tag_253\n      tag_112\n      jump\t// in\n    tag_253:\n        /* \"#utility.yul\":9062:9179   */\n    tag_252:\n        /* \"#utility.yul\":9203:9291   */\n      tag_254\n        /* \"#utility.yul\":9283:9290   */\n      dup7\n        /* \"#utility.yul\":9274:9280   */\n      dup3\n        /* \"#utility.yul\":9263:9272   */\n      dup8\n        /* \"#utility.yul\":9259:9281   */\n      add\n        /* \"#utility.yul\":9203:9291   */\n      tag_132\n      jump\t// in\n    tag_254:\n        /* \"#utility.yul\":9193:9291   */\n      swap2\n      pop\n        /* \"#utility.yul\":8988:9301   */\n      pop\n        /* \"#utility.yul\":7999:9308   */\n      swap3\n      pop\n      swap3\n      pop\n      swap3\n      jump\t// out\n        /* \"#utility.yul\":9314:10473   */\n    tag_28:\n        /* \"#utility.yul\":9421:9427   */\n      0x00\n        /* \"#utility.yul\":9429:9435   */\n      dup1\n        /* \"#utility.yul\":9437:9443   */\n      0x00\n        /* \"#utility.yul\":9486:9488   */\n      0x60\n        /* \"#utility.yul\":9474:9483   */\n      dup5\n        /* \"#utility.yul\":9465:9472   */\n      dup7\n        /* \"#utility.yul\":9461:9484   */\n      sub\n        /* \"#utility.yul\":9457:9489   */\n      slt\n        /* \"#utility.yul\":9454:9573   */\n      iszero\n      tag_256\n      jumpi\n        /* \"#utility.yul\":9492:9571   */\n      tag_257\n      tag_111\n      jump\t// in\n    tag_257:\n        /* \"#utility.yul\":9454:9573   */\n    tag_256:\n        /* \"#utility.yul\":9640:9641   */\n      0x00\n        /* \"#utility.yul\":9629:9638   */\n      dup5\n        /* \"#utility.yul\":9625:9642   */\n      add\n        /* \"#utility.yul\":9612:9643   */\n      calldataload\n        /* \"#utility.yul\":9670:9688   */\n      0xffffffffffffffff\n        /* \"#utility.yul\":9662:9668   */\n      dup2\n        /* \"#utility.yul\":9659:9689   */\n      gt\n        /* \"#utility.yul\":9656:9773   */\n      iszero\n      tag_258\n      jumpi\n        /* \"#utility.yul\":9692:9771   */\n      tag_259\n      tag_112\n      jump\t// in\n    tag_259:\n        /* \"#utility.yul\":9656:9773   */\n    tag_258:\n        /* \"#utility.yul\":9797:9860   */\n      tag_260\n        /* \"#utility.yul\":9852:9859   */\n      dup7\n        /* \"#utility.yul\":9843:9849   */\n      dup3\n        /* \"#utility.yul\":9832:9841   */\n      dup8\n        /* \"#utility.yul\":9828:9850   */\n      add\n        /* \"#utility.yul\":9797:9860   */\n      tag_121\n      jump\t// in\n    tag_260:\n        /* \"#utility.yul\":9787:9860   */\n      swap4\n      pop\n        /* \"#utility.yul\":9583:9870   */\n      pop\n        /* \"#utility.yul\":9937:9939   */\n      0x20\n        /* \"#utility.yul\":9926:9935   */\n      dup5\n        /* \"#utility.yul\":9922:9940   */\n      add\n        /* \"#utility.yul\":9909:9941   */\n      calldataload\n        /* \"#utility.yul\":9968:9986   */\n      0xffffffffffffffff\n        /* \"#utility.yul\":9960:9966   */\n      dup2\n        /* \"#utility.yul\":9957:9987   */\n      gt\n        /* \"#utility.yul\":9954:10071   */\n      iszero\n      tag_261\n      jumpi\n        /* \"#utility.yul\":9990:10069   */\n      tag_262\n      tag_112\n      jump\t// in\n    tag_262:\n        /* \"#utility.yul\":9954:10071   */\n    tag_261:\n        /* \"#utility.yul\":10095:10158   */\n      tag_263\n        /* \"#utility.yul\":10150:10157   */\n      dup7\n        /* \"#utility.yul\":10141:10147   */\n      dup3\n        /* \"#utility.yul\":10130:10139   */\n      dup8\n        /* \"#utility.yul\":10126:10148   */\n      add\n        /* \"#utility.yul\":10095:10158   */\n      tag_121\n      jump\t// in\n    tag_263:\n        /* \"#utility.yul\":10085:10158   */\n      swap3\n      pop\n        /* \"#utility.yul\":9880:10168   */\n      pop\n        /* \"#utility.yul\":10235:10237   */\n      0x40\n        /* \"#utility.yul\":10224:10233   */\n      dup5\n        /* \"#utility.yul\":10220:10238   */\n      add\n        /* \"#utility.yul\":10207:10239   */\n      calldataload\n        /* \"#utility.yul\":10266:10284   */\n      0xffffffffffffffff\n        /* \"#utility.yul\":10258:10264   */\n      dup2\n        /* \"#utility.yul\":10255:10285   */\n      gt\n        /* \"#utility.yul\":10252:10369   */\n      iszero\n      tag_264\n      jumpi\n        /* \"#utility.yul\":10288:10367   */\n      tag_265\n      tag_112\n      jump\t// in\n    tag_265:\n        /* \"#utility.yul\":10252:10369   */\n    tag_264:\n        /* \"#utility.yul\":10393:10456   */\n      tag_266\n        /* \"#utility.yul\":10448:10455   */\n      dup7\n        /* \"#utility.yul\":10439:10445   */\n      dup3\n        /* \"#utility.yul\":10428:10437   */\n      dup8\n        /* \"#utility.yul\":10424:10446   */\n      add\n        /* \"#utility.yul\":10393:10456   */\n      tag_121\n      jump\t// in\n    tag_266:\n        /* \"#utility.yul\":10383:10456   */\n      swap2\n      pop\n        /* \"#utility.yul\":10178:10466   */\n      pop\n        /* \"#utility.yul\":9314:10473   */\n      swap3\n      pop\n      swap3\n      pop\n      swap3\n      jump\t// out\n        /* \"#utility.yul\":10479:10627   */\n    tag_133:\n        /* \"#utility.yul\":10581:10592   */\n      0x00\n        /* \"#utility.yul\":10618:10621   */\n      dup2\n        /* \"#utility.yul\":10603:10621   */\n      swap1\n      pop\n        /* \"#utility.yul\":10479:10627   */\n      swap3\n      swap2\n      pop\n      pop\n      jump\t// out\n        /* \"#utility.yul\":10633:11023   */\n    tag_134:\n        /* \"#utility.yul\":10739:10742   */\n      0x00\n        /* \"#utility.yul\":10767:10806   */\n      tag_269\n        /* \"#utility.yul\":10800:10805   */\n      dup3\n        /* \"#utility.yul\":10767:10806   */\n      tag_125\n      jump\t// in\n    tag_269:\n        /* \"#utility.yul\":10822:10911   */\n      tag_270\n        /* \"#utility.yul\":10904:10910   */\n      dup2\n        /* \"#utility.yul\":10899:10902   */\n      dup6\n        /* \"#utility.yul\":10822:10911   */\n      tag_133\n      jump\t// in\n    tag_270:\n        /* \"#utility.yul\":10815:10911   */\n      swap4\n      pop\n        /* \"#utility.yul\":10920:10985   */\n      tag_271\n        /* \"#utility.yul\":10978:10984   */\n      dup2\n        /* \"#utility.yul\":10973:10976   */\n      dup6\n        /* \"#utility.yul\":10966:10970   */\n      0x20\n        /* \"#utility.yul\":10959:10964   */\n      dup7\n        /* \"#utility.yul\":10955:10971   */\n      add\n        /* \"#utility.yul\":10920:10985   */\n      tag_127\n      jump\t// in\n    tag_271:\n        /* \"#utility.yul\":11010:11016   */\n      dup1\n        /* \"#utility.yul\":11005:11008   */\n      dup5\n        /* \"#utility.yul\":11001:11017   */\n      add\n        /* \"#utility.yul\":10994:11017   */\n      swap2\n      pop\n        /* \"#utility.yul\":10743:11023   */\n      pop\n        /* \"#utility.yul\":10633:11023   */\n      swap3\n      swap2\n      pop\n      pop\n      jump\t// out\n        /* \"#utility.yul\":11029:11464   */\n    tag_37:\n        /* \"#utility.yul\":11209:11212   */\n      0x00\n        /* \"#utility.yul\":11231:11326   */\n      tag_273\n        /* \"#utility.yul\":11322:11325   */\n      dup3\n        /* \"#utility.yul\":11313:11319   */\n      dup6\n        /* \"#utility.yul\":11231:11326   */\n      tag_134\n      jump\t// in\n    tag_273:\n        /* \"#utility.yul\":11224:11326   */\n      swap2\n      pop\n        /* \"#utility.yul\":11343:11438   */\n      tag_274\n        /* \"#utility.yul\":11434:11437   */\n      dup3\n        /* \"#utility.yul\":11425:11431   */\n      dup5\n        /* \"#utility.yul\":11343:11438   */\n      tag_134\n      jump\t// in\n    tag_274:\n        /* \"#utility.yul\":11336:11438   */\n      swap2\n      pop\n        /* \"#utility.yul\":11455:11458   */\n      dup2\n        /* \"#utility.yul\":11448:11458   */\n      swap1\n      pop\n        /* \"#utility.yul\":11029:11464   */\n      swap4\n      swap3\n      pop\n      pop\n      pop\n      jump\t// out\n        /* \"#utility.yul\":11470:11650   */\n    tag_135:\n        /* \"#utility.yul\":11518:11595   */\n      0x4e487b7100000000000000000000000000000000000000000000000000000000\n        /* \"#utility.yul\":11515:11516   */\n      0x00\n        /* \"#utility.yul\":11508:11596   */\n      mstore\n        /* \"#utility.yul\":11615:11619   */\n      0x11\n        /* \"#utility.yul\":11612:11613   */\n      0x04\n        /* \"#utility.yul\":11605:11620   */\n      mstore\n        /* \"#utility.yul\":11639:11643   */\n      0x24\n        /* \"#utility.yul\":11636:11637   */\n      0x00\n        /* \"#utility.yul\":11629:11644   */\n      revert\n        /* \"#utility.yul\":11656:11889   */\n    tag_40:\n        /* \"#utility.yul\":11695:11698   */\n      0x00\n        /* \"#utility.yul\":11718:11742   */\n      tag_277\n        /* \"#utility.yul\":11736:11741   */\n      dup3\n        /* \"#utility.yul\":11718:11742   */\n      tag_122\n      jump\t// in\n    tag_277:\n        /* \"#utility.yul\":11709:11742   */\n      swap2\n      pop\n        /* \"#utility.yul\":11764:11830   */\n      0xffffffffffffffffffffffffffffffffffffffffffffffffffffffffffffffff\n        /* \"#utility.yul\":11757:11762   */\n      dup3\n        /* \"#utility.yul\":11754:11831   */\n      sub\n        /* \"#utility.yul\":11751:11854   */\n      tag_278\n      jumpi\n        /* \"#utility.yul\":11834:11852   */\n      tag_279\n      tag_135\n      jump\t// in\n    tag_279:\n        /* \"#utility.yul\":11751:11854   */\n    tag_278:\n        /* \"#utility.yul\":11881:11882   */\n      0x01\n        /* \"#utility.yul\":11874:11879   */\n      dup3\n        /* \"#utility.yul\":11870:11883   */\n      add\n        /* \"#utility.yul\":11863:11883   */\n      swap1\n      pop\n        /* \"#utility.yul\":11656:11889   */\n      swap2\n      swap1\n      pop\n      jump\t// out\n        /* \"#utility.yul\":11895:12170   */\n    tag_43:\n        /* \"#utility.yul\":12027:12030   */\n      0x00\n        /* \"#utility.yul\":12049:12144   */\n      tag_281\n        /* \"#utility.yul\":12140:12143   */\n      dup3\n        /* \"#utility.yul\":12131:12137   */\n      dup5\n        /* \"#utility.yul\":12049:12144   */\n      tag_134\n      jump\t// in\n    tag_281:\n        /* \"#utility.yul\":12042:12144   */\n      swap2\n      pop\n        /* \"#utility.yul\":12161:12164   */\n      dup2\n        /* \"#utility.yul\":12154:12164   */\n      swap1\n      pop\n        /* \"#utility.yul\":11895:12170   */\n      swap3\n      swap2\n      pop\n      pop\n      jump\t// out\n        /* \"#utility.yul\":12176:12356   */\n    tag_136:\n        /* \"#utility.yul\":12224:12301   */\n      0x4e487b7100000000000000000000000000000000000000000000000000000000\n        /* \"#utility.yul\":12221:12222   */\n      0x00\n        /* \"#utility.yul\":12214:12302   */\n      mstore\n        /* \"#utility.yul\":12321:12325   */\n      0x22\n        /* \"#utility.yul\":12318:12319   */\n      0x04\n        /* \"#utility.yul\":12311:12326   */\n      mstore\n        /* \"#utility.yul\":12345:12349   */\n      0x24\n        /* \"#utility.yul\":12342:12343   */\n      0x00\n        /* \"#utility.yul\":12335:12350   */\n      revert\n        /* \"#utility.yul\":12362:12682   */\n    tag_45:\n        /* \"#utility.yul\":12406:12412   */\n      0x00\n        /* \"#utility.yul\":12443:12444   */\n      0x02\n        /* \"#utility.yul\":12437:12441   */\n      dup3\n        /* \"#utility.yul\":12433:12445   */\n      div\n        /* \"#utility.yul\":12423:12445   */\n      swap1\n      pop\n        /* \"#utility.yul\":12490:12491   */\n      0x01\n        /* \"#utility.yul\":12484:12488   */\n      dup3\n        /* \"#utility.yul\":12480:12492   */\n      and\n        /* \"#utility.yul\":12511:12529   */\n      dup1\n        /* \"#utility.yul\":12501:12582   */\n      tag_284\n      jumpi\n        /* \"#utility.yul\":12567:12571   */\n      0x7f\n        /* \"#utility.yul\":12559:12565   */\n      dup3\n        /* \"#utility.yul\":12555:12572   */\n      and\n        /* \"#utility.yul\":12545:12572   */\n      swap2\n      pop\n        /* \"#utility.yul\":12501:12582   */\n    tag_284:\n        /* \"#utility.yul\":12629:12631   */\n      0x20\n        /* \"#utility.yul\":12621:12627   */\n      dup3\n        /* \"#utility.yul\":12618:12632   */\n      lt\n        /* \"#utility.yul\":12598:12616   */\n      dup2\n        /* \"#utility.yul\":12595:12633   */\n      sub\n        /* \"#utility.yul\":12592:12676   */\n      tag_285\n      jumpi\n        /* \"#utility.yul\":12648:12666   */\n      tag_286\n      tag_136\n      jump\t// in\n    tag_286:\n        /* \"#utility.yul\":12592:12676   */\n    tag_285:\n        /* \"#utility.yul\":12413:12682   */\n      pop\n        /* \"#utility.yul\":12362:12682   */\n      swap2\n      swap1\n      pop\n      jump\t// out\n        /* \"#utility.yul\":12688:12860   */\n    tag_137:\n        /* \"#utility.yul\":12828:12852   */\n      0x417272617973206c656e677468206d69736d6174636800000000000000000000\n        /* \"#utility.yul\":12824:12825   */\n      0x00\n        /* \"#utility.yul\":12816:12822   */\n      dup3\n        /* \"#utility.yul\":12812:12826   */\n      add\n        /* \"#utility.yul\":12805:12853   */\n      mstore\n        /* \"#utility.yul\":12688:12860   */\n      pop\n      jump\t// out\n        /* \"#utility.yul\":12866:13232   */\n    tag_138:\n        /* \"#utility.yul\":13008:13011   */\n      0x00\n        /* \"#utility.yul\":13029:13096   */\n      tag_289\n        /* \"#utility.yul\":13093:13095   */\n      0x16\n        /* \"#utility.yul\":13088:13091   */\n      dup4\n        /* \"#utility.yul\":13029:13096   */\n      tag_126\n      jump\t// in\n    tag_289:\n        /* \"#utility.yul\":13022:13096   */\n      swap2\n      pop\n        /* \"#utility.yul\":13105:13198   */\n      tag_290\n        /* \"#utility.yul\":13194:13197   */\n      dup3\n        /* \"#utility.yul\":13105:13198   */\n      tag_137\n      jump\t// in\n    tag_290:\n        /* \"#utility.yul\":13223:13225   */\n      0x20\n        /* \"#utility.yul\":13218:13221   */\n      dup3\n        /* \"#utility.yul\":13214:13226   */\n      add\n        /* \"#utility.yul\":13207:13226   */\n      swap1\n      pop\n        /* \"#utility.yul\":12866:13232   */\n      swap2\n      swap1\n      pop\n      jump\t// out\n        /* \"#utility.yul\":13238:13657   */\n    tag_69:\n        /* \"#utility.yul\":13404:13408   */\n      0x00\n        /* \"#utility.yul\":13442:13444   */\n      0x20\n        /* \"#utility.yul\":13431:13440   */\n      dup3\n        /* \"#utility.yul\":13427:13445   */\n      add\n        /* \"#utility.yul\":13419:13445   */\n      swap1\n      pop\n        /* \"#utility.yul\":13491:13500   */\n      dup2\n        /* \"#utility.yul\":13485:13489   */\n      dup2\n        /* \"#utility.yul\":13481:13501   */\n      sub\n        /* \"#utility.yul\":13477:13478   */\n      0x00\n        /* \"#utility.yul\":13466:13475   */\n      dup4\n        /* \"#utility.yul\":13462:13479   */\n      add\n        /* \"#utility.yul\":13455:13502   */\n      mstore\n        /* \"#utility.yul\":13519:13650   */\n      tag_292\n        /* \"#utility.yul\":13645:13649   */\n      dup2\n        /* \"#utility.yul\":13519:13650   */\n      tag_138\n      jump\t// in\n    tag_292:\n        /* \"#utility.yul\":13511:13650   */\n      swap1\n      pop\n        /* \"#utility.yul\":13238:13657   */\n      swap2\n      swap1\n      pop\n      jump\t// out\n        /* \"#utility.yul\":13663:13843   */\n    tag_76:\n        /* \"#utility.yul\":13711:13788   */\n      0x4e487b7100000000000000000000000000000000000000000000000000000000\n        /* \"#utility.yul\":13708:13709   */\n      0x00\n        /* \"#utility.yul\":13701:13789   */\n      mstore\n        /* \"#utility.yul\":13808:13812   */\n      0x32\n        /* \"#utility.yul\":13805:13806   */\n      0x04\n        /* \"#utility.yul\":13798:13813   */\n      mstore\n        /* \"#utility.yul\":13832:13836   */\n      0x24\n        /* \"#utility.yul\":13829:13830   */\n      0x00\n        /* \"#utility.yul\":13822:13837   */\n      revert\n        /* \"#utility.yul\":13849:13990   */\n    tag_139:\n        /* \"#utility.yul\":13898:13902   */\n      0x00\n        /* \"#utility.yul\":13921:13924   */\n      dup2\n        /* \"#utility.yul\":13913:13924   */\n      swap1\n      pop\n        /* \"#utility.yul\":13944:13947   */\n      dup2\n        /* \"#utility.yul\":13941:13942   */\n      0x00\n        /* \"#utility.yul\":13934:13948   */\n      mstore\n        /* \"#utility.yul\":13978:13982   */\n      0x20\n        /* \"#utility.yul\":13975:13976   */\n      0x00\n        /* \"#utility.yul\":13965:13983   */\n      keccak256\n        /* \"#utility.yul\":13957:13983   */\n      swap1\n      pop\n        /* \"#utility.yul\":13849:13990   */\n      swap2\n      swap1\n      pop\n      jump\t// out\n        /* \"#utility.yul\":13996:14089   */\n    tag_140:\n        /* \"#utility.yul\":14033:14039   */\n      0x00\n        /* \"#utility.yul\":14080:14082   */\n      0x20\n        /* \"#utility.yul\":14075:14077   */\n      0x1f\n        /* \"#utility.yul\":14068:14073   */\n      dup4\n        /* \"#utility.yul\":14064:14078   */\n      add\n        /* \"#utility.yul\":14060:14083   */\n      div\n        /* \"#utility.yul\":14050:14083   */\n      swap1\n      pop\n        /* \"#utility.yul\":13996:14089   */\n      swap2\n      swap1\n      pop\n      jump\t// out\n        /* \"#utility.yul\":14095:14202   */\n    tag_141:\n        /* \"#utility.yul\":14139:14147   */\n      0x00\n        /* \"#utility.yul\":14189:14194   */\n      dup3\n        /* \"#utility.yul\":14183:14187   */\n      dup3\n        /* \"#utility.yul\":14179:14195   */\n      shl\n        /* \"#utility.yul\":14158:14195   */\n      swap1\n      pop\n        /* \"#utility.yul\":14095:14202   */\n      swap3\n      swap2\n      pop\n      pop\n      jump\t// out\n        /* \"#utility.yul\":14208:14601   */\n    tag_142:\n        /* \"#utility.yul\":14277:14283   */\n      0x00\n        /* \"#utility.yul\":14327:14328   */\n      0x08\n        /* \"#utility.yul\":14315:14325   */\n      dup4\n        /* \"#utility.yul\":14311:14329   */\n      mul\n        /* \"#utility.yul\":14350:14447   */\n      tag_298\n        /* \"#utility.yul\":14380:14446   */\n      0xffffffffffffffffffffffffffffffffffffffffffffffffffffffffffffffff\n        /* \"#utility.yul\":14369:14378   */\n      dup3\n        /* \"#utility.yul\":14350:14447   */\n      tag_141\n      jump\t// in\n    tag_298:\n        /* \"#utility.yul\":14468:14507   */\n      tag_299\n        /* \"#utility.yul\":14498:14506   */\n      dup7\n        /* \"#utility.yul\":14487:14496   */\n      dup4\n        /* \"#utility.yul\":14468:14507   */\n      tag_141\n      jump\t// in\n    tag_299:\n        /* \"#utility.yul\":14456:14507   */\n      swap6\n      pop\n        /* \"#utility.yul\":14540:14544   */\n      dup1\n        /* \"#utility.yul\":14536:14545   */\n      not\n        /* \"#utility.yul\":14529:14534   */\n      dup5\n        /* \"#utility.yul\":14525:14546   */\n      and\n        /* \"#utility.yul\":14516:14546   */\n      swap4\n      pop\n        /* \"#utility.yul\":14589:14593   */\n      dup1\n        /* \"#utility.yul\":14579:14587   */\n      dup7\n        /* \"#utility.yul\":14575:14594   */\n      and\n        /* \"#utility.yul\":14568:14573   */\n      dup5\n        /* \"#utility.yul\":14565:14595   */\n      or\n        /* \"#utility.yul\":14555:14595   */\n      swap3\n      pop\n        /* \"#utility.yul\":14284:14601   */\n      pop\n      pop\n        /* \"#utility.yul\":14208:14601   */\n      swap4\n      swap3\n      pop\n      pop\n      pop\n      jump\t// out\n        /* \"#utility.yul\":14607:14667   */\n    tag_143:\n        /* \"#utility.yul\":14635:14638   */\n      0x00\n        /* \"#utility.yul\":14656:14661   */\n      dup2\n        /* \"#utility.yul\":14649:14661   */\n      swap1\n      pop\n        /* \"#utility.yul\":14607:14667   */\n      swap2\n      swap1\n      pop\n      jump\t// out\n        /* \"#utility.yul\":14673:14815   */\n    tag_144:\n        /* \"#utility.yul\":14723:14732   */\n      0x00\n        /* \"#utility.yul\":14756:14809   */\n      tag_302\n        /* \"#utility.yul\":14774:14808   */\n      tag_303\n        /* \"#utility.yul\":14783:14807   */\n      tag_304\n        /* \"#utility.yul\":14801:14806   */\n      dup5\n        /* \"#utility.yul\":14783:14807   */\n      tag_122\n      jump\t// in\n    tag_304:\n        /* \"#utility.yul\":14774:14808   */\n      tag_143\n      jump\t// in\n    tag_303:\n        /* \"#utility.yul\":14756:14809   */\n      tag_122\n      jump\t// in\n    tag_302:\n        /* \"#utility.yul\":14743:14809   */\n      swap1\n      pop\n        /* \"#utility.yul\":14673:14815   */\n      swap2\n      swap1\n      pop\n      jump\t// out\n        /* \"#utility.yul\":14821:14896   */\n    tag_145:\n        /* \"#utility.yul\":14864:14867   */\n      0x00\n        /* \"#utility.yul\":14885:14890   */\n      dup2\n        /* \"#utility.yul\":14878:14890   */\n      swap1\n      pop\n        /* \"#utility.yul\":14821:14896   */\n      swap2\n      swap1\n      pop\n      jump\t// out\n        /* \"#utility.yul\":14902:15171   */\n    tag_146:\n        /* \"#utility.yul\":15012:15051   */\n      tag_307\n        /* \"#utility.yul\":15043:15050   */\n      dup4\n        /* \"#utility.yul\":15012:15051   */\n      tag_144\n      jump\t// in\n    tag_307:\n        /* \"#utility.yul\":15073:15164   */\n      tag_308\n        /* \"#utility.yul\":15122:15163   */\n      tag_309\n        /* \"#utility.yul\":15146:15162   */\n      dup3\n        /* \"#utility.yul\":15122:15163   */\n      tag_145\n      jump\t// in\n    tag_309:\n        /* \"#utility.yul\":15114:15120   */\n      dup5\n        /* \"#utility.yul\":15107:15111   */\n      dup5\n        /* \"#utility.yul\":15101:15112   */\n      sload\n        /* \"#utility.yul\":15073:15164   */\n      tag_142\n      jump\t// in\n    tag_308:\n        /* \"#utility.yul\":15067:15071   */\n      dup3\n        /* \"#utility.yul\":15060:15165   */\n      sstore\n        /* \"#utility.yul\":14978:15171   */\n      pop\n        /* \"#utility.yul\":14902:15171   */\n      pop\n      pop\n      pop\n      jump\t// out\n        /* \"#utility.yul\":15177:15250   */\n    tag_147:\n        /* \"#utility.yul\":15222:15225   */\n      0x00\n        /* \"#utility.yul\":15177:15250   */\n      swap1\n      jump\t// out\n        /* \"#utility.yul\":15256:15445   */\n    tag_148:\n        /* \"#utility.yul\":15333:15365   */\n      tag_312\n      tag_147\n      jump\t// in\n    tag_312:\n        /* \"#utility.yul\":15374:15439   */\n      tag_313\n        /* \"#utility.yul\":15432:15438   */\n      dup2\n        /* \"#utility.yul\":15424:15430   */\n      dup5\n        /* \"#utility.yul\":15418:15422   */\n      dup5\n        /* \"#utility.yul\":15374:15439   */\n      tag_146\n      jump\t// in\n    tag_313:\n        /* \"#utility.yul\":15309:15445   */\n      pop\n        /* \"#utility.yul\":15256:15445   */\n      pop\n      pop\n      jump\t// out\n        /* \"#utility.yul\":15451:15637   */\n    tag_149:\n        /* \"#utility.yul\":15511:15631   */\n    tag_315:\n        /* \"#utility.yul\":15528:15531   */\n      dup2\n        /* \"#utility.yul\":15521:15526   */\n      dup2\n        /* \"#utility.yul\":15518:15532   */\n      lt\n        /* \"#utility.yul\":15511:15631   */\n      iszero\n      tag_317\n      jumpi\n        /* \"#utility.yul\":15582:15621   */\n      tag_318\n        /* \"#utility.yul\":15619:15620   */\n      0x00\n        /* \"#utility.yul\":15612:15617   */\n      dup3\n        /* \"#utility.yul\":15582:15621   */\n      tag_148\n      jump\t// in\n    tag_318:\n        /* \"#utility.yul\":15555:15556   */\n      0x01\n        /* \"#utility.yul\":15548:15553   */\n      dup2\n        /* \"#utility.yul\":15544:15557   */\n      add\n        /* \"#utility.yul\":15535:15557   */\n      swap1\n      pop\n        /* \"#utility.yul\":15511:15631   */\n      jump(tag_315)\n    tag_317:\n        /* \"#utility.yul\":15451:15637   */\n      pop\n      pop\n      jump\t// out\n        /* \"#utility.yul\":15643:16186   */\n    tag_150:\n        /* \"#utility.yul\":15744:15746   */\n      0x1f\n        /* \"#utility.yul\":15739:15742   */\n      dup3\n        /* \"#utility.yul\":15736:15747   */\n      gt\n        /* \"#utility.yul\":15733:16179   */\n      iszero\n      tag_320\n      jumpi\n        /* \"#utility.yul\":15778:15816   */\n      tag_321\n        /* \"#utility.yul\":15810:15815   */\n      dup2\n        /* \"#utility.yul\":15778:15816   */\n      tag_139\n      jump\t// in\n    tag_321:\n        /* \"#utility.yul\":15862:15891   */\n      tag_322\n        /* \"#utility.yul\":15880:15890   */\n      dup5\n        /* \"#utility.yul\":15862:15891   */\n      tag_140\n      jump\t// in\n    tag_322:\n        /* \"#utility.yul\":15852:15860   */\n      dup2\n        /* \"#utility.yul\":15848:15892   */\n      add\n        /* \"#utility.yul\":16045:16047   */\n      0x20\n        /* \"#utility.yul\":16033:16043   */\n      dup6\n        /* \"#utility.yul\":16030:16048   */\n      lt\n        /* \"#utility.yul\":16027:16076   */\n      iszero\n      tag_323\n      jumpi\n        /* \"#utility.yul\":16066:16074   */\n      dup2\n        /* \"#utility.yul\":16051:16074   */\n      swap1\n      pop\n        /* \"#utility.yul\":16027:16076   */\n    tag_323:\n        /* \"#utility.yul\":16089:16169   */\n      tag_324\n        /* \"#utility.yul\":16145:16167   */\n      tag_325\n        /* \"#utility.yul\":16163:16166   */\n      dup6\n        /* \"#utility.yul\":16145:16167   */\n      tag_140\n      jump\t// in\n    tag_325:\n        /* \"#utility.yul\":16135:16143   */\n      dup4\n        /* \"#utility.yul\":16131:16168   */\n      add\n        /* \"#utility.yul\":16118:16129   */\n      dup3\n        /* \"#utility.yul\":16089:16169   */\n      tag_149\n      jump\t// in\n    tag_324:\n        /* \"#utility.yul\":15748:16179   */\n      pop\n      pop\n        /* \"#utility.yul\":15733:16179   */\n    tag_320:\n        /* \"#utility.yul\":15643:16186   */\n      pop\n      pop\n      pop\n      jump\t// out\n        /* \"#utility.yul\":16192:16309   */\n    tag_151:\n        /* \"#utility.yul\":16246:16254   */\n      0x00\n        /* \"#utility.yul\":16296:16301   */\n      dup3\n        /* \"#utility.yul\":16290:16294   */\n      dup3\n        /* \"#utility.yul\":16286:16302   */\n      shr\n        /* \"#utility.yul\":16265:16302   */\n      swap1\n      pop\n        /* \"#utility.yul\":16192:16309   */\n      swap3\n      swap2\n      pop\n      pop\n      jump\t// out\n        /* \"#utility.yul\":16315:16484   */\n    tag_152:\n        /* \"#utility.yul\":16359:16365   */\n      0x00\n        /* \"#utility.yul\":16392:16443   */\n      tag_328\n        /* \"#utility.yul\":16440:16441   */\n      0x00\n        /* \"#utility.yul\":16436:16442   */\n      not\n        /* \"#utility.yul\":16428:16433   */\n      dup5\n        /* \"#utility.yul\":16425:16426   */\n      0x08\n        /* \"#utility.yul\":16421:16434   */\n      mul\n        /* \"#utility.yul\":16392:16443   */\n      tag_151\n      jump\t// in\n    tag_328:\n        /* \"#utility.yul\":16388:16444   */\n      not\n        /* \"#utility.yul\":16473:16477   */\n      dup1\n        /* \"#utility.yul\":16467:16471   */\n      dup4\n        /* \"#utility.yul\":16463:16478   */\n      and\n        /* \"#utility.yul\":16453:16478   */\n      swap2\n      pop\n        /* \"#utility.yul\":16366:16484   */\n      pop\n        /* \"#utility.yul\":16315:16484   */\n      swap3\n      swap2\n      pop\n      pop\n      jump\t// out\n        /* \"#utility.yul\":16489:16784   */\n    tag_153:\n        /* \"#utility.yul\":16565:16569   */\n      0x00\n        /* \"#utility.yul\":16711:16740   */\n      tag_330\n        /* \"#utility.yul\":16736:16739   */\n      dup4\n        /* \"#utility.yul\":16730:16734   */\n      dup4\n        /* \"#utility.yul\":16711:16740   */\n      tag_152\n      jump\t// in\n    tag_330:\n        /* \"#utility.yul\":16703:16740   */\n      swap2\n      pop\n        /* \"#utility.yul\":16773:16776   */\n      dup3\n        /* \"#utility.yul\":16770:16771   */\n      0x02\n        /* \"#utility.yul\":16766:16777   */\n      mul\n        /* \"#utility.yul\":16760:16764   */\n      dup3\n        /* \"#utility.yul\":16757:16778   */\n      or\n        /* \"#utility.yul\":16749:16778   */\n      swap1\n      pop\n        /* \"#utility.yul\":16489:16784   */\n      swap3\n      swap2\n      pop\n      pop\n      jump\t// out\n        /* \"#utility.yul\":16789:18184   */\n    tag_85:\n        /* \"#utility.yul\":16906:16943   */\n      tag_332\n        /* \"#utility.yul\":16939:16942   */\n      dup3\n        /* \"#utility.yul\":16906:16943   */\n      tag_125\n      jump\t// in\n    tag_332:\n        /* \"#utility.yul\":17008:17026   */\n      0xffffffffffffffff\n        /* \"#utility.yul\":17000:17006   */\n      dup2\n        /* \"#utility.yul\":16997:17027   */\n      gt\n        /* \"#utility.yul\":16994:17050   */\n      iszero\n      tag_333\n      jumpi\n        /* \"#utility.yul\":17030:17048   */\n      tag_334\n      tag_97\n      jump\t// in\n    tag_334:\n        /* \"#utility.yul\":16994:17050   */\n    tag_333:\n        /* \"#utility.yul\":17074:17112   */\n      tag_335\n        /* \"#utility.yul\":17106:17110   */\n      dup3\n        /* \"#utility.yul\":17100:17111   */\n      sload\n        /* \"#utility.yul\":17074:17112   */\n      tag_45\n      jump\t// in\n    tag_335:\n        /* \"#utility.yul\":17159:17226   */\n      tag_336\n        /* \"#utility.yul\":17219:17225   */\n      dup3\n        /* \"#utility.yul\":17211:17217   */\n      dup3\n        /* \"#utility.yul\":17205:17209   */\n      dup6\n        /* \"#utility.yul\":17159:17226   */\n      tag_150\n      jump\t// in\n    tag_336:\n        /* \"#utility.yul\":17253:17254   */\n      0x00\n        /* \"#utility.yul\":17277:17281   */\n      0x20\n        /* \"#utility.yul\":17264:17281   */\n      swap1\n      pop\n        /* \"#utility.yul\":17309:17311   */\n      0x1f\n        /* \"#utility.yul\":17301:17307   */\n      dup4\n        /* \"#utility.yul\":17298:17312   */\n      gt\n        /* \"#utility.yul\":17326:17327   */\n      0x01\n        /* \"#utility.yul\":17321:17939   */\n      dup2\n      eq\n      tag_338\n      jumpi\n        /* \"#utility.yul\":17983:17984   */\n      0x00\n        /* \"#utility.yul\":18000:18006   */\n      dup5\n        /* \"#utility.yul\":17997:18074   */\n      iszero\n      tag_339\n      jumpi\n        /* \"#utility.yul\":18049:18058   */\n      dup3\n        /* \"#utility.yul\":18044:18047   */\n      dup8\n        /* \"#utility.yul\":18040:18059   */\n      add\n        /* \"#utility.yul\":18034:18060   */\n      mload\n        /* \"#utility.yul\":18025:18060   */\n      swap1\n      pop\n        /* \"#utility.yul\":17997:18074   */\n    tag_339:\n        /* \"#utility.yul\":18100:18167   */\n      tag_340\n        /* \"#utility.yul\":18160:18166   */\n      dup6\n        /* \"#utility.yul\":18153:18158   */\n      dup3\n        /* \"#utility.yul\":18100:18167   */\n      tag_153\n      jump\t// in\n    tag_340:\n        /* \"#utility.yul\":18094:18098   */\n      dup7\n        /* \"#utility.yul\":18087:18168   */\n      sstore\n        /* \"#utility.yul\":17956:18178   */\n      pop\n        /* \"#utility.yul\":17291:18178   */\n      jump(tag_337)\n        /* \"#utility.yul\":17321:17939   */\n    tag_338:\n        /* \"#utility.yul\":17373:17377   */\n      0x1f\n        /* \"#utility.yul\":17369:17378   */\n      not\n        /* \"#utility.yul\":17361:17367   */\n      dup5\n        /* \"#utility.yul\":17357:17379   */\n      and\n        /* \"#utility.yul\":17407:17444   */\n      tag_341\n        /* \"#utility.yul\":17439:17443   */\n      dup7\n        /* \"#utility.yul\":17407:17444   */\n      tag_139\n      jump\t// in\n    tag_341:\n        /* \"#utility.yul\":17466:17467   */\n      0x00\n        /* \"#utility.yul\":17480:17688   */\n    tag_342:\n        /* \"#utility.yul\":17494:17501   */\n      dup3\n        /* \"#utility.yul\":17491:17492   */\n      dup2\n        /* \"#utility.yul\":17488:17502   */\n      lt\n        /* \"#utility.yul\":17480:17688   */\n      iszero\n      tag_344\n      jumpi\n        /* \"#utility.yul\":17573:17582   */\n      dup5\n        /* \"#utility.yul\":17568:17571   */\n      dup10\n        /* \"#utility.yul\":17564:17583   */\n      add\n        /* \"#utility.yul\":17558:17584   */\n      mload\n        /* \"#utility.yul\":17550:17556   */\n      dup3\n        /* \"#utility.yul\":17543:17585   */\n      sstore\n        /* \"#utility.yul\":17624:17625   */\n      0x01\n        /* \"#utility.yul\":17616:17622   */\n      dup3\n        /* \"#utility.yul\":17612:17626   */\n      add\n        /* \"#utility.yul\":17602:17626   */\n      swap2\n      pop\n        /* \"#utility.yul\":17671:17673   */\n      0x20\n        /* \"#utility.yul\":17660:17669   */\n      dup6\n        /* \"#utility.yul\":17656:17674   */\n      add\n        /* \"#utility.yul\":17643:17674   */\n      swap5\n      pop\n        /* \"#utility.yul\":17517:17521   */\n      0x20\n        /* \"#utility.yul\":17514:17515   */\n      dup2\n        /* \"#utility.yul\":17510:17522   */\n      add\n        /* \"#utility.yul\":17505:17522   */\n      swap1\n      pop\n        /* \"#utility.yul\":17480:17688   */\n      jump(tag_342)\n    tag_344:\n        /* \"#utility.yul\":17716:17722   */\n      dup7\n        /* \"#utility.yul\":17707:17714   */\n      dup4\n        /* \"#utility.yul\":17704:17723   */\n      lt\n        /* \"#utility.yul\":17701:17880   */\n      iszero\n      tag_345\n      jumpi\n        /* \"#utility.yul\":17774:17783   */\n      dup5\n        /* \"#utility.yul\":17769:17772   */\n      dup10\n        /* \"#utility.yul\":17765:17784   */\n      add\n        /* \"#utility.yul\":17759:17785   */\n      mload\n        /* \"#utility.yul\":17817:17865   */\n      tag_346\n        /* \"#utility.yul\":17859:17863   */\n      0x1f\n        /* \"#utility.yul\":17851:17857   */\n      dup10\n        /* \"#utility.yul\":17847:17864   */\n      and\n        /* \"#utility.yul\":17836:17845   */\n      dup3\n        /* \"#utility.yul\":17817:17865   */\n      tag_152\n      jump\t// in\n    tag_346:\n        /* \"#utility.yul\":17809:17815   */\n      dup4\n        /* \"#utility.yul\":17802:17866   */\n      sstore\n        /* \"#utility.yul\":17724:17880   */\n      pop\n        /* \"#utility.yul\":17701:17880   */\n    tag_345:\n        /* \"#utility.yul\":17926:17927   */\n      0x01\n        /* \"#utility.yul\":17922:17923   */\n      0x02\n        /* \"#utility.yul\":17914:17920   */\n      dup9\n        /* \"#utility.yul\":17910:17924   */\n      mul\n        /* \"#utility.yul\":17906:17928   */\n      add\n        /* \"#utility.yul\":17900:17904   */\n      dup9\n        /* \"#utility.yul\":17893:17929   */\n      sstore\n        /* \"#utility.yul\":17328:17939   */\n      pop\n      pop\n      pop\n        /* \"#utility.yul\":17291:18178   */\n    tag_337:\n      pop\n        /* \"#utility.yul\":16881:18184   */\n      pop\n      pop\n      pop\n        /* \"#utility.yul\":16789:18184   */\n      pop\n      pop\n      jump\t// out\n        /* \"#utility.yul\":18190:18370   */\n    tag_154:\n        /* \"#utility.yul\":18238:18315   */\n      0x4e487b7100000000000000000000000000000000000000000000000000000000\n        /* \"#utility.yul\":18235:18236   */\n      0x00\n        /* \"#utility.yul\":18228:18316   */\n      mstore\n        /* \"#utility.yul\":18335:18339   */\n      0x12\n        /* \"#utility.yul\":18332:18333   */\n      0x04\n        /* \"#utility.yul\":18325:18340   */\n      mstore\n        /* \"#utility.yul\":18359:18363   */\n      0x24\n        /* \"#utility.yul\":18356:18357   */\n      0x00\n        /* \"#utility.yul\":18349:18364   */\n      revert\n        /* \"#utility.yul\":18376:18561   */\n    tag_94:\n        /* \"#utility.yul\":18416:18417   */\n      0x00\n        /* \"#utility.yul\":18433:18453   */\n      tag_349\n        /* \"#utility.yul\":18451:18452   */\n      dup3\n        /* \"#utility.yul\":18433:18453   */\n      tag_122\n      jump\t// in\n    tag_349:\n        /* \"#utility.yul\":18428:18453   */\n      swap2\n      pop\n        /* \"#utility.yul\":18467:18487   */\n      tag_350\n        /* \"#utility.yul\":18485:18486   */\n      dup4\n        /* \"#utility.yul\":18467:18487   */\n      tag_122\n      jump\t// in\n    tag_350:\n        /* \"#utility.yul\":18462:18487   */\n      swap3\n      pop\n        /* \"#utility.yul\":18506:18507   */\n      dup3\n        /* \"#utility.yul\":18496:18531   */\n      tag_351\n      jumpi\n        /* \"#utility.yul\":18511:18529   */\n      tag_352\n      tag_154\n      jump\t// in\n    tag_352:\n        /* \"#utility.yul\":18496:18531   */\n    tag_351:\n        /* \"#utility.yul\":18553:18554   */\n      dup3\n        /* \"#utility.yul\":18550:18551   */\n      dup3\n        /* \"#utility.yul\":18546:18555   */\n      div\n        /* \"#utility.yul\":18541:18555   */\n      swap1\n      pop\n        /* \"#utility.yul\":18376:18561   */\n      swap3\n      swap2\n      pop\n      pop\n      jump\t// out\n        /* \"#utility.yul\":18567:18761   */\n    tag_102:\n        /* \"#utility.yul\":18607:18611   */\n      0x00\n        /* \"#utility.yul\":18627:18647   */\n      tag_354\n        /* \"#utility.yul\":18645:18646   */\n      dup3\n        /* \"#utility.yul\":18627:18647   */\n      tag_122\n      jump\t// in\n    tag_354:\n        /* \"#utility.yul\":18622:18647   */\n      swap2\n      pop\n        /* \"#utility.yul\":18661:18681   */\n      tag_355\n        /* \"#utility.yul\":18679:18680   */\n      dup4\n        /* \"#utility.yul\":18661:18681   */\n      tag_122\n      jump\t// in\n    tag_355:\n        /* \"#utility.yul\":18656:18681   */\n      swap3\n      pop\n        /* \"#utility.yul\":18705:18706   */\n      dup3\n        /* \"#utility.yul\":18702:18703   */\n      dup3\n        /* \"#utility.yul\":18698:18707   */\n      sub\n        /* \"#utility.yul\":18690:18707   */\n      swap1\n      pop\n        /* \"#utility.yul\":18729:18730   */\n      dup2\n        /* \"#utility.yul\":18723:18727   */\n      dup2\n        /* \"#utility.yul\":18720:18731   */\n      gt\n        /* \"#utility.yul\":18717:18754   */\n      iszero\n      tag_356\n      jumpi\n        /* \"#utility.yul\":18734:18752   */\n      tag_357\n      tag_135\n      jump\t// in\n    tag_357:\n        /* \"#utility.yul\":18717:18754   */\n    tag_356:\n        /* \"#utility.yul\":18567:18761   */\n      swap3\n      swap2\n      pop\n      pop\n      jump\t// out\n        /* \"#utility.yul\":18767:18943   */\n    tag_104:\n        /* \"#utility.yul\":18799:18800   */\n      0x00\n        /* \"#utility.yul\":18816:18836   */\n      tag_359\n        /* \"#utility.yul\":18834:18835   */\n      dup3\n        /* \"#utility.yul\":18816:18836   */\n      tag_122\n      jump\t// in\n    tag_359:\n        /* \"#utility.yul\":18811:18836   */\n      swap2\n      pop\n        /* \"#utility.yul\":18850:18870   */\n      tag_360\n        /* \"#utility.yul\":18868:18869   */\n      dup4\n        /* \"#utility.yul\":18850:18870   */\n      tag_122\n      jump\t// in\n    tag_360:\n        /* \"#utility.yul\":18845:18870   */\n      swap3\n      pop\n        /* \"#utility.yul\":18889:18890   */\n      dup3\n        /* \"#utility.yul\":18879:18914   */\n      tag_361\n      jumpi\n        /* \"#utility.yul\":18894:18912   */\n      tag_362\n      tag_154\n      jump\t// in\n    tag_362:\n        /* \"#utility.yul\":18879:18914   */\n    tag_361:\n        /* \"#utility.yul\":18935:18936   */\n      dup3\n        /* \"#utility.yul\":18932:18933   */\n      dup3\n        /* \"#utility.yul\":18928:18937   */\n      mod\n        /* \"#utility.yul\":18923:18937   */\n      swap1\n      pop\n        /* \"#utility.yul\":18767:18943   */\n      swap3\n      swap2\n      pop\n      pop\n      jump\t// out\n        /* \"#utility.yul\":18949:19140   */\n    tag_106:\n        /* \"#utility.yul\":18989:18992   */\n      0x00\n        /* \"#utility.yul\":19008:19028   */\n      tag_364\n        /* \"#utility.yul\":19026:19027   */\n      dup3\n        /* \"#utility.yul\":19008:19028   */\n      tag_122\n      jump\t// in\n    tag_364:\n        /* \"#utility.yul\":19003:19028   */\n      swap2\n      pop\n        /* \"#utility.yul\":19042:19062   */\n      tag_365\n        /* \"#utility.yul\":19060:19061   */\n      dup4\n        /* \"#utility.yul\":19042:19062   */\n      tag_122\n      jump\t// in\n    tag_365:\n        /* \"#utility.yul\":19037:19062   */\n      swap3\n      pop\n        /* \"#utility.yul\":19085:19086   */\n      dup3\n        /* \"#utility.yul\":19082:19083   */\n      dup3\n        /* \"#utility.yul\":19078:19087   */\n      add\n        /* \"#utility.yul\":19071:19087   */\n      swap1\n      pop\n        /* \"#utility.yul\":19106:19109   */\n      dup1\n        /* \"#utility.yul\":19103:19104   */\n      dup3\n        /* \"#utility.yul\":19100:19110   */\n      gt\n        /* \"#utility.yul\":19097:19133   */\n      iszero\n      tag_366\n      jumpi\n        /* \"#utility.yul\":19113:19131   */\n      tag_367\n      tag_135\n      jump\t// in\n    tag_367:\n        /* \"#utility.yul\":19097:19133   */\n    tag_366:\n        /* \"#utility.yul\":18949:19140   */\n      swap3\n      swap2\n      pop\n      pop\n      jump\t// out\n\n    auxdata: 0xa2646970667358221220203913f41099de441eb07789ef68eb305b3228fe4a68c8920924e83ae2d3f66c64736f6c63430008130033\n}\n",
				"bytecode": {
					"linkReferences": {},
					"object": "608060405234801561001057600080fd5b5061120b806100206000396000f3fe608060405234801561001057600080fd5b50600436106100575760003560e01c80634ccc9c761461005c5780637ccb6a6414610078578063b3dd697b146100a9578063dfb4a3f6146100da578063f2d893e4146100f6575b600080fd5b61007660048036038101906100719190610887565b610112565b005b610092600480360381019061008d9190610942565b610171565b6040516100a0929190610a0a565b60405180910390f35b6100c360048036038101906100be9190610942565b6102d8565b6040516100d1929190610a0a565b60405180910390f35b6100f460048036038101906100ef9190610b27565b610422565b005b610110600480360381019061010b9190610bce565b6104f1565b005b60005b8181101561016a5760008561012983610591565b60405160200161013a929190610cb1565b60405160208183030381529060405290506101568186866104f1565b50808061016290610d04565b915050610115565b5050505050565b606080600080846040516101859190610d4c565b90815260200160405180910390206040518060400160405290816000820180546101ae90610d92565b80601f01602080910402602001604051908101604052809291908181526020018280546101da90610d92565b80156102275780601f106101fc57610100808354040283529160200191610227565b820191906000526020600020905b81548152906001019060200180831161020a57829003601f168201915b5050505050815260200160018201805461024090610d92565b80601f016020809104026020016040519081016040528092919081815260200182805461026c90610d92565b80156102b95780601f1061028e576101008083540402835291602001916102b9565b820191906000526020600020905b81548152906001019060200180831161029c57829003601f168201915b5050505050815250509050806000015181602001519250925050915091565b60008180516020810182018051848252602083016020850120818352809550505050505060009150905080600001805461031190610d92565b80601f016020809104026020016040519081016040528092919081815260200182805461033d90610d92565b801561038a5780601f1061035f5761010080835404028352916020019161038a565b820191906000526020600020905b81548152906001019060200180831161036d57829003601f168201915b50505050509080600101805461039f90610d92565b80601f01602080910402602001604051908101604052809291908181526020018280546103cb90610d92565b80156104185780601f106103ed57610100808354040283529160200191610418565b820191906000526020600020905b8154815290600101906020018083116103fb57829003601f168201915b5050505050905082565b81518351148015610434575080518251145b610473576040517f08c379a000000000000000000000000000000000000000000000000000000000815260040161046a90610e0f565b60405180910390fd5b60005b83518110156104eb576104d884828151811061049557610494610e2f565b5b60200260200101518483815181106104b0576104af610e2f565b5b60200260200101518484815181106104cb576104ca610e2f565b5b60200260200101516104f1565b80806104e390610d04565b915050610476565b50505050565b6040518060400160405280838152602001828152506000846040516105169190610d4c565b90815260200160405180910390206000820151816000019081610539919061100a565b50602082015181600101908161054f919061100a565b509050507f4f63b101254c6d55638976c7c7b2e44ff57476ecf4c4c9cdc27cf3049e21c2508383604051610584929190610a0a565b60405180910390a1505050565b6060600082036105d8576040518060400160405280600181526020017f300000000000000000000000000000000000000000000000000000000000000081525090506106f2565b600082905060005b6000821461060a5780806105f390610d04565b915050600a82610603919061110b565b91506105e0565b60008167ffffffffffffffff81111561062657610625610726565b5b6040519080825280601f01601f1916602001820160405280156106585781602001600182028036833780820191505090505b50905060008290505b600086146106ea57600181610676919061113c565b9050600a866106859190611170565b603061069191906111a1565b60f81b8282815181106106a7576106a6610e2f565b5b60200101907effffffffffffffffffffffffffffffffffffffffffffffffffffffffffffff1916908160001a905350600a866106e3919061110b565b9550610661565b819450505050505b919050565b6000604051905090565b600080fd5b600080fd5b600080fd5b600080fd5b6000601f19601f8301169050919050565b7f4e487b7100000000000000000000000000000000000000000000000000000000600052604160045260246000fd5b61075e82610715565b810181811067ffffffffffffffff8211171561077d5761077c610726565b5b80604052505050565b60006107906106f7565b905061079c8282610755565b919050565b600067ffffffffffffffff8211156107bc576107bb610726565b5b6107c582610715565b9050602081019050919050565b82818337600083830152505050565b60006107f46107ef846107a1565b610786565b9050828152602081018484840111156108105761080f610710565b5b61081b8482856107d2565b509392505050565b600082601f8301126108385761083761070b565b5b81356108488482602086016107e1565b91505092915050565b6000819050919050565b61086481610851565b811461086f57600080fd5b50565b6000813590506108818161085b565b92915050565b600080600080608085870312156108a1576108a0610701565b5b600085013567ffffffffffffffff8111156108bf576108be610706565b5b6108cb87828801610823565b945050602085013567ffffffffffffffff8111156108ec576108eb610706565b5b6108f887828801610823565b935050604085013567ffffffffffffffff81111561091957610918610706565b5b61092587828801610823565b925050606061093687828801610872565b91505092959194509250565b60006020828403121561095857610957610701565b5b600082013567ffffffffffffffff81111561097657610975610706565b5b61098284828501610823565b91505092915050565b600081519050919050565b600082825260208201905092915050565b60005b838110156109c55780820151818401526020810190506109aa565b60008484015250505050565b60006109dc8261098b565b6109e68185610996565b93506109f68185602086016109a7565b6109ff81610715565b840191505092915050565b60006040820190508181036000830152610a2481856109d1565b90508181036020830152610a3881846109d1565b90509392505050565b600067ffffffffffffffff821115610a5c57610a5b610726565b5b602082029050602081019050919050565b600080fd5b6000610a85610a8084610a41565b610786565b90508083825260208201905060208402830185811115610aa857610aa7610a6d565b5b835b81811015610aef57803567ffffffffffffffff811115610acd57610acc61070b565b5b808601610ada8982610823565b85526020850194505050602081019050610aaa565b5050509392505050565b600082601f830112610b0e57610b0d61070b565b5b8135610b1e848260208601610a72565b91505092915050565b600080600060608486031215610b4057610b3f610701565b5b600084013567ffffffffffffffff811115610b5e57610b5d610706565b5b610b6a86828701610af9565b935050602084013567ffffffffffffffff811115610b8b57610b8a610706565b5b610b9786828701610af9565b925050604084013567ffffffffffffffff811115610bb857610bb7610706565b5b610bc486828701610af9565b9150509250925092565b600080600060608486031215610be757610be6610701565b5b600084013567ffffffffffffffff811115610c0557610c04610706565b5b610c1186828701610823565b935050602084013567ffffffffffffffff811115610c3257610c31610706565b5b610c3e86828701610823565b925050604084013567ffffffffffffffff811115610c5f57610c5e610706565b5b610c6b86828701610823565b9150509250925092565b600081905092915050565b6000610c8b8261098b565b610c958185610c75565b9350610ca58185602086016109a7565b80840191505092915050565b6000610cbd8285610c80565b9150610cc98284610c80565b91508190509392505050565b7f4e487b7100000000000000000000000000000000000000000000000000000000600052601160045260246000fd5b6000610d0f82610851565b91507fffffffffffffffffffffffffffffffffffffffffffffffffffffffffffffffff8203610d4157610d40610cd5565b5b600182019050919050565b6000610d588284610c80565b915081905092915050565b7f4e487b7100000000000000000000000000000000000000000000000000000000600052602260045260246000fd5b60006002820490506001821680610daa57607f821691505b602082108103610dbd57610dbc610d63565b5b50919050565b7f417272617973206c656e677468206d69736d6174636800000000000000000000600082015250565b6000610df9601683610996565b9150610e0482610dc3565b602082019050919050565b60006020820190508181036000830152610e2881610dec565b9050919050565b7f4e487b7100000000000000000000000000000000000000000000000000000000600052603260045260246000fd5b60008190508160005260206000209050919050565b60006020601f8301049050919050565b600082821b905092915050565b600060088302610ec07fffffffffffffffffffffffffffffffffffffffffffffffffffffffffffffffff82610e83565b610eca8683610e83565b95508019841693508086168417925050509392505050565b6000819050919050565b6000610f07610f02610efd84610851565b610ee2565b610851565b9050919050565b6000819050919050565b610f2183610eec565b610f35610f2d82610f0e565b848454610e90565b825550505050565b600090565b610f4a610f3d565b610f55818484610f18565b505050565b5b81811015610f7957610f6e600082610f42565b600181019050610f5b565b5050565b601f821115610fbe57610f8f81610e5e565b610f9884610e73565b81016020851015610fa7578190505b610fbb610fb385610e73565b830182610f5a565b50505b505050565b600082821c905092915050565b6000610fe160001984600802610fc3565b1980831691505092915050565b6000610ffa8383610fd0565b9150826002028217905092915050565b6110138261098b565b67ffffffffffffffff81111561102c5761102b610726565b5b6110368254610d92565b611041828285610f7d565b600060209050601f8311600181146110745760008415611062578287015190505b61106c8582610fee565b8655506110d4565b601f19841661108286610e5e565b60005b828110156110aa57848901518255600182019150602085019450602081019050611085565b868310156110c757848901516110c3601f891682610fd0565b8355505b6001600288020188555050505b505050505050565b7f4e487b7100000000000000000000000000000000000000000000000000000000600052601260045260246000fd5b600061111682610851565b915061112183610851565b925082611131576111306110dc565b5b828204905092915050565b600061114782610851565b915061115283610851565b925082820390508181111561116a57611169610cd5565b5b92915050565b600061117b82610851565b915061118683610851565b925082611196576111956110dc565b5b828206905092915050565b60006111ac82610851565b91506111b783610851565b92508282019050808211156111cf576111ce610cd5565b5b9291505056fea2646970667358221220203913f41099de441eb07789ef68eb305b3228fe4a68c8920924e83ae2d3f66c64736f6c63430008130033",
					"opcodes": "PUSH1 0x80 PUSH1 0x40 MSTORE CALLVALUE DUP1 ISZERO PUSH2 0x10 JUMPI PUSH1 0x0 DUP1 REVERT JUMPDEST POP PUSH2 0x120B DUP1 PUSH2 0x20 PUSH1 0x0 CODECOPY PUSH1 0x0 RETURN INVALID PUSH1 0x80 PUSH1 0x40 MSTORE CALLVALUE DUP1 ISZERO PUSH2 0x10 JUMPI PUSH1 0x0 DUP1 REVERT JUMPDEST POP PUSH1 0x4 CALLDATASIZE LT PUSH2 0x57 JUMPI PUSH1 0x0 CALLDATALOAD PUSH1 0xE0 SHR DUP1 PUSH4 0x4CCC9C76 EQ PUSH2 0x5C JUMPI DUP1 PUSH4 0x7CCB6A64 EQ PUSH2 0x78 JUMPI DUP1 PUSH4 0xB3DD697B EQ PUSH2 0xA9 JUMPI DUP1 PUSH4 0xDFB4A3F6 EQ PUSH2 0xDA JUMPI DUP1 PUSH4 0xF2D893E4 EQ PUSH2 0xF6 JUMPI JUMPDEST PUSH1 0x0 DUP1 REVERT JUMPDEST PUSH2 0x76 PUSH1 0x4 DUP1 CALLDATASIZE SUB DUP2 ADD SWAP1 PUSH2 0x71 SWAP2 SWAP1 PUSH2 0x887 JUMP JUMPDEST PUSH2 0x112 JUMP JUMPDEST STOP JUMPDEST PUSH2 0x92 PUSH1 0x4 DUP1 CALLDATASIZE SUB DUP2 ADD SWAP1 PUSH2 0x8D SWAP2 SWAP1 PUSH2 0x942 JUMP JUMPDEST PUSH2 0x171 JUMP JUMPDEST PUSH1 0x40 MLOAD PUSH2 0xA0 SWAP3 SWAP2 SWAP1 PUSH2 0xA0A JUMP JUMPDEST PUSH1 0x40 MLOAD DUP1 SWAP2 SUB SWAP1 RETURN JUMPDEST PUSH2 0xC3 PUSH1 0x4 DUP1 CALLDATASIZE SUB DUP2 ADD SWAP1 PUSH2 0xBE SWAP2 SWAP1 PUSH2 0x942 JUMP JUMPDEST PUSH2 0x2D8 JUMP JUMPDEST PUSH1 0x40 MLOAD PUSH2 0xD1 SWAP3 SWAP2 SWAP1 PUSH2 0xA0A JUMP JUMPDEST PUSH1 0x40 MLOAD DUP1 SWAP2 SUB SWAP1 RETURN JUMPDEST PUSH2 0xF4 PUSH1 0x4 DUP1 CALLDATASIZE SUB DUP2 ADD SWAP1 PUSH2 0xEF SWAP2 SWAP1 PUSH2 0xB27 JUMP JUMPDEST PUSH2 0x422 JUMP JUMPDEST STOP JUMPDEST PUSH2 0x110 PUSH1 0x4 DUP1 CALLDATASIZE SUB DUP2 ADD SWAP1 PUSH2 0x10B SWAP2 SWAP1 PUSH2 0xBCE JUMP JUMPDEST PUSH2 0x4F1 JUMP JUMPDEST STOP JUMPDEST PUSH1 0x0 JUMPDEST DUP2 DUP2 LT ISZERO PUSH2 0x16A JUMPI PUSH1 0x0 DUP6 PUSH2 0x129 DUP4 PUSH2 0x591 JUMP JUMPDEST PUSH1 0x40 MLOAD PUSH1 0x20 ADD PUSH2 0x13A SWAP3 SWAP2 SWAP1 PUSH2 0xCB1 JUMP JUMPDEST PUSH1 0x40 MLOAD PUSH1 0x20 DUP2 DUP4 SUB SUB DUP2 MSTORE SWAP1 PUSH1 0x40 MSTORE SWAP1 POP PUSH2 0x156 DUP2 DUP7 DUP7 PUSH2 0x4F1 JUMP JUMPDEST POP DUP1 DUP1 PUSH2 0x162 SWAP1 PUSH2 0xD04 JUMP JUMPDEST SWAP2 POP POP PUSH2 0x115 JUMP JUMPDEST POP POP POP POP POP JUMP JUMPDEST PUSH1 0x60 DUP1 PUSH1 0x0 DUP1 DUP5 PUSH1 0x40 MLOAD PUSH2 0x185 SWAP2 SWAP1 PUSH2 0xD4C JUMP JUMPDEST SWAP1 DUP2 MSTORE PUSH1 0x20 ADD PUSH1 0x40 MLOAD DUP1 SWAP2 SUB SWAP1 KECCAK256 PUSH1 0x40 MLOAD DUP1 PUSH1 0x40 ADD PUSH1 0x40 MSTORE SWAP1 DUP2 PUSH1 0x0 DUP3 ADD DUP1 SLOAD PUSH2 0x1AE SWAP1 PUSH2 0xD92 JUMP JUMPDEST DUP1 PUSH1 0x1F ADD PUSH1 0x20 DUP1 SWAP2 DIV MUL PUSH1 0x20 ADD PUSH1 0x40 MLOAD SWAP1 DUP2 ADD PUSH1 0x40 MSTORE DUP1 SWAP3 SWAP2 SWAP1 DUP2 DUP2 MSTORE PUSH1 0x20 ADD DUP3 DUP1 SLOAD PUSH2 0x1DA SWAP1 PUSH2 0xD92 JUMP JUMPDEST DUP1 ISZERO PUSH2 0x227 JUMPI DUP1 PUSH1 0x1F LT PUSH2 0x1FC JUMPI PUSH2 0x100 DUP1 DUP4 SLOAD DIV MUL DUP4 MSTORE SWAP2 PUSH1 0x20 ADD SWAP2 PUSH2 0x227 JUMP JUMPDEST DUP3 ADD SWAP2 SWAP1 PUSH1 0x0 MSTORE PUSH1 0x20 PUSH1 0x0 KECCAK256 SWAP1 JUMPDEST DUP2 SLOAD DUP2 MSTORE SWAP1 PUSH1 0x1 ADD SWAP1 PUSH1 0x20 ADD DUP1 DUP4 GT PUSH2 0x20A JUMPI DUP3 SWAP1 SUB PUSH1 0x1F AND DUP3 ADD SWAP2 JUMPDEST POP POP POP POP POP DUP2 MSTORE PUSH1 0x20 ADD PUSH1 0x1 DUP3 ADD DUP1 SLOAD PUSH2 0x240 SWAP1 PUSH2 0xD92 JUMP JUMPDEST DUP1 PUSH1 0x1F ADD PUSH1 0x20 DUP1 SWAP2 DIV MUL PUSH1 0x20 ADD PUSH1 0x40 MLOAD SWAP1 DUP2 ADD PUSH1 0x40 MSTORE DUP1 SWAP3 SWAP2 SWAP1 DUP2 DUP2 MSTORE PUSH1 0x20 ADD DUP3 DUP1 SLOAD PUSH2 0x26C SWAP1 PUSH2 0xD92 JUMP JUMPDEST DUP1 ISZERO PUSH2 0x2B9 JUMPI DUP1 PUSH1 0x1F LT PUSH2 0x28E JUMPI PUSH2 0x100 DUP1 DUP4 SLOAD DIV MUL DUP4 MSTORE SWAP2 PUSH1 0x20 ADD SWAP2 PUSH2 0x2B9 JUMP JUMPDEST DUP3 ADD SWAP2 SWAP1 PUSH1 0x0 MSTORE PUSH1 0x20 PUSH1 0x0 KECCAK256 SWAP1 JUMPDEST DUP2 SLOAD DUP2 MSTORE SWAP1 PUSH1 0x1 ADD SWAP1 PUSH1 0x20 ADD DUP1 DUP4 GT PUSH2 0x29C JUMPI DUP3 SWAP1 SUB PUSH1 0x1F AND DUP3 ADD SWAP2 JUMPDEST POP POP POP POP POP DUP2 MSTORE POP POP SWAP1 POP DUP1 PUSH1 0x0 ADD MLOAD DUP2 PUSH1 0x20 ADD MLOAD SWAP3 POP SWAP3 POP POP SWAP2 POP SWAP2 JUMP JUMPDEST PUSH1 0x0 DUP2 DUP1 MLOAD PUSH1 0x20 DUP2 ADD DUP3 ADD DUP1 MLOAD DUP5 DUP3 MSTORE PUSH1 0x20 DUP4 ADD PUSH1 0x20 DUP6 ADD KECCAK256 DUP2 DUP4 MSTORE DUP1 SWAP6 POP POP POP POP POP POP PUSH1 0x0 SWAP2 POP SWAP1 POP DUP1 PUSH1 0x0 ADD DUP1 SLOAD PUSH2 0x311 SWAP1 PUSH2 0xD92 JUMP JUMPDEST DUP1 PUSH1 0x1F ADD PUSH1 0x20 DUP1 SWAP2 DIV MUL PUSH1 0x20 ADD PUSH1 0x40 MLOAD SWAP1 DUP2 ADD PUSH1 0x40 MSTORE DUP1 SWAP3 SWAP2 SWAP1 DUP2 DUP2 MSTORE PUSH1 0x20 ADD DUP3 DUP1 SLOAD PUSH2 0x33D SWAP1 PUSH2 0xD92 JUMP JUMPDEST DUP1 ISZERO PUSH2 0x38A JUMPI DUP1 PUSH1 0x1F LT PUSH2 0x35F JUMPI PUSH2 0x100 DUP1 DUP4 SLOAD DIV MUL DUP4 MSTORE SWAP2 PUSH1 0x20 ADD SWAP2 PUSH2 0x38A JUMP JUMPDEST DUP3 ADD SWAP2 SWAP1 PUSH1 0x0 MSTORE PUSH1 0x20 PUSH1 0x0 KECCAK256 SWAP1 JUMPDEST DUP2 SLOAD DUP2 MSTORE SWAP1 PUSH1 0x1 ADD SWAP1 PUSH1 0x20 ADD DUP1 DUP4 GT PUSH2 0x36D JUMPI DUP3 SWAP1 SUB PUSH1 0x1F AND DUP3 ADD SWAP2 JUMPDEST POP POP POP POP POP SWAP1 DUP1 PUSH1 0x1 ADD DUP1 SLOAD PUSH2 0x39F SWAP1 PUSH2 0xD92 JUMP JUMPDEST DUP1 PUSH1 0x1F ADD PUSH1 0x20 DUP1 SWAP2 DIV MUL PUSH1 0x20 ADD PUSH1 0x40 MLOAD SWAP1 DUP2 ADD PUSH1 0x40 MSTORE DUP1 SWAP3 SWAP2 SWAP1 DUP2 DUP2 MSTORE PUSH1 0x20 ADD DUP3 DUP1 SLOAD PUSH2 0x3CB SWAP1 PUSH2 0xD92 JUMP JUMPDEST DUP1 ISZERO PUSH2 0x418 JUMPI DUP1 PUSH1 0x1F LT PUSH2 0x3ED JUMPI PUSH2 0x100 DUP1 DUP4 SLOAD DIV MUL DUP4 MSTORE SWAP2 PUSH1 0x20 ADD SWAP2 PUSH2 0x418 JUMP JUMPDEST DUP3 ADD SWAP2 SWAP1 PUSH1 0x0 MSTORE PUSH1 0x20 PUSH1 0x0 KECCAK256 SWAP1 JUMPDEST DUP2 SLOAD DUP2 MSTORE SWAP1 PUSH1 0x1 ADD SWAP1 PUSH1 0x20 ADD DUP1 DUP4 GT PUSH2 0x3FB JUMPI DUP3 SWAP1 SUB PUSH1 0x1F AND DUP3 ADD SWAP2 JUMPDEST POP POP POP POP POP SWAP1 POP DUP3 JUMP JUMPDEST DUP2 MLOAD DUP4 MLOAD EQ DUP1 ISZERO PUSH2 0x434 JUMPI POP DUP1 MLOAD DUP3 MLOAD EQ JUMPDEST PUSH2 0x473 JUMPI PUSH1 0x40 MLOAD PUSH32 0x8C379A000000000000000000000000000000000000000000000000000000000 DUP2 MSTORE PUSH1 0x4 ADD PUSH2 0x46A SWAP1 PUSH2 0xE0F JUMP JUMPDEST PUSH1 0x40 MLOAD DUP1 SWAP2 SUB SWAP1 REVERT JUMPDEST PUSH1 0x0 JUMPDEST DUP4 MLOAD DUP2 LT ISZERO PUSH2 0x4EB JUMPI PUSH2 0x4D8 DUP5 DUP3 DUP2 MLOAD DUP2 LT PUSH2 0x495 JUMPI PUSH2 0x494 PUSH2 0xE2F JUMP JUMPDEST JUMPDEST PUSH1 0x20 MUL PUSH1 0x20 ADD ADD MLOAD DUP5 DUP4 DUP2 MLOAD DUP2 LT PUSH2 0x4B0 JUMPI PUSH2 0x4AF PUSH2 0xE2F JUMP JUMPDEST JUMPDEST PUSH1 0x20 MUL PUSH1 0x20 ADD ADD MLOAD DUP5 DUP5 DUP2 MLOAD DUP2 LT PUSH2 0x4CB JUMPI PUSH2 0x4CA PUSH2 0xE2F JUMP JUMPDEST JUMPDEST PUSH1 0x20 MUL PUSH1 0x20 ADD ADD MLOAD PUSH2 0x4F1 JUMP JUMPDEST DUP1 DUP1 PUSH2 0x4E3 SWAP1 PUSH2 0xD04 JUMP JUMPDEST SWAP2 POP POP PUSH2 0x476 JUMP JUMPDEST POP POP POP POP JUMP JUMPDEST PUSH1 0x40 MLOAD DUP1 PUSH1 0x40 ADD PUSH1 0x40 MSTORE DUP1 DUP4 DUP2 MSTORE PUSH1 0x20 ADD DUP3 DUP2 MSTORE POP PUSH1 0x0 DUP5 PUSH1 0x40 MLOAD PUSH2 0x516 SWAP2 SWAP1 PUSH2 0xD4C JUMP JUMPDEST SWAP1 DUP2 MSTORE PUSH1 0x20 ADD PUSH1 0x40 MLOAD DUP1 SWAP2 SUB SWAP1 KECCAK256 PUSH1 0x0 DUP3 ADD MLOAD DUP2 PUSH1 0x0 ADD SWAP1 DUP2 PUSH2 0x539 SWAP2 SWAP1 PUSH2 0x100A JUMP JUMPDEST POP PUSH1 0x20 DUP3 ADD MLOAD DUP2 PUSH1 0x1 ADD SWAP1 DUP2 PUSH2 0x54F SWAP2 SWAP1 PUSH2 0x100A JUMP JUMPDEST POP SWAP1 POP POP PUSH32 0x4F63B101254C6D55638976C7C7B2E44FF57476ECF4C4C9CDC27CF3049E21C250 DUP4 DUP4 PUSH1 0x40 MLOAD PUSH2 0x584 SWAP3 SWAP2 SWAP1 PUSH2 0xA0A JUMP JUMPDEST PUSH1 0x40 MLOAD DUP1 SWAP2 SUB SWAP1 LOG1 POP POP POP JUMP JUMPDEST PUSH1 0x60 PUSH1 0x0 DUP3 SUB PUSH2 0x5D8 JUMPI PUSH1 0x40 MLOAD DUP1 PUSH1 0x40 ADD PUSH1 0x40 MSTORE DUP1 PUSH1 0x1 DUP2 MSTORE PUSH1 0x20 ADD PUSH32 0x3000000000000000000000000000000000000000000000000000000000000000 DUP2 MSTORE POP SWAP1 POP PUSH2 0x6F2 JUMP JUMPDEST PUSH1 0x0 DUP3 SWAP1 POP PUSH1 0x0 JUMPDEST PUSH1 0x0 DUP3 EQ PUSH2 0x60A JUMPI DUP1 DUP1 PUSH2 0x5F3 SWAP1 PUSH2 0xD04 JUMP JUMPDEST SWAP2 POP POP PUSH1 0xA DUP3 PUSH2 0x603 SWAP2 SWAP1 PUSH2 0x110B JUMP JUMPDEST SWAP2 POP PUSH2 0x5E0 JUMP JUMPDEST PUSH1 0x0 DUP2 PUSH8 0xFFFFFFFFFFFFFFFF DUP2 GT ISZERO PUSH2 0x626 JUMPI PUSH2 0x625 PUSH2 0x726 JUMP JUMPDEST JUMPDEST PUSH1 0x40 MLOAD SWAP1 DUP1 DUP3 MSTORE DUP1 PUSH1 0x1F ADD PUSH1 0x1F NOT AND PUSH1 0x20 ADD DUP3 ADD PUSH1 0x40 MSTORE DUP1 ISZERO PUSH2 0x658 JUMPI DUP2 PUSH1 0x20 ADD PUSH1 0x1 DUP3 MUL DUP1 CALLDATASIZE DUP4 CALLDATACOPY DUP1 DUP3 ADD SWAP2 POP POP SWAP1 POP JUMPDEST POP SWAP1 POP PUSH1 0x0 DUP3 SWAP1 POP JUMPDEST PUSH1 0x0 DUP7 EQ PUSH2 0x6EA JUMPI PUSH1 0x1 DUP2 PUSH2 0x676 SWAP2 SWAP1 PUSH2 0x113C JUMP JUMPDEST SWAP1 POP PUSH1 0xA DUP7 PUSH2 0x685 SWAP2 SWAP1 PUSH2 0x1170 JUMP JUMPDEST PUSH1 0x30 PUSH2 0x691 SWAP2 SWAP1 PUSH2 0x11A1 JUMP JUMPDEST PUSH1 0xF8 SHL DUP3 DUP3 DUP2 MLOAD DUP2 LT PUSH2 0x6A7 JUMPI PUSH2 0x6A6 PUSH2 0xE2F JUMP JUMPDEST JUMPDEST PUSH1 0x20 ADD ADD SWAP1 PUSH31 0xFFFFFFFFFFFFFFFFFFFFFFFFFFFFFFFFFFFFFFFFFFFFFFFFFFFFFFFFFFFFFF NOT AND SWAP1 DUP2 PUSH1 0x0 BYTE SWAP1 MSTORE8 POP PUSH1 0xA DUP7 PUSH2 0x6E3 SWAP2 SWAP1 PUSH2 0x110B JUMP JUMPDEST SWAP6 POP PUSH2 0x661 JUMP JUMPDEST DUP2 SWAP5 POP POP POP POP POP JUMPDEST SWAP2 SWAP1 POP JUMP JUMPDEST PUSH1 0x0 PUSH1 0x40 MLOAD SWAP1 POP SWAP1 JUMP JUMPDEST PUSH1 0x0 DUP1 REVERT JUMPDEST PUSH1 0x0 DUP1 REVERT JUMPDEST PUSH1 0x0 DUP1 REVERT JUMPDEST PUSH1 0x0 DUP1 REVERT JUMPDEST PUSH1 0x0 PUSH1 0x1F NOT PUSH1 0x1F DUP4 ADD AND SWAP1 POP SWAP2 SWAP1 POP JUMP JUMPDEST PUSH32 0x4E487B7100000000000000000000000000000000000000000000000000000000 PUSH1 0x0 MSTORE PUSH1 0x41 PUSH1 0x4 MSTORE PUSH1 0x24 PUSH1 0x0 REVERT JUMPDEST PUSH2 0x75E DUP3 PUSH2 0x715 JUMP JUMPDEST DUP2 ADD DUP2 DUP2 LT PUSH8 0xFFFFFFFFFFFFFFFF DUP3 GT OR ISZERO PUSH2 0x77D JUMPI PUSH2 0x77C PUSH2 0x726 JUMP JUMPDEST JUMPDEST DUP1 PUSH1 0x40 MSTORE POP POP POP JUMP JUMPDEST PUSH1 0x0 PUSH2 0x790 PUSH2 0x6F7 JUMP JUMPDEST SWAP1 POP PUSH2 0x79C DUP3 DUP3 PUSH2 0x755 JUMP JUMPDEST SWAP2 SWAP1 POP JUMP JUMPDEST PUSH1 0x0 PUSH8 0xFFFFFFFFFFFFFFFF DUP3 GT ISZERO PUSH2 0x7BC JUMPI PUSH2 0x7BB PUSH2 0x726 JUMP JUMPDEST JUMPDEST PUSH2 0x7C5 DUP3 PUSH2 0x715 JUMP JUMPDEST SWAP1 POP PUSH1 0x20 DUP2 ADD SWAP1 POP SWAP2 SWAP1 POP JUMP JUMPDEST DUP3 DUP2 DUP4 CALLDATACOPY PUSH1 0x0 DUP4 DUP4 ADD MSTORE POP POP POP JUMP JUMPDEST PUSH1 0x0 PUSH2 0x7F4 PUSH2 0x7EF DUP5 PUSH2 0x7A1 JUMP JUMPDEST PUSH2 0x786 JUMP JUMPDEST SWAP1 POP DUP3 DUP2 MSTORE PUSH1 0x20 DUP2 ADD DUP5 DUP5 DUP5 ADD GT ISZERO PUSH2 0x810 JUMPI PUSH2 0x80F PUSH2 0x710 JUMP JUMPDEST JUMPDEST PUSH2 0x81B DUP5 DUP3 DUP6 PUSH2 0x7D2 JUMP JUMPDEST POP SWAP4 SWAP3 POP POP POP JUMP JUMPDEST PUSH1 0x0 DUP3 PUSH1 0x1F DUP4 ADD SLT PUSH2 0x838 JUMPI PUSH2 0x837 PUSH2 0x70B JUMP JUMPDEST JUMPDEST DUP2 CALLDATALOAD PUSH2 0x848 DUP5 DUP3 PUSH1 0x20 DUP7 ADD PUSH2 0x7E1 JUMP JUMPDEST SWAP2 POP POP SWAP3 SWAP2 POP POP JUMP JUMPDEST PUSH1 0x0 DUP2 SWAP1 POP SWAP2 SWAP1 POP JUMP JUMPDEST PUSH2 0x864 DUP2 PUSH2 0x851 JUMP JUMPDEST DUP2 EQ PUSH2 0x86F JUMPI PUSH1 0x0 DUP1 REVERT JUMPDEST POP JUMP JUMPDEST PUSH1 0x0 DUP2 CALLDATALOAD SWAP1 POP PUSH2 0x881 DUP2 PUSH2 0x85B JUMP JUMPDEST SWAP3 SWAP2 POP POP JUMP JUMPDEST PUSH1 0x0 DUP1 PUSH1 0x0 DUP1 PUSH1 0x80 DUP6 DUP8 SUB SLT ISZERO PUSH2 0x8A1 JUMPI PUSH2 0x8A0 PUSH2 0x701 JUMP JUMPDEST JUMPDEST PUSH1 0x0 DUP6 ADD CALLDATALOAD PUSH8 0xFFFFFFFFFFFFFFFF DUP2 GT ISZERO PUSH2 0x8BF JUMPI PUSH2 0x8BE PUSH2 0x706 JUMP JUMPDEST JUMPDEST PUSH2 0x8CB DUP8 DUP3 DUP9 ADD PUSH2 0x823 JUMP JUMPDEST SWAP5 POP POP PUSH1 0x20 DUP6 ADD CALLDATALOAD PUSH8 0xFFFFFFFFFFFFFFFF DUP2 GT ISZERO PUSH2 0x8EC JUMPI PUSH2 0x8EB PUSH2 0x706 JUMP JUMPDEST JUMPDEST PUSH2 0x8F8 DUP8 DUP3 DUP9 ADD PUSH2 0x823 JUMP JUMPDEST SWAP4 POP POP PUSH1 0x40 DUP6 ADD CALLDATALOAD PUSH8 0xFFFFFFFFFFFFFFFF DUP2 GT ISZERO PUSH2 0x919 JUMPI PUSH2 0x918 PUSH2 0x706 JUMP JUMPDEST JUMPDEST PUSH2 0x925 DUP8 DUP3 DUP9 ADD PUSH2 0x823 JUMP JUMPDEST SWAP3 POP POP PUSH1 0x60 PUSH2 0x936 DUP8 DUP3 DUP9 ADD PUSH2 0x872 JUMP JUMPDEST SWAP2 POP POP SWAP3 SWAP6 SWAP2 SWAP5 POP SWAP3 POP JUMP JUMPDEST PUSH1 0x0 PUSH1 0x20 DUP3 DUP5 SUB SLT ISZERO PUSH2 0x958 JUMPI PUSH2 0x957 PUSH2 0x701 JUMP JUMPDEST JUMPDEST PUSH1 0x0 DUP3 ADD CALLDATALOAD PUSH8 0xFFFFFFFFFFFFFFFF DUP2 GT ISZERO PUSH2 0x976 JUMPI PUSH2 0x975 PUSH2 0x706 JUMP JUMPDEST JUMPDEST PUSH2 0x982 DUP5 DUP3 DUP6 ADD PUSH2 0x823 JUMP JUMPDEST SWAP2 POP POP SWAP3 SWAP2 POP POP JUMP JUMPDEST PUSH1 0x0 DUP2 MLOAD SWAP1 POP SWAP2 SWAP1 POP JUMP JUMPDEST PUSH1 0x0 DUP3 DUP3 MSTORE PUSH1 0x20 DUP3 ADD SWAP1 POP SWAP3 SWAP2 POP POP JUMP JUMPDEST PUSH1 0x0 JUMPDEST DUP4 DUP2 LT ISZERO PUSH2 0x9C5 JUMPI DUP1 DUP3 ADD MLOAD DUP2 DUP5 ADD MSTORE PUSH1 0x20 DUP2 ADD SWAP1 POP PUSH2 0x9AA JUMP JUMPDEST PUSH1 0x0 DUP5 DUP5 ADD MSTORE POP POP POP POP JUMP JUMPDEST PUSH1 0x0 PUSH2 0x9DC DUP3 PUSH2 0x98B JUMP JUMPDEST PUSH2 0x9E6 DUP2 DUP6 PUSH2 0x996 JUMP JUMPDEST SWAP4 POP PUSH2 0x9F6 DUP2 DUP6 PUSH1 0x20 DUP7 ADD PUSH2 0x9A7 JUMP JUMPDEST PUSH2 0x9FF DUP2 PUSH2 0x715 JUMP JUMPDEST DUP5 ADD SWAP2 POP POP SWAP3 SWAP2 POP POP JUMP JUMPDEST PUSH1 0x0 PUSH1 0x40 DUP3 ADD SWAP1 POP DUP2 DUP2 SUB PUSH1 0x0 DUP4 ADD MSTORE PUSH2 0xA24 DUP2 DUP6 PUSH2 0x9D1 JUMP JUMPDEST SWAP1 POP DUP2 DUP2 SUB PUSH1 0x20 DUP4 ADD MSTORE PUSH2 0xA38 DUP2 DUP5 PUSH2 0x9D1 JUMP JUMPDEST SWAP1 POP SWAP4 SWAP3 POP POP POP JUMP JUMPDEST PUSH1 0x0 PUSH8 0xFFFFFFFFFFFFFFFF DUP3 GT ISZERO PUSH2 0xA5C JUMPI PUSH2 0xA5B PUSH2 0x726 JUMP JUMPDEST JUMPDEST PUSH1 0x20 DUP3 MUL SWAP1 POP PUSH1 0x20 DUP2 ADD SWAP1 POP SWAP2 SWAP1 POP JUMP JUMPDEST PUSH1 0x0 DUP1 REVERT JUMPDEST PUSH1 0x0 PUSH2 0xA85 PUSH2 0xA80 DUP5 PUSH2 0xA41 JUMP JUMPDEST PUSH2 0x786 JUMP JUMPDEST SWAP1 POP DUP1 DUP4 DUP3 MSTORE PUSH1 0x20 DUP3 ADD SWAP1 POP PUSH1 0x20 DUP5 MUL DUP4 ADD DUP6 DUP2 GT ISZERO PUSH2 0xAA8 JUMPI PUSH2 0xAA7 PUSH2 0xA6D JUMP JUMPDEST JUMPDEST DUP4 JUMPDEST DUP2 DUP2 LT ISZERO PUSH2 0xAEF JUMPI DUP1 CALLDATALOAD PUSH8 0xFFFFFFFFFFFFFFFF DUP2 GT ISZERO PUSH2 0xACD JUMPI PUSH2 0xACC PUSH2 0x70B JUMP JUMPDEST JUMPDEST DUP1 DUP7 ADD PUSH2 0xADA DUP10 DUP3 PUSH2 0x823 JUMP JUMPDEST DUP6 MSTORE PUSH1 0x20 DUP6 ADD SWAP5 POP POP POP PUSH1 0x20 DUP2 ADD SWAP1 POP PUSH2 0xAAA JUMP JUMPDEST POP POP POP SWAP4 SWAP3 POP POP POP JUMP JUMPDEST PUSH1 0x0 DUP3 PUSH1 0x1F DUP4 ADD SLT PUSH2 0xB0E JUMPI PUSH2 0xB0D PUSH2 0x70B JUMP JUMPDEST JUMPDEST DUP2 CALLDATALOAD PUSH2 0xB1E DUP5 DUP3 PUSH1 0x20 DUP7 ADD PUSH2 0xA72 JUMP JUMPDEST SWAP2 POP POP SWAP3 SWAP2 POP POP JUMP JUMPDEST PUSH1 0x0 DUP1 PUSH1 0x0 PUSH1 0x60 DUP5 DUP7 SUB SLT ISZERO PUSH2 0xB40 JUMPI PUSH2 0xB3F PUSH2 0x701 JUMP JUMPDEST JUMPDEST PUSH1 0x0 DUP5 ADD CALLDATALOAD PUSH8 0xFFFFFFFFFFFFFFFF DUP2 GT ISZERO PUSH2 0xB5E JUMPI PUSH2 0xB5D PUSH2 0x706 JUMP JUMPDEST JUMPDEST PUSH2 0xB6A DUP7 DUP3 DUP8 ADD PUSH2 0xAF9 JUMP JUMPDEST SWAP4 POP POP PUSH1 0x20 DUP5 ADD CALLDATALOAD PUSH8 0xFFFFFFFFFFFFFFFF DUP2 GT ISZERO PUSH2 0xB8B JUMPI PUSH2 0xB8A PUSH2 0x706 JUMP JUMPDEST JUMPDEST PUSH2 0xB97 DUP7 DUP3 DUP8 ADD PUSH2 0xAF9 JUMP JUMPDEST SWAP3 POP POP PUSH1 0x40 DUP5 ADD CALLDATALOAD PUSH8 0xFFFFFFFFFFFFFFFF DUP2 GT ISZERO PUSH2 0xBB8 JUMPI PUSH2 0xBB7 PUSH2 0x706 JUMP JUMPDEST JUMPDEST PUSH2 0xBC4 DUP7 DUP3 DUP8 ADD PUSH2 0xAF9 JUMP JUMPDEST SWAP2 POP POP SWAP3 POP SWAP3 POP SWAP3 JUMP JUMPDEST PUSH1 0x0 DUP1 PUSH1 0x0 PUSH1 0x60 DUP5 DUP7 SUB SLT ISZERO PUSH2 0xBE7 JUMPI PUSH2 0xBE6 PUSH2 0x701 JUMP JUMPDEST JUMPDEST PUSH1 0x0 DUP5 ADD CALLDATALOAD PUSH8 0xFFFFFFFFFFFFFFFF DUP2 GT ISZERO PUSH2 0xC05 JUMPI PUSH2 0xC04 PUSH2 0x706 JUMP JUMPDEST JUMPDEST PUSH2 0xC11 DUP7 DUP3 DUP8 ADD PUSH2 0x823 JUMP JUMPDEST SWAP4 POP POP PUSH1 0x20 DUP5 ADD CALLDATALOAD PUSH8 0xFFFFFFFFFFFFFFFF DUP2 GT ISZERO PUSH2 0xC32 JUMPI PUSH2 0xC31 PUSH2 0x706 JUMP JUMPDEST JUMPDEST PUSH2 0xC3E DUP7 DUP3 DUP8 ADD PUSH2 0x823 JUMP JUMPDEST SWAP3 POP POP PUSH1 0x40 DUP5 ADD CALLDATALOAD PUSH8 0xFFFFFFFFFFFFFFFF DUP2 GT ISZERO PUSH2 0xC5F JUMPI PUSH2 0xC5E PUSH2 0x706 JUMP JUMPDEST JUMPDEST PUSH2 0xC6B DUP7 DUP3 DUP8 ADD PUSH2 0x823 JUMP JUMPDEST SWAP2 POP POP SWAP3 POP SWAP3 POP SWAP3 JUMP JUMPDEST PUSH1 0x0 DUP2 SWAP1 POP SWAP3 SWAP2 POP POP JUMP JUMPDEST PUSH1 0x0 PUSH2 0xC8B DUP3 PUSH2 0x98B JUMP JUMPDEST PUSH2 0xC95 DUP2 DUP6 PUSH2 0xC75 JUMP JUMPDEST SWAP4 POP PUSH2 0xCA5 DUP2 DUP6 PUSH1 0x20 DUP7 ADD PUSH2 0x9A7 JUMP JUMPDEST DUP1 DUP5 ADD SWAP2 POP POP SWAP3 SWAP2 POP POP JUMP JUMPDEST PUSH1 0x0 PUSH2 0xCBD DUP3 DUP6 PUSH2 0xC80 JUMP JUMPDEST SWAP2 POP PUSH2 0xCC9 DUP3 DUP5 PUSH2 0xC80 JUMP JUMPDEST SWAP2 POP DUP2 SWAP1 POP SWAP4 SWAP3 POP POP POP JUMP JUMPDEST PUSH32 0x4E487B7100000000000000000000000000000000000000000000000000000000 PUSH1 0x0 MSTORE PUSH1 0x11 PUSH1 0x4 MSTORE PUSH1 0x24 PUSH1 0x0 REVERT JUMPDEST PUSH1 0x0 PUSH2 0xD0F DUP3 PUSH2 0x851 JUMP JUMPDEST SWAP2 POP PUSH32 0xFFFFFFFFFFFFFFFFFFFFFFFFFFFFFFFFFFFFFFFFFFFFFFFFFFFFFFFFFFFFFFFF DUP3 SUB PUSH2 0xD41 JUMPI PUSH2 0xD40 PUSH2 0xCD5 JUMP JUMPDEST JUMPDEST PUSH1 0x1 DUP3 ADD SWAP1 POP SWAP2 SWAP1 POP JUMP JUMPDEST PUSH1 0x0 PUSH2 0xD58 DUP3 DUP5 PUSH2 0xC80 JUMP JUMPDEST SWAP2 POP DUP2 SWAP1 POP SWAP3 SWAP2 POP POP JUMP JUMPDEST PUSH32 0x4E487B7100000000000000000000000000000000000000000000000000000000 PUSH1 0x0 MSTORE PUSH1 0x22 PUSH1 0x4 MSTORE PUSH1 0x24 PUSH1 0x0 REVERT JUMPDEST PUSH1 0x0 PUSH1 0x2 DUP3 DIV SWAP1 POP PUSH1 0x1 DUP3 AND DUP1 PUSH2 0xDAA JUMPI PUSH1 0x7F DUP3 AND SWAP2 POP JUMPDEST PUSH1 0x20 DUP3 LT DUP2 SUB PUSH2 0xDBD JUMPI PUSH2 0xDBC PUSH2 0xD63 JUMP JUMPDEST JUMPDEST POP SWAP2 SWAP1 POP JUMP JUMPDEST PUSH32 0x417272617973206C656E677468206D69736D6174636800000000000000000000 PUSH1 0x0 DUP3 ADD MSTORE POP JUMP JUMPDEST PUSH1 0x0 PUSH2 0xDF9 PUSH1 0x16 DUP4 PUSH2 0x996 JUMP JUMPDEST SWAP2 POP PUSH2 0xE04 DUP3 PUSH2 0xDC3 JUMP JUMPDEST PUSH1 0x20 DUP3 ADD SWAP1 POP SWAP2 SWAP1 POP JUMP JUMPDEST PUSH1 0x0 PUSH1 0x20 DUP3 ADD SWAP1 POP DUP2 DUP2 SUB PUSH1 0x0 DUP4 ADD MSTORE PUSH2 0xE28 DUP2 PUSH2 0xDEC JUMP JUMPDEST SWAP1 POP SWAP2 SWAP1 POP JUMP JUMPDEST PUSH32 0x4E487B7100000000000000000000000000000000000000000000000000000000 PUSH1 0x0 MSTORE PUSH1 0x32 PUSH1 0x4 MSTORE PUSH1 0x24 PUSH1 0x0 REVERT JUMPDEST PUSH1 0x0 DUP2 SWAP1 POP DUP2 PUSH1 0x0 MSTORE PUSH1 0x20 PUSH1 0x0 KECCAK256 SWAP1 POP SWAP2 SWAP1 POP JUMP JUMPDEST PUSH1 0x0 PUSH1 0x20 PUSH1 0x1F DUP4 ADD DIV SWAP1 POP SWAP2 SWAP1 POP JUMP JUMPDEST PUSH1 0x0 DUP3 DUP3 SHL SWAP1 POP SWAP3 SWAP2 POP POP JUMP JUMPDEST PUSH1 0x0 PUSH1 0x8 DUP4 MUL PUSH2 0xEC0 PUSH32 0xFFFFFFFFFFFFFFFFFFFFFFFFFFFFFFFFFFFFFFFFFFFFFFFFFFFFFFFFFFFFFFFF DUP3 PUSH2 0xE83 JUMP JUMPDEST PUSH2 0xECA DUP7 DUP4 PUSH2 0xE83 JUMP JUMPDEST SWAP6 POP DUP1 NOT DUP5 AND SWAP4 POP DUP1 DUP7 AND DUP5 OR SWAP3 POP POP POP SWAP4 SWAP3 POP POP POP JUMP JUMPDEST PUSH1 0x0 DUP2 SWAP1 POP SWAP2 SWAP1 POP JUMP JUMPDEST PUSH1 0x0 PUSH2 0xF07 PUSH2 0xF02 PUSH2 0xEFD DUP5 PUSH2 0x851 JUMP JUMPDEST PUSH2 0xEE2 JUMP JUMPDEST PUSH2 0x851 JUMP JUMPDEST SWAP1 POP SWAP2 SWAP1 POP JUMP JUMPDEST PUSH1 0x0 DUP2 SWAP1 POP SWAP2 SWAP1 POP JUMP JUMPDEST PUSH2 0xF21 DUP4 PUSH2 0xEEC JUMP JUMPDEST PUSH2 0xF35 PUSH2 0xF2D DUP3 PUSH2 0xF0E JUMP JUMPDEST DUP5 DUP5 SLOAD PUSH2 0xE90 JUMP JUMPDEST DUP3 SSTORE POP POP POP POP JUMP JUMPDEST PUSH1 0x0 SWAP1 JUMP JUMPDEST PUSH2 0xF4A PUSH2 0xF3D JUMP JUMPDEST PUSH2 0xF55 DUP2 DUP5 DUP5 PUSH2 0xF18 JUMP JUMPDEST POP POP POP JUMP JUMPDEST JUMPDEST DUP2 DUP2 LT ISZERO PUSH2 0xF79 JUMPI PUSH2 0xF6E PUSH1 0x0 DUP3 PUSH2 0xF42 JUMP JUMPDEST PUSH1 0x1 DUP2 ADD SWAP1 POP PUSH2 0xF5B JUMP JUMPDEST POP POP JUMP JUMPDEST PUSH1 0x1F DUP3 GT ISZERO PUSH2 0xFBE JUMPI PUSH2 0xF8F DUP2 PUSH2 0xE5E JUMP JUMPDEST PUSH2 0xF98 DUP5 PUSH2 0xE73 JUMP JUMPDEST DUP2 ADD PUSH1 0x20 DUP6 LT ISZERO PUSH2 0xFA7 JUMPI DUP2 SWAP1 POP JUMPDEST PUSH2 0xFBB PUSH2 0xFB3 DUP6 PUSH2 0xE73 JUMP JUMPDEST DUP4 ADD DUP3 PUSH2 0xF5A JUMP JUMPDEST POP POP JUMPDEST POP POP POP JUMP JUMPDEST PUSH1 0x0 DUP3 DUP3 SHR SWAP1 POP SWAP3 SWAP2 POP POP JUMP JUMPDEST PUSH1 0x0 PUSH2 0xFE1 PUSH1 0x0 NOT DUP5 PUSH1 0x8 MUL PUSH2 0xFC3 JUMP JUMPDEST NOT DUP1 DUP4 AND SWAP2 POP POP SWAP3 SWAP2 POP POP JUMP JUMPDEST PUSH1 0x0 PUSH2 0xFFA DUP4 DUP4 PUSH2 0xFD0 JUMP JUMPDEST SWAP2 POP DUP3 PUSH1 0x2 MUL DUP3 OR SWAP1 POP SWAP3 SWAP2 POP POP JUMP JUMPDEST PUSH2 0x1013 DUP3 PUSH2 0x98B JUMP JUMPDEST PUSH8 0xFFFFFFFFFFFFFFFF DUP2 GT ISZERO PUSH2 0x102C JUMPI PUSH2 0x102B PUSH2 0x726 JUMP JUMPDEST JUMPDEST PUSH2 0x1036 DUP3 SLOAD PUSH2 0xD92 JUMP JUMPDEST PUSH2 0x1041 DUP3 DUP3 DUP6 PUSH2 0xF7D JUMP JUMPDEST PUSH1 0x0 PUSH1 0x20 SWAP1 POP PUSH1 0x1F DUP4 GT PUSH1 0x1 DUP2 EQ PUSH2 0x1074 JUMPI PUSH1 0x0 DUP5 ISZERO PUSH2 0x1062 JUMPI DUP3 DUP8 ADD MLOAD SWAP1 POP JUMPDEST PUSH2 0x106C DUP6 DUP3 PUSH2 0xFEE JUMP JUMPDEST DUP7 SSTORE POP PUSH2 0x10D4 JUMP JUMPDEST PUSH1 0x1F NOT DUP5 AND PUSH2 0x1082 DUP7 PUSH2 0xE5E JUMP JUMPDEST PUSH1 0x0 JUMPDEST DUP3 DUP2 LT ISZERO PUSH2 0x10AA JUMPI DUP5 DUP10 ADD MLOAD DUP3 SSTORE PUSH1 0x1 DUP3 ADD SWAP2 POP PUSH1 0x20 DUP6 ADD SWAP5 POP PUSH1 0x20 DUP2 ADD SWAP1 POP PUSH2 0x1085 JUMP JUMPDEST DUP7 DUP4 LT ISZERO PUSH2 0x10C7 JUMPI DUP5 DUP10 ADD MLOAD PUSH2 0x10C3 PUSH1 0x1F DUP10 AND DUP3 PUSH2 0xFD0 JUMP JUMPDEST DUP4 SSTORE POP JUMPDEST PUSH1 0x1 PUSH1 0x2 DUP9 MUL ADD DUP9 SSTORE POP POP POP JUMPDEST POP POP POP POP POP POP JUMP JUMPDEST PUSH32 0x4E487B7100000000000000000000000000000000000000000000000000000000 PUSH1 0x0 MSTORE PUSH1 0x12 PUSH1 0x4 MSTORE PUSH1 0x24 PUSH1 0x0 REVERT JUMPDEST PUSH1 0x0 PUSH2 0x1116 DUP3 PUSH2 0x851 JUMP JUMPDEST SWAP2 POP PUSH2 0x1121 DUP4 PUSH2 0x851 JUMP JUMPDEST SWAP3 POP DUP3 PUSH2 0x1131 JUMPI PUSH2 0x1130 PUSH2 0x10DC JUMP JUMPDEST JUMPDEST DUP3 DUP3 DIV SWAP1 POP SWAP3 SWAP2 POP POP JUMP JUMPDEST PUSH1 0x0 PUSH2 0x1147 DUP3 PUSH2 0x851 JUMP JUMPDEST SWAP2 POP PUSH2 0x1152 DUP4 PUSH2 0x851 JUMP JUMPDEST SWAP3 POP DUP3 DUP3 SUB SWAP1 POP DUP2 DUP2 GT ISZERO PUSH2 0x116A JUMPI PUSH2 0x1169 PUSH2 0xCD5 JUMP JUMPDEST JUMPDEST SWAP3 SWAP2 POP POP JUMP JUMPDEST PUSH1 0x0 PUSH2 0x117B DUP3 PUSH2 0x851 JUMP JUMPDEST SWAP2 POP PUSH2 0x1186 DUP4 PUSH2 0x851 JUMP JUMPDEST SWAP3 POP DUP3 PUSH2 0x1196 JUMPI PUSH2 0x1195 PUSH2 0x10DC JUMP JUMPDEST JUMPDEST DUP3 DUP3 MOD SWAP1 POP SWAP3 SWAP2 POP POP JUMP JUMPDEST PUSH1 0x0 PUSH2 0x11AC DUP3 PUSH2 0x851 JUMP JUMPDEST SWAP2 POP PUSH2 0x11B7 DUP4 PUSH2 0x851 JUMP JUMPDEST SWAP3 POP DUP3 DUP3 ADD SWAP1 POP DUP1 DUP3 GT ISZERO PUSH2 0x11CF JUMPI PUSH2 0x11CE PUSH2 0xCD5 JUMP JUMPDEST JUMPDEST SWAP3 SWAP2 POP POP JUMP INVALID LOG2 PUSH5 0x6970667358 0x22 SLT KECCAK256 KECCAK256 CODECOPY SGT DELEGATECALL LT SWAP10 0xDE PREVRANDAO 0x1E 0xB0 PUSH24 0x89EF68EB305B3228FE4A68C8920924E83AE2D3F66C64736F PUSH13 0x63430008130033000000000000 "
				},
				"gasEstimates": {
					"creation": {
						"codeDepositCost": "923800",
						"executionCost": "962",
						"totalCost": "924762"
					},
					"external": {
						"documents(string)": "infinite",
						"getDocument(string)": "infinite",
						"storeDocument(string,string,string)": "infinite",
						"storeMultipleDocuments(string[],string[],string[])": "infinite",
						"stressTestStoreDocument(string,string,string,uint256)": "infinite"
					},
					"internal": {
						"uint2str(uint256)": "infinite"
					}
				},
				"methodIdentifiers": {
					"documents(string)": "b3dd697b",
					"getDocument(string)": "7ccb6a64",
					"storeDocument(string,string,string)": "f2d893e4",
					"storeMultipleDocuments(string[],string[],string[])": "dfb4a3f6",
					"stressTestStoreDocument(string,string,string,uint256)": "4ccc9c76"
				}
			},
			"storageLayout": {
				"storage": [
					{
						"astId": 11,
						"contract": "CivilMetaDataStressTest.sol:CivilMetadataStorage",
						"label": "documents",
						"offset": 0,
						"slot": "0",
						"type": "t_mapping(t_string_memory_ptr,t_struct(CivilDocument)6_storage)"
					}
				],
				"types": {
					"t_mapping(t_string_memory_ptr,t_struct(CivilDocument)6_storage)": {
						"encoding": "mapping",
						"key": "t_string_memory_ptr",
						"label": "mapping(string => struct CivilMetadataStorage.CivilDocument)",
						"numberOfBytes": "32",
						"value": "t_struct(CivilDocument)6_storage"
					},
					"t_string_memory_ptr": {
						"encoding": "bytes",
						"label": "string",
						"numberOfBytes": "32"
					},
					"t_string_storage": {
						"encoding": "bytes",
						"label": "string",
						"numberOfBytes": "32"
					},
					"t_struct(CivilDocument)6_storage": {
						"encoding": "inplace",
						"label": "struct CivilMetadataStorage.CivilDocument",
						"members": [
							{
								"astId": 3,
								"contract": "CivilMetaDataStressTest.sol:CivilMetadataStorage",
								"label": "ipfsHash",
								"offset": 0,
								"slot": "0",
								"type": "t_string_storage"
							},
							{
								"astId": 5,
								"contract": "CivilMetaDataStressTest.sol:CivilMetadataStorage",
								"label": "encryptedMetadata",
								"offset": 0,
								"slot": "1",
								"type": "t_string_storage"
							}
						],
						"numberOfBytes": "64"
					}
				}
			},
			"userdoc": {
				"kind": "user",
				"methods": {},
				"version": 1
			}
		}
	}
}